ARM GAS  /tmp/ccTLlpqL.s 			page 1


   1              		.cpu cortex-m4
   2              		.eabi_attribute 27, 1
   3              		.eabi_attribute 28, 1
   4              		.eabi_attribute 20, 1
   5              		.eabi_attribute 21, 1
   6              		.eabi_attribute 23, 3
   7              		.eabi_attribute 24, 1
   8              		.eabi_attribute 25, 1
   9              		.eabi_attribute 26, 1
  10              		.eabi_attribute 30, 1
  11              		.eabi_attribute 34, 1
  12              		.eabi_attribute 18, 4
  13              		.file	"usb_device.c"
  14              		.text
  15              	.Ltext0:
  16              		.cfi_sections	.debug_frame
  17              		.section	.text.MX_USB_DEVICE_Init,"ax",%progbits
  18              		.align	1
  19              		.global	MX_USB_DEVICE_Init
  20              		.arch armv7e-m
  21              		.syntax unified
  22              		.thumb
  23              		.thumb_func
  24              		.fpu fpv4-sp-d16
  26              	MX_USB_DEVICE_Init:
  27              	.LFB133:
  28              		.file 1 "Src/usb_device.c"
   1:Src/usb_device.c **** /* USER CODE BEGIN Header */
   2:Src/usb_device.c **** /**
   3:Src/usb_device.c ****   ******************************************************************************
   4:Src/usb_device.c ****   * @file           : usb_device.c
   5:Src/usb_device.c ****   * @version        : v1.0_Cube
   6:Src/usb_device.c ****   * @brief          : This file implements the USB Device
   7:Src/usb_device.c ****   ******************************************************************************
   8:Src/usb_device.c ****   * @attention
   9:Src/usb_device.c ****   *
  10:Src/usb_device.c ****   * <h2><center>&copy; Copyright (c) 2020 STMicroelectronics.
  11:Src/usb_device.c ****   * All rights reserved.</center></h2>
  12:Src/usb_device.c ****   *
  13:Src/usb_device.c ****   * This software component is licensed by ST under Ultimate Liberty license
  14:Src/usb_device.c ****   * SLA0044, the "License"; You may not use this file except in compliance with
  15:Src/usb_device.c ****   * the License. You may obtain a copy of the License at:
  16:Src/usb_device.c ****   *                             www.st.com/SLA0044
  17:Src/usb_device.c ****   *
  18:Src/usb_device.c ****   ******************************************************************************
  19:Src/usb_device.c ****   */
  20:Src/usb_device.c **** /* USER CODE END Header */
  21:Src/usb_device.c **** 
  22:Src/usb_device.c **** /* Includes ------------------------------------------------------------------*/
  23:Src/usb_device.c **** 
  24:Src/usb_device.c **** #include "usb_device.h"
  25:Src/usb_device.c **** #include "usbd_core.h"
  26:Src/usb_device.c **** #include "usbd_desc.h"
  27:Src/usb_device.c **** #include "usbd_cdc.h"
  28:Src/usb_device.c **** #include "usbd_cdc_if.h"
  29:Src/usb_device.c **** #include "usbd_cdc_if_gdb.h"
  30:Src/usb_device.c **** 
ARM GAS  /tmp/ccTLlpqL.s 			page 2


  31:Src/usb_device.c **** /* USER CODE BEGIN Includes */
  32:Src/usb_device.c **** 
  33:Src/usb_device.c **** /* USER CODE END Includes */
  34:Src/usb_device.c **** 
  35:Src/usb_device.c **** /* USER CODE BEGIN PV */
  36:Src/usb_device.c **** /* Private variables ---------------------------------------------------------*/
  37:Src/usb_device.c **** 
  38:Src/usb_device.c **** /* USER CODE END PV */
  39:Src/usb_device.c **** 
  40:Src/usb_device.c **** /* USER CODE BEGIN PFP */
  41:Src/usb_device.c **** /* Private function prototypes -----------------------------------------------*/
  42:Src/usb_device.c **** 
  43:Src/usb_device.c **** /* USER CODE END PFP */
  44:Src/usb_device.c **** 
  45:Src/usb_device.c **** /* USB Device Core handle declaration. */
  46:Src/usb_device.c **** USBD_HandleTypeDef hUsbDeviceFS;
  47:Src/usb_device.c **** USBD_HandleTypeDef hUsbDeviceFS_GDB;
  48:Src/usb_device.c **** 
  49:Src/usb_device.c **** /*
  50:Src/usb_device.c ****  * -- Insert your variables declaration here --
  51:Src/usb_device.c ****  */
  52:Src/usb_device.c **** /* USER CODE BEGIN 0 */
  53:Src/usb_device.c **** 
  54:Src/usb_device.c **** /* USER CODE END 0 */
  55:Src/usb_device.c **** 
  56:Src/usb_device.c **** /*
  57:Src/usb_device.c ****  * -- Insert your external function declaration here --
  58:Src/usb_device.c ****  */
  59:Src/usb_device.c **** /* USER CODE BEGIN 1 */
  60:Src/usb_device.c **** 
  61:Src/usb_device.c **** /* USER CODE END 1 */
  62:Src/usb_device.c **** 
  63:Src/usb_device.c **** /**
  64:Src/usb_device.c ****   * Init USB device Library, add supported class and start the library
  65:Src/usb_device.c ****   * @retval None
  66:Src/usb_device.c ****   */
  67:Src/usb_device.c **** void MX_USB_DEVICE_Init(void)
  68:Src/usb_device.c **** {
  29              		.loc 1 68 1 view -0
  30              		.cfi_startproc
  31              		@ args = 0, pretend = 0, frame = 0
  32              		@ frame_needed = 0, uses_anonymous_args = 0
  33 0000 08B5     		push	{r3, lr}
  34              	.LCFI0:
  35              		.cfi_def_cfa_offset 8
  36              		.cfi_offset 3, -8
  37              		.cfi_offset 14, -4
  69:Src/usb_device.c ****   /* USER CODE BEGIN USB_DEVICE_Init_PreTreatment */
  70:Src/usb_device.c ****   
  71:Src/usb_device.c ****   /* USER CODE END USB_DEVICE_Init_PreTreatment */
  72:Src/usb_device.c ****   
  73:Src/usb_device.c ****   /* Init Device Library, add supported class and start the library. */
  74:Src/usb_device.c ****   if (USBD_Init(&hUsbDeviceFS, &FS_Desc, DEVICE_FS) != USBD_OK)
  38              		.loc 1 74 3 view .LVU1
  39              		.loc 1 74 7 is_stmt 0 view .LVU2
  40 0002 0022     		movs	r2, #0
  41 0004 1F49     		ldr	r1, .L19
ARM GAS  /tmp/ccTLlpqL.s 			page 3


  42 0006 2048     		ldr	r0, .L19+4
  43 0008 FFF7FEFF 		bl	USBD_Init
  44              	.LVL0:
  45              		.loc 1 74 6 view .LVU3
  46 000c 10BB     		cbnz	r0, .L11
  47              	.L2:
  75:Src/usb_device.c ****   {
  76:Src/usb_device.c ****     Error_Handler();
  77:Src/usb_device.c ****   }
  78:Src/usb_device.c ****   if (USBD_RegisterClass(&hUsbDeviceFS, &USBD_CDC) != USBD_OK)
  48              		.loc 1 78 3 is_stmt 1 view .LVU4
  49              		.loc 1 78 7 is_stmt 0 view .LVU5
  50 000e 1F49     		ldr	r1, .L19+8
  51 0010 1D48     		ldr	r0, .L19+4
  52 0012 FFF7FEFF 		bl	USBD_RegisterClass
  53              	.LVL1:
  54              		.loc 1 78 6 view .LVU6
  55 0016 00BB     		cbnz	r0, .L12
  56              	.L3:
  79:Src/usb_device.c ****   {
  80:Src/usb_device.c ****     Error_Handler();
  81:Src/usb_device.c ****   }
  82:Src/usb_device.c ****   if (USBD_CDC_RegisterInterface(&hUsbDeviceFS, &USBD_Interface_fops_FS) != USBD_OK)
  57              		.loc 1 82 3 is_stmt 1 view .LVU7
  58              		.loc 1 82 7 is_stmt 0 view .LVU8
  59 0018 1D49     		ldr	r1, .L19+12
  60 001a 1B48     		ldr	r0, .L19+4
  61 001c FFF7FEFF 		bl	USBD_CDC_RegisterInterface
  62              	.LVL2:
  63              		.loc 1 82 6 view .LVU9
  64 0020 F0B9     		cbnz	r0, .L13
  65              	.L4:
  83:Src/usb_device.c ****   {
  84:Src/usb_device.c ****     Error_Handler();
  85:Src/usb_device.c ****   }
  86:Src/usb_device.c ****   if (USBD_Start(&hUsbDeviceFS) != USBD_OK)
  66              		.loc 1 86 3 is_stmt 1 view .LVU10
  67              		.loc 1 86 7 is_stmt 0 view .LVU11
  68 0022 1948     		ldr	r0, .L19+4
  69 0024 FFF7FEFF 		bl	USBD_Start
  70              	.LVL3:
  71              		.loc 1 86 6 view .LVU12
  72 0028 E8B9     		cbnz	r0, .L14
  73              	.L5:
  87:Src/usb_device.c ****   {
  88:Src/usb_device.c ****     Error_Handler();
  89:Src/usb_device.c ****   }
  90:Src/usb_device.c **** 
  91:Src/usb_device.c ****   if (USBD_Init(&hUsbDeviceFS_GDB, &FS_Desc_GDB, DEVICE_FS) != USBD_OK)
  74              		.loc 1 91 3 is_stmt 1 view .LVU13
  75              		.loc 1 91 7 is_stmt 0 view .LVU14
  76 002a 0022     		movs	r2, #0
  77 002c 1949     		ldr	r1, .L19+16
  78 002e 1A48     		ldr	r0, .L19+20
  79 0030 FFF7FEFF 		bl	USBD_Init
  80              	.LVL4:
  81              		.loc 1 91 6 view .LVU15
ARM GAS  /tmp/ccTLlpqL.s 			page 4


  82 0034 D0B9     		cbnz	r0, .L15
  83              	.L6:
  92:Src/usb_device.c ****   {
  93:Src/usb_device.c ****     Error_Handler();
  94:Src/usb_device.c ****   }
  95:Src/usb_device.c ****   if (USBD_RegisterClass(&hUsbDeviceFS_GDB, &USBD_CDC) != USBD_OK)
  84              		.loc 1 95 3 is_stmt 1 view .LVU16
  85              		.loc 1 95 7 is_stmt 0 view .LVU17
  86 0036 1549     		ldr	r1, .L19+8
  87 0038 1748     		ldr	r0, .L19+20
  88 003a FFF7FEFF 		bl	USBD_RegisterClass
  89              	.LVL5:
  90              		.loc 1 95 6 view .LVU18
  91 003e C0B9     		cbnz	r0, .L16
  92              	.L7:
  96:Src/usb_device.c ****   {
  97:Src/usb_device.c ****     Error_Handler();
  98:Src/usb_device.c ****   }
  99:Src/usb_device.c ****   if (USBD_CDC_RegisterInterface(&hUsbDeviceFS_GDB, &USBD_Interface_fops_FS_GDB) != USBD_OK)
  93              		.loc 1 99 3 is_stmt 1 view .LVU19
  94              		.loc 1 99 7 is_stmt 0 view .LVU20
  95 0040 1649     		ldr	r1, .L19+24
  96 0042 1548     		ldr	r0, .L19+20
  97 0044 FFF7FEFF 		bl	USBD_CDC_RegisterInterface
  98              	.LVL6:
  99              		.loc 1 99 6 view .LVU21
 100 0048 B0B9     		cbnz	r0, .L17
 101              	.L8:
 100:Src/usb_device.c ****   {
 101:Src/usb_device.c ****     Error_Handler();
 102:Src/usb_device.c ****   }
 103:Src/usb_device.c ****   if (USBD_Start(&hUsbDeviceFS_GDB) != USBD_OK)
 102              		.loc 1 103 3 is_stmt 1 view .LVU22
 103              		.loc 1 103 7 is_stmt 0 view .LVU23
 104 004a 1348     		ldr	r0, .L19+20
 105 004c FFF7FEFF 		bl	USBD_Start
 106              	.LVL7:
 107              		.loc 1 103 6 view .LVU24
 108 0050 A8B9     		cbnz	r0, .L18
 109              	.L1:
 104:Src/usb_device.c ****   {
 105:Src/usb_device.c ****     Error_Handler();
 106:Src/usb_device.c ****   }
 107:Src/usb_device.c **** 
 108:Src/usb_device.c ****   /* USER CODE BEGIN USB_DEVICE_Init_PostTreatment */
 109:Src/usb_device.c ****   
 110:Src/usb_device.c ****   /* USER CODE END USB_DEVICE_Init_PostTreatment */
 111:Src/usb_device.c **** }
 110              		.loc 1 111 1 view .LVU25
 111 0052 08BD     		pop	{r3, pc}
 112              	.L11:
  76:Src/usb_device.c ****   }
 113              		.loc 1 76 5 is_stmt 1 view .LVU26
 114 0054 FFF7FEFF 		bl	Error_Handler
 115              	.LVL8:
 116 0058 D9E7     		b	.L2
 117              	.L12:
ARM GAS  /tmp/ccTLlpqL.s 			page 5


  80:Src/usb_device.c ****   }
 118              		.loc 1 80 5 view .LVU27
 119 005a FFF7FEFF 		bl	Error_Handler
 120              	.LVL9:
 121 005e DBE7     		b	.L3
 122              	.L13:
  84:Src/usb_device.c ****   }
 123              		.loc 1 84 5 view .LVU28
 124 0060 FFF7FEFF 		bl	Error_Handler
 125              	.LVL10:
 126 0064 DDE7     		b	.L4
 127              	.L14:
  88:Src/usb_device.c ****   }
 128              		.loc 1 88 5 view .LVU29
 129 0066 FFF7FEFF 		bl	Error_Handler
 130              	.LVL11:
 131 006a DEE7     		b	.L5
 132              	.L15:
  93:Src/usb_device.c ****   }
 133              		.loc 1 93 5 view .LVU30
 134 006c FFF7FEFF 		bl	Error_Handler
 135              	.LVL12:
 136 0070 E1E7     		b	.L6
 137              	.L16:
  97:Src/usb_device.c ****   }
 138              		.loc 1 97 5 view .LVU31
 139 0072 FFF7FEFF 		bl	Error_Handler
 140              	.LVL13:
 141 0076 E3E7     		b	.L7
 142              	.L17:
 101:Src/usb_device.c ****   }
 143              		.loc 1 101 5 view .LVU32
 144 0078 FFF7FEFF 		bl	Error_Handler
 145              	.LVL14:
 146 007c E5E7     		b	.L8
 147              	.L18:
 105:Src/usb_device.c ****   }
 148              		.loc 1 105 5 view .LVU33
 149 007e FFF7FEFF 		bl	Error_Handler
 150              	.LVL15:
 151              		.loc 1 111 1 is_stmt 0 view .LVU34
 152 0082 E6E7     		b	.L1
 153              	.L20:
 154              		.align	2
 155              	.L19:
 156 0084 00000000 		.word	FS_Desc
 157 0088 00000000 		.word	hUsbDeviceFS
 158 008c 00000000 		.word	USBD_CDC
 159 0090 00000000 		.word	USBD_Interface_fops_FS
 160 0094 00000000 		.word	FS_Desc_GDB
 161 0098 00000000 		.word	hUsbDeviceFS_GDB
 162 009c 00000000 		.word	USBD_Interface_fops_FS_GDB
 163              		.cfi_endproc
 164              	.LFE133:
 166              		.comm	hUsbDeviceFS_GDB,668,4
 167              		.comm	hUsbDeviceFS,668,4
 168              		.text
ARM GAS  /tmp/ccTLlpqL.s 			page 6


 169              	.Letext0:
 170              		.file 2 "/usr/arm-none-eabi/include/machine/_default_types.h"
 171              		.file 3 "/usr/arm-none-eabi/include/sys/_stdint.h"
 172              		.file 4 "Drivers/CMSIS/Include/core_cm4.h"
 173              		.file 5 "Drivers/CMSIS/Device/ST/STM32F4xx/Include/system_stm32f4xx.h"
 174              		.file 6 "Drivers/STM32F4xx_HAL_Driver/Inc/stm32f4xx_hal.h"
 175              		.file 7 "/usr/lib/gcc/arm-none-eabi/9.3.0/include/stddef.h"
 176              		.file 8 "/usr/arm-none-eabi/include/sys/_types.h"
 177              		.file 9 "/usr/arm-none-eabi/include/sys/reent.h"
 178              		.file 10 "/usr/arm-none-eabi/include/sys/lock.h"
 179              		.file 11 "/usr/arm-none-eabi/include/stdlib.h"
 180              		.file 12 "Middlewares/ST/STM32_USB_Device_Library/Core/Inc/usbd_def.h"
 181              		.file 13 "Inc/usbd_desc.h"
 182              		.file 14 "Middlewares/ST/STM32_USB_Device_Library/Class/CDC/Inc/usbd_cdc.h"
 183              		.file 15 "Inc/usbd_cdc_if.h"
 184              		.file 16 "Inc/usbd_cdc_if_gdb.h"
 185              		.file 17 "Middlewares/ST/STM32_USB_Device_Library/Core/Inc/usbd_core.h"
 186              		.file 18 "Inc/main.h"
ARM GAS  /tmp/ccTLlpqL.s 			page 7


DEFINED SYMBOLS
                            *ABS*:0000000000000000 usb_device.c
     /tmp/ccTLlpqL.s:18     .text.MX_USB_DEVICE_Init:0000000000000000 $t
     /tmp/ccTLlpqL.s:26     .text.MX_USB_DEVICE_Init:0000000000000000 MX_USB_DEVICE_Init
     /tmp/ccTLlpqL.s:156    .text.MX_USB_DEVICE_Init:0000000000000084 $d
                            *COM*:000000000000029c hUsbDeviceFS
                            *COM*:000000000000029c hUsbDeviceFS_GDB

UNDEFINED SYMBOLS
USBD_Init
USBD_RegisterClass
USBD_CDC_RegisterInterface
USBD_Start
Error_Handler
FS_Desc
USBD_CDC
USBD_Interface_fops_FS
FS_Desc_GDB
USBD_Interface_fops_FS_GDB
