ARM GAS  /tmp/ccIuvqu8.s 			page 1


   1              		.cpu cortex-m4
   2              		.eabi_attribute 27, 1
   3              		.eabi_attribute 28, 1
   4              		.eabi_attribute 20, 1
   5              		.eabi_attribute 21, 1
   6              		.eabi_attribute 23, 3
   7              		.eabi_attribute 24, 1
   8              		.eabi_attribute 25, 1
   9              		.eabi_attribute 26, 1
  10              		.eabi_attribute 30, 1
  11              		.eabi_attribute 34, 1
  12              		.eabi_attribute 18, 4
  13              		.file	"usbd_ctlreq.c"
  14              		.text
  15              	.Ltext0:
  16              		.cfi_sections	.debug_frame
  17              		.section	.text.USBD_GetLen,"ax",%progbits
  18              		.align	1
  19              		.arch armv7e-m
  20              		.syntax unified
  21              		.thumb
  22              		.thumb_func
  23              		.fpu fpv4-sp-d16
  25              	USBD_GetLen:
  26              	.LVL0:
  27              	.LFB146:
  28              		.file 1 "Middlewares/ST/STM32_USB_Device_Library/Core/Src/usbd_ctlreq.c"
   1:Middlewares/ST/STM32_USB_Device_Library/Core/Src/usbd_ctlreq.c **** /**
   2:Middlewares/ST/STM32_USB_Device_Library/Core/Src/usbd_ctlreq.c ****   ******************************************************************************
   3:Middlewares/ST/STM32_USB_Device_Library/Core/Src/usbd_ctlreq.c ****   * @file    usbd_req.c
   4:Middlewares/ST/STM32_USB_Device_Library/Core/Src/usbd_ctlreq.c ****   * @author  MCD Application Team
   5:Middlewares/ST/STM32_USB_Device_Library/Core/Src/usbd_ctlreq.c ****   * @brief   This file provides the standard USB requests following chapter 9.
   6:Middlewares/ST/STM32_USB_Device_Library/Core/Src/usbd_ctlreq.c ****   ******************************************************************************
   7:Middlewares/ST/STM32_USB_Device_Library/Core/Src/usbd_ctlreq.c ****   * @attention
   8:Middlewares/ST/STM32_USB_Device_Library/Core/Src/usbd_ctlreq.c ****   *
   9:Middlewares/ST/STM32_USB_Device_Library/Core/Src/usbd_ctlreq.c ****   * <h2><center>&copy; Copyright (c) 2015 STMicroelectronics.
  10:Middlewares/ST/STM32_USB_Device_Library/Core/Src/usbd_ctlreq.c ****   * All rights reserved.</center></h2>
  11:Middlewares/ST/STM32_USB_Device_Library/Core/Src/usbd_ctlreq.c ****   *
  12:Middlewares/ST/STM32_USB_Device_Library/Core/Src/usbd_ctlreq.c ****   * This software component is licensed by ST under Ultimate Liberty license
  13:Middlewares/ST/STM32_USB_Device_Library/Core/Src/usbd_ctlreq.c ****   * SLA0044, the "License"; You may not use this file except in compliance with
  14:Middlewares/ST/STM32_USB_Device_Library/Core/Src/usbd_ctlreq.c ****   * the License. You may obtain a copy of the License at:
  15:Middlewares/ST/STM32_USB_Device_Library/Core/Src/usbd_ctlreq.c ****   *                      http://www.st.com/SLA0044
  16:Middlewares/ST/STM32_USB_Device_Library/Core/Src/usbd_ctlreq.c ****   *
  17:Middlewares/ST/STM32_USB_Device_Library/Core/Src/usbd_ctlreq.c ****   ******************************************************************************
  18:Middlewares/ST/STM32_USB_Device_Library/Core/Src/usbd_ctlreq.c ****   */
  19:Middlewares/ST/STM32_USB_Device_Library/Core/Src/usbd_ctlreq.c **** 
  20:Middlewares/ST/STM32_USB_Device_Library/Core/Src/usbd_ctlreq.c **** /* Includes ------------------------------------------------------------------*/
  21:Middlewares/ST/STM32_USB_Device_Library/Core/Src/usbd_ctlreq.c **** #include "usbd_ctlreq.h"
  22:Middlewares/ST/STM32_USB_Device_Library/Core/Src/usbd_ctlreq.c **** #include "usbd_ioreq.h"
  23:Middlewares/ST/STM32_USB_Device_Library/Core/Src/usbd_ctlreq.c **** 
  24:Middlewares/ST/STM32_USB_Device_Library/Core/Src/usbd_ctlreq.c **** 
  25:Middlewares/ST/STM32_USB_Device_Library/Core/Src/usbd_ctlreq.c **** /** @addtogroup STM32_USBD_STATE_DEVICE_LIBRARY
  26:Middlewares/ST/STM32_USB_Device_Library/Core/Src/usbd_ctlreq.c ****   * @{
  27:Middlewares/ST/STM32_USB_Device_Library/Core/Src/usbd_ctlreq.c ****   */
  28:Middlewares/ST/STM32_USB_Device_Library/Core/Src/usbd_ctlreq.c **** 
  29:Middlewares/ST/STM32_USB_Device_Library/Core/Src/usbd_ctlreq.c **** 
  30:Middlewares/ST/STM32_USB_Device_Library/Core/Src/usbd_ctlreq.c **** /** @defgroup USBD_REQ
ARM GAS  /tmp/ccIuvqu8.s 			page 2


  31:Middlewares/ST/STM32_USB_Device_Library/Core/Src/usbd_ctlreq.c ****   * @brief USB standard requests module
  32:Middlewares/ST/STM32_USB_Device_Library/Core/Src/usbd_ctlreq.c ****   * @{
  33:Middlewares/ST/STM32_USB_Device_Library/Core/Src/usbd_ctlreq.c ****   */
  34:Middlewares/ST/STM32_USB_Device_Library/Core/Src/usbd_ctlreq.c **** 
  35:Middlewares/ST/STM32_USB_Device_Library/Core/Src/usbd_ctlreq.c **** /** @defgroup USBD_REQ_Private_TypesDefinitions
  36:Middlewares/ST/STM32_USB_Device_Library/Core/Src/usbd_ctlreq.c ****   * @{
  37:Middlewares/ST/STM32_USB_Device_Library/Core/Src/usbd_ctlreq.c ****   */
  38:Middlewares/ST/STM32_USB_Device_Library/Core/Src/usbd_ctlreq.c **** /**
  39:Middlewares/ST/STM32_USB_Device_Library/Core/Src/usbd_ctlreq.c ****   * @}
  40:Middlewares/ST/STM32_USB_Device_Library/Core/Src/usbd_ctlreq.c ****   */
  41:Middlewares/ST/STM32_USB_Device_Library/Core/Src/usbd_ctlreq.c **** 
  42:Middlewares/ST/STM32_USB_Device_Library/Core/Src/usbd_ctlreq.c **** 
  43:Middlewares/ST/STM32_USB_Device_Library/Core/Src/usbd_ctlreq.c **** /** @defgroup USBD_REQ_Private_Defines
  44:Middlewares/ST/STM32_USB_Device_Library/Core/Src/usbd_ctlreq.c ****   * @{
  45:Middlewares/ST/STM32_USB_Device_Library/Core/Src/usbd_ctlreq.c ****   */
  46:Middlewares/ST/STM32_USB_Device_Library/Core/Src/usbd_ctlreq.c **** 
  47:Middlewares/ST/STM32_USB_Device_Library/Core/Src/usbd_ctlreq.c **** /**
  48:Middlewares/ST/STM32_USB_Device_Library/Core/Src/usbd_ctlreq.c ****   * @}
  49:Middlewares/ST/STM32_USB_Device_Library/Core/Src/usbd_ctlreq.c ****   */
  50:Middlewares/ST/STM32_USB_Device_Library/Core/Src/usbd_ctlreq.c **** 
  51:Middlewares/ST/STM32_USB_Device_Library/Core/Src/usbd_ctlreq.c **** 
  52:Middlewares/ST/STM32_USB_Device_Library/Core/Src/usbd_ctlreq.c **** /** @defgroup USBD_REQ_Private_Macros
  53:Middlewares/ST/STM32_USB_Device_Library/Core/Src/usbd_ctlreq.c ****   * @{
  54:Middlewares/ST/STM32_USB_Device_Library/Core/Src/usbd_ctlreq.c ****   */
  55:Middlewares/ST/STM32_USB_Device_Library/Core/Src/usbd_ctlreq.c **** /**
  56:Middlewares/ST/STM32_USB_Device_Library/Core/Src/usbd_ctlreq.c ****   * @}
  57:Middlewares/ST/STM32_USB_Device_Library/Core/Src/usbd_ctlreq.c ****   */
  58:Middlewares/ST/STM32_USB_Device_Library/Core/Src/usbd_ctlreq.c **** 
  59:Middlewares/ST/STM32_USB_Device_Library/Core/Src/usbd_ctlreq.c **** 
  60:Middlewares/ST/STM32_USB_Device_Library/Core/Src/usbd_ctlreq.c **** /** @defgroup USBD_REQ_Private_Variables
  61:Middlewares/ST/STM32_USB_Device_Library/Core/Src/usbd_ctlreq.c ****   * @{
  62:Middlewares/ST/STM32_USB_Device_Library/Core/Src/usbd_ctlreq.c ****   */
  63:Middlewares/ST/STM32_USB_Device_Library/Core/Src/usbd_ctlreq.c **** /**
  64:Middlewares/ST/STM32_USB_Device_Library/Core/Src/usbd_ctlreq.c ****   * @}
  65:Middlewares/ST/STM32_USB_Device_Library/Core/Src/usbd_ctlreq.c ****   */
  66:Middlewares/ST/STM32_USB_Device_Library/Core/Src/usbd_ctlreq.c **** 
  67:Middlewares/ST/STM32_USB_Device_Library/Core/Src/usbd_ctlreq.c **** 
  68:Middlewares/ST/STM32_USB_Device_Library/Core/Src/usbd_ctlreq.c **** /** @defgroup USBD_REQ_Private_FunctionPrototypes
  69:Middlewares/ST/STM32_USB_Device_Library/Core/Src/usbd_ctlreq.c ****   * @{
  70:Middlewares/ST/STM32_USB_Device_Library/Core/Src/usbd_ctlreq.c ****   */
  71:Middlewares/ST/STM32_USB_Device_Library/Core/Src/usbd_ctlreq.c **** static void USBD_GetDescriptor(USBD_HandleTypeDef *pdev ,
  72:Middlewares/ST/STM32_USB_Device_Library/Core/Src/usbd_ctlreq.c ****                                USBD_SetupReqTypedef *req);
  73:Middlewares/ST/STM32_USB_Device_Library/Core/Src/usbd_ctlreq.c **** 
  74:Middlewares/ST/STM32_USB_Device_Library/Core/Src/usbd_ctlreq.c **** static void USBD_SetAddress(USBD_HandleTypeDef *pdev ,
  75:Middlewares/ST/STM32_USB_Device_Library/Core/Src/usbd_ctlreq.c ****                             USBD_SetupReqTypedef *req);
  76:Middlewares/ST/STM32_USB_Device_Library/Core/Src/usbd_ctlreq.c **** 
  77:Middlewares/ST/STM32_USB_Device_Library/Core/Src/usbd_ctlreq.c **** static void USBD_SetConfig(USBD_HandleTypeDef *pdev ,
  78:Middlewares/ST/STM32_USB_Device_Library/Core/Src/usbd_ctlreq.c ****                            USBD_SetupReqTypedef *req);
  79:Middlewares/ST/STM32_USB_Device_Library/Core/Src/usbd_ctlreq.c **** 
  80:Middlewares/ST/STM32_USB_Device_Library/Core/Src/usbd_ctlreq.c **** static void USBD_GetConfig(USBD_HandleTypeDef *pdev ,
  81:Middlewares/ST/STM32_USB_Device_Library/Core/Src/usbd_ctlreq.c ****                            USBD_SetupReqTypedef *req);
  82:Middlewares/ST/STM32_USB_Device_Library/Core/Src/usbd_ctlreq.c **** 
  83:Middlewares/ST/STM32_USB_Device_Library/Core/Src/usbd_ctlreq.c **** static void USBD_GetStatus(USBD_HandleTypeDef *pdev ,
  84:Middlewares/ST/STM32_USB_Device_Library/Core/Src/usbd_ctlreq.c ****                            USBD_SetupReqTypedef *req);
  85:Middlewares/ST/STM32_USB_Device_Library/Core/Src/usbd_ctlreq.c **** 
  86:Middlewares/ST/STM32_USB_Device_Library/Core/Src/usbd_ctlreq.c **** static void USBD_SetFeature(USBD_HandleTypeDef *pdev ,
  87:Middlewares/ST/STM32_USB_Device_Library/Core/Src/usbd_ctlreq.c ****                             USBD_SetupReqTypedef *req);
ARM GAS  /tmp/ccIuvqu8.s 			page 3


  88:Middlewares/ST/STM32_USB_Device_Library/Core/Src/usbd_ctlreq.c **** 
  89:Middlewares/ST/STM32_USB_Device_Library/Core/Src/usbd_ctlreq.c **** static void USBD_ClrFeature(USBD_HandleTypeDef *pdev ,
  90:Middlewares/ST/STM32_USB_Device_Library/Core/Src/usbd_ctlreq.c ****                             USBD_SetupReqTypedef *req);
  91:Middlewares/ST/STM32_USB_Device_Library/Core/Src/usbd_ctlreq.c **** 
  92:Middlewares/ST/STM32_USB_Device_Library/Core/Src/usbd_ctlreq.c **** static uint8_t USBD_GetLen(uint8_t *buf);
  93:Middlewares/ST/STM32_USB_Device_Library/Core/Src/usbd_ctlreq.c **** 
  94:Middlewares/ST/STM32_USB_Device_Library/Core/Src/usbd_ctlreq.c **** /**
  95:Middlewares/ST/STM32_USB_Device_Library/Core/Src/usbd_ctlreq.c ****   * @}
  96:Middlewares/ST/STM32_USB_Device_Library/Core/Src/usbd_ctlreq.c ****   */
  97:Middlewares/ST/STM32_USB_Device_Library/Core/Src/usbd_ctlreq.c **** 
  98:Middlewares/ST/STM32_USB_Device_Library/Core/Src/usbd_ctlreq.c **** 
  99:Middlewares/ST/STM32_USB_Device_Library/Core/Src/usbd_ctlreq.c **** /** @defgroup USBD_REQ_Private_Functions
 100:Middlewares/ST/STM32_USB_Device_Library/Core/Src/usbd_ctlreq.c ****   * @{
 101:Middlewares/ST/STM32_USB_Device_Library/Core/Src/usbd_ctlreq.c ****   */
 102:Middlewares/ST/STM32_USB_Device_Library/Core/Src/usbd_ctlreq.c **** 
 103:Middlewares/ST/STM32_USB_Device_Library/Core/Src/usbd_ctlreq.c **** 
 104:Middlewares/ST/STM32_USB_Device_Library/Core/Src/usbd_ctlreq.c **** /**
 105:Middlewares/ST/STM32_USB_Device_Library/Core/Src/usbd_ctlreq.c **** * @brief  USBD_StdDevReq
 106:Middlewares/ST/STM32_USB_Device_Library/Core/Src/usbd_ctlreq.c **** *         Handle standard usb device requests
 107:Middlewares/ST/STM32_USB_Device_Library/Core/Src/usbd_ctlreq.c **** * @param  pdev: device instance
 108:Middlewares/ST/STM32_USB_Device_Library/Core/Src/usbd_ctlreq.c **** * @param  req: usb request
 109:Middlewares/ST/STM32_USB_Device_Library/Core/Src/usbd_ctlreq.c **** * @retval status
 110:Middlewares/ST/STM32_USB_Device_Library/Core/Src/usbd_ctlreq.c **** */
 111:Middlewares/ST/STM32_USB_Device_Library/Core/Src/usbd_ctlreq.c **** USBD_StatusTypeDef  USBD_StdDevReq (USBD_HandleTypeDef *pdev , USBD_SetupReqTypedef  *req)
 112:Middlewares/ST/STM32_USB_Device_Library/Core/Src/usbd_ctlreq.c **** {
 113:Middlewares/ST/STM32_USB_Device_Library/Core/Src/usbd_ctlreq.c ****   USBD_StatusTypeDef ret = USBD_OK;
 114:Middlewares/ST/STM32_USB_Device_Library/Core/Src/usbd_ctlreq.c **** 
 115:Middlewares/ST/STM32_USB_Device_Library/Core/Src/usbd_ctlreq.c ****   switch (req->bmRequest & USB_REQ_TYPE_MASK)
 116:Middlewares/ST/STM32_USB_Device_Library/Core/Src/usbd_ctlreq.c ****   {
 117:Middlewares/ST/STM32_USB_Device_Library/Core/Src/usbd_ctlreq.c ****   case USB_REQ_TYPE_CLASS:
 118:Middlewares/ST/STM32_USB_Device_Library/Core/Src/usbd_ctlreq.c ****   case USB_REQ_TYPE_VENDOR:
 119:Middlewares/ST/STM32_USB_Device_Library/Core/Src/usbd_ctlreq.c ****     pdev->pClass->Setup(pdev, req);
 120:Middlewares/ST/STM32_USB_Device_Library/Core/Src/usbd_ctlreq.c ****     break;
 121:Middlewares/ST/STM32_USB_Device_Library/Core/Src/usbd_ctlreq.c **** 
 122:Middlewares/ST/STM32_USB_Device_Library/Core/Src/usbd_ctlreq.c ****   case USB_REQ_TYPE_STANDARD:
 123:Middlewares/ST/STM32_USB_Device_Library/Core/Src/usbd_ctlreq.c **** 
 124:Middlewares/ST/STM32_USB_Device_Library/Core/Src/usbd_ctlreq.c ****     switch (req->bRequest)
 125:Middlewares/ST/STM32_USB_Device_Library/Core/Src/usbd_ctlreq.c ****     {
 126:Middlewares/ST/STM32_USB_Device_Library/Core/Src/usbd_ctlreq.c ****     case USB_REQ_GET_DESCRIPTOR:
 127:Middlewares/ST/STM32_USB_Device_Library/Core/Src/usbd_ctlreq.c **** 
 128:Middlewares/ST/STM32_USB_Device_Library/Core/Src/usbd_ctlreq.c ****       USBD_GetDescriptor (pdev, req);
 129:Middlewares/ST/STM32_USB_Device_Library/Core/Src/usbd_ctlreq.c ****       break;
 130:Middlewares/ST/STM32_USB_Device_Library/Core/Src/usbd_ctlreq.c **** 
 131:Middlewares/ST/STM32_USB_Device_Library/Core/Src/usbd_ctlreq.c ****     case USB_REQ_SET_ADDRESS:
 132:Middlewares/ST/STM32_USB_Device_Library/Core/Src/usbd_ctlreq.c ****       USBD_SetAddress (pdev, req);
 133:Middlewares/ST/STM32_USB_Device_Library/Core/Src/usbd_ctlreq.c ****       break;
 134:Middlewares/ST/STM32_USB_Device_Library/Core/Src/usbd_ctlreq.c **** 
 135:Middlewares/ST/STM32_USB_Device_Library/Core/Src/usbd_ctlreq.c ****     case USB_REQ_SET_CONFIGURATION:
 136:Middlewares/ST/STM32_USB_Device_Library/Core/Src/usbd_ctlreq.c ****       USBD_SetConfig (pdev, req);
 137:Middlewares/ST/STM32_USB_Device_Library/Core/Src/usbd_ctlreq.c ****       break;
 138:Middlewares/ST/STM32_USB_Device_Library/Core/Src/usbd_ctlreq.c **** 
 139:Middlewares/ST/STM32_USB_Device_Library/Core/Src/usbd_ctlreq.c ****     case USB_REQ_GET_CONFIGURATION:
 140:Middlewares/ST/STM32_USB_Device_Library/Core/Src/usbd_ctlreq.c ****       USBD_GetConfig (pdev, req);
 141:Middlewares/ST/STM32_USB_Device_Library/Core/Src/usbd_ctlreq.c ****       break;
 142:Middlewares/ST/STM32_USB_Device_Library/Core/Src/usbd_ctlreq.c **** 
 143:Middlewares/ST/STM32_USB_Device_Library/Core/Src/usbd_ctlreq.c ****     case USB_REQ_GET_STATUS:
 144:Middlewares/ST/STM32_USB_Device_Library/Core/Src/usbd_ctlreq.c ****       USBD_GetStatus (pdev, req);
ARM GAS  /tmp/ccIuvqu8.s 			page 4


 145:Middlewares/ST/STM32_USB_Device_Library/Core/Src/usbd_ctlreq.c ****       break;
 146:Middlewares/ST/STM32_USB_Device_Library/Core/Src/usbd_ctlreq.c **** 
 147:Middlewares/ST/STM32_USB_Device_Library/Core/Src/usbd_ctlreq.c **** 
 148:Middlewares/ST/STM32_USB_Device_Library/Core/Src/usbd_ctlreq.c ****     case USB_REQ_SET_FEATURE:
 149:Middlewares/ST/STM32_USB_Device_Library/Core/Src/usbd_ctlreq.c ****       USBD_SetFeature (pdev, req);
 150:Middlewares/ST/STM32_USB_Device_Library/Core/Src/usbd_ctlreq.c ****       break;
 151:Middlewares/ST/STM32_USB_Device_Library/Core/Src/usbd_ctlreq.c **** 
 152:Middlewares/ST/STM32_USB_Device_Library/Core/Src/usbd_ctlreq.c ****     case USB_REQ_CLEAR_FEATURE:
 153:Middlewares/ST/STM32_USB_Device_Library/Core/Src/usbd_ctlreq.c ****       USBD_ClrFeature (pdev, req);
 154:Middlewares/ST/STM32_USB_Device_Library/Core/Src/usbd_ctlreq.c ****       break;
 155:Middlewares/ST/STM32_USB_Device_Library/Core/Src/usbd_ctlreq.c **** 
 156:Middlewares/ST/STM32_USB_Device_Library/Core/Src/usbd_ctlreq.c ****     default:
 157:Middlewares/ST/STM32_USB_Device_Library/Core/Src/usbd_ctlreq.c ****       USBD_CtlError(pdev, req);
 158:Middlewares/ST/STM32_USB_Device_Library/Core/Src/usbd_ctlreq.c ****       break;
 159:Middlewares/ST/STM32_USB_Device_Library/Core/Src/usbd_ctlreq.c ****     }
 160:Middlewares/ST/STM32_USB_Device_Library/Core/Src/usbd_ctlreq.c ****     break;
 161:Middlewares/ST/STM32_USB_Device_Library/Core/Src/usbd_ctlreq.c **** 
 162:Middlewares/ST/STM32_USB_Device_Library/Core/Src/usbd_ctlreq.c ****   default:
 163:Middlewares/ST/STM32_USB_Device_Library/Core/Src/usbd_ctlreq.c ****     USBD_CtlError(pdev, req);
 164:Middlewares/ST/STM32_USB_Device_Library/Core/Src/usbd_ctlreq.c ****     break;
 165:Middlewares/ST/STM32_USB_Device_Library/Core/Src/usbd_ctlreq.c ****   }
 166:Middlewares/ST/STM32_USB_Device_Library/Core/Src/usbd_ctlreq.c **** 
 167:Middlewares/ST/STM32_USB_Device_Library/Core/Src/usbd_ctlreq.c ****   return ret;
 168:Middlewares/ST/STM32_USB_Device_Library/Core/Src/usbd_ctlreq.c **** }
 169:Middlewares/ST/STM32_USB_Device_Library/Core/Src/usbd_ctlreq.c **** 
 170:Middlewares/ST/STM32_USB_Device_Library/Core/Src/usbd_ctlreq.c **** /**
 171:Middlewares/ST/STM32_USB_Device_Library/Core/Src/usbd_ctlreq.c **** * @brief  USBD_StdItfReq
 172:Middlewares/ST/STM32_USB_Device_Library/Core/Src/usbd_ctlreq.c **** *         Handle standard usb interface requests
 173:Middlewares/ST/STM32_USB_Device_Library/Core/Src/usbd_ctlreq.c **** * @param  pdev: device instance
 174:Middlewares/ST/STM32_USB_Device_Library/Core/Src/usbd_ctlreq.c **** * @param  req: usb request
 175:Middlewares/ST/STM32_USB_Device_Library/Core/Src/usbd_ctlreq.c **** * @retval status
 176:Middlewares/ST/STM32_USB_Device_Library/Core/Src/usbd_ctlreq.c **** */
 177:Middlewares/ST/STM32_USB_Device_Library/Core/Src/usbd_ctlreq.c **** USBD_StatusTypeDef  USBD_StdItfReq (USBD_HandleTypeDef *pdev , USBD_SetupReqTypedef  *req)
 178:Middlewares/ST/STM32_USB_Device_Library/Core/Src/usbd_ctlreq.c **** {
 179:Middlewares/ST/STM32_USB_Device_Library/Core/Src/usbd_ctlreq.c ****   USBD_StatusTypeDef ret = USBD_OK;
 180:Middlewares/ST/STM32_USB_Device_Library/Core/Src/usbd_ctlreq.c **** 
 181:Middlewares/ST/STM32_USB_Device_Library/Core/Src/usbd_ctlreq.c ****   switch (req->bmRequest & USB_REQ_TYPE_MASK)
 182:Middlewares/ST/STM32_USB_Device_Library/Core/Src/usbd_ctlreq.c ****   {
 183:Middlewares/ST/STM32_USB_Device_Library/Core/Src/usbd_ctlreq.c ****   case USB_REQ_TYPE_CLASS:
 184:Middlewares/ST/STM32_USB_Device_Library/Core/Src/usbd_ctlreq.c ****   case USB_REQ_TYPE_VENDOR:
 185:Middlewares/ST/STM32_USB_Device_Library/Core/Src/usbd_ctlreq.c ****   case USB_REQ_TYPE_STANDARD:
 186:Middlewares/ST/STM32_USB_Device_Library/Core/Src/usbd_ctlreq.c ****     switch (pdev->dev_state)
 187:Middlewares/ST/STM32_USB_Device_Library/Core/Src/usbd_ctlreq.c ****     {
 188:Middlewares/ST/STM32_USB_Device_Library/Core/Src/usbd_ctlreq.c ****     case USBD_STATE_DEFAULT:
 189:Middlewares/ST/STM32_USB_Device_Library/Core/Src/usbd_ctlreq.c ****     case USBD_STATE_ADDRESSED:
 190:Middlewares/ST/STM32_USB_Device_Library/Core/Src/usbd_ctlreq.c ****     case USBD_STATE_CONFIGURED:
 191:Middlewares/ST/STM32_USB_Device_Library/Core/Src/usbd_ctlreq.c **** 
 192:Middlewares/ST/STM32_USB_Device_Library/Core/Src/usbd_ctlreq.c ****       if (LOBYTE(req->wIndex) <= USBD_MAX_NUM_INTERFACES)
 193:Middlewares/ST/STM32_USB_Device_Library/Core/Src/usbd_ctlreq.c ****       {
 194:Middlewares/ST/STM32_USB_Device_Library/Core/Src/usbd_ctlreq.c ****         ret = (USBD_StatusTypeDef)pdev->pClass->Setup (pdev, req);
 195:Middlewares/ST/STM32_USB_Device_Library/Core/Src/usbd_ctlreq.c **** 
 196:Middlewares/ST/STM32_USB_Device_Library/Core/Src/usbd_ctlreq.c ****         if ((req->wLength == 0U) && (ret == USBD_OK))
 197:Middlewares/ST/STM32_USB_Device_Library/Core/Src/usbd_ctlreq.c ****         {
 198:Middlewares/ST/STM32_USB_Device_Library/Core/Src/usbd_ctlreq.c ****           USBD_CtlSendStatus(pdev);
 199:Middlewares/ST/STM32_USB_Device_Library/Core/Src/usbd_ctlreq.c ****         }
 200:Middlewares/ST/STM32_USB_Device_Library/Core/Src/usbd_ctlreq.c ****       }
 201:Middlewares/ST/STM32_USB_Device_Library/Core/Src/usbd_ctlreq.c ****       else
ARM GAS  /tmp/ccIuvqu8.s 			page 5


 202:Middlewares/ST/STM32_USB_Device_Library/Core/Src/usbd_ctlreq.c ****       {
 203:Middlewares/ST/STM32_USB_Device_Library/Core/Src/usbd_ctlreq.c ****         USBD_CtlError(pdev, req);
 204:Middlewares/ST/STM32_USB_Device_Library/Core/Src/usbd_ctlreq.c ****       }
 205:Middlewares/ST/STM32_USB_Device_Library/Core/Src/usbd_ctlreq.c ****       break;
 206:Middlewares/ST/STM32_USB_Device_Library/Core/Src/usbd_ctlreq.c **** 
 207:Middlewares/ST/STM32_USB_Device_Library/Core/Src/usbd_ctlreq.c ****     default:
 208:Middlewares/ST/STM32_USB_Device_Library/Core/Src/usbd_ctlreq.c ****       USBD_CtlError(pdev, req);
 209:Middlewares/ST/STM32_USB_Device_Library/Core/Src/usbd_ctlreq.c ****       break;
 210:Middlewares/ST/STM32_USB_Device_Library/Core/Src/usbd_ctlreq.c ****     }
 211:Middlewares/ST/STM32_USB_Device_Library/Core/Src/usbd_ctlreq.c ****     break;
 212:Middlewares/ST/STM32_USB_Device_Library/Core/Src/usbd_ctlreq.c **** 
 213:Middlewares/ST/STM32_USB_Device_Library/Core/Src/usbd_ctlreq.c ****   default:
 214:Middlewares/ST/STM32_USB_Device_Library/Core/Src/usbd_ctlreq.c ****     USBD_CtlError(pdev, req);
 215:Middlewares/ST/STM32_USB_Device_Library/Core/Src/usbd_ctlreq.c ****     break;
 216:Middlewares/ST/STM32_USB_Device_Library/Core/Src/usbd_ctlreq.c ****   }
 217:Middlewares/ST/STM32_USB_Device_Library/Core/Src/usbd_ctlreq.c **** 
 218:Middlewares/ST/STM32_USB_Device_Library/Core/Src/usbd_ctlreq.c ****   return USBD_OK;
 219:Middlewares/ST/STM32_USB_Device_Library/Core/Src/usbd_ctlreq.c **** }
 220:Middlewares/ST/STM32_USB_Device_Library/Core/Src/usbd_ctlreq.c **** 
 221:Middlewares/ST/STM32_USB_Device_Library/Core/Src/usbd_ctlreq.c **** /**
 222:Middlewares/ST/STM32_USB_Device_Library/Core/Src/usbd_ctlreq.c **** * @brief  USBD_StdEPReq
 223:Middlewares/ST/STM32_USB_Device_Library/Core/Src/usbd_ctlreq.c **** *         Handle standard usb endpoint requests
 224:Middlewares/ST/STM32_USB_Device_Library/Core/Src/usbd_ctlreq.c **** * @param  pdev: device instance
 225:Middlewares/ST/STM32_USB_Device_Library/Core/Src/usbd_ctlreq.c **** * @param  req: usb request
 226:Middlewares/ST/STM32_USB_Device_Library/Core/Src/usbd_ctlreq.c **** * @retval status
 227:Middlewares/ST/STM32_USB_Device_Library/Core/Src/usbd_ctlreq.c **** */
 228:Middlewares/ST/STM32_USB_Device_Library/Core/Src/usbd_ctlreq.c **** USBD_StatusTypeDef  USBD_StdEPReq (USBD_HandleTypeDef *pdev , USBD_SetupReqTypedef  *req)
 229:Middlewares/ST/STM32_USB_Device_Library/Core/Src/usbd_ctlreq.c **** {
 230:Middlewares/ST/STM32_USB_Device_Library/Core/Src/usbd_ctlreq.c **** 
 231:Middlewares/ST/STM32_USB_Device_Library/Core/Src/usbd_ctlreq.c ****   uint8_t   ep_addr;
 232:Middlewares/ST/STM32_USB_Device_Library/Core/Src/usbd_ctlreq.c ****   USBD_StatusTypeDef ret = USBD_OK;
 233:Middlewares/ST/STM32_USB_Device_Library/Core/Src/usbd_ctlreq.c ****   USBD_EndpointTypeDef   *pep;
 234:Middlewares/ST/STM32_USB_Device_Library/Core/Src/usbd_ctlreq.c ****   ep_addr  = LOBYTE(req->wIndex);
 235:Middlewares/ST/STM32_USB_Device_Library/Core/Src/usbd_ctlreq.c **** 
 236:Middlewares/ST/STM32_USB_Device_Library/Core/Src/usbd_ctlreq.c ****   switch (req->bmRequest & USB_REQ_TYPE_MASK)
 237:Middlewares/ST/STM32_USB_Device_Library/Core/Src/usbd_ctlreq.c ****   {
 238:Middlewares/ST/STM32_USB_Device_Library/Core/Src/usbd_ctlreq.c **** 
 239:Middlewares/ST/STM32_USB_Device_Library/Core/Src/usbd_ctlreq.c ****   case USB_REQ_TYPE_CLASS:
 240:Middlewares/ST/STM32_USB_Device_Library/Core/Src/usbd_ctlreq.c ****   case USB_REQ_TYPE_VENDOR:
 241:Middlewares/ST/STM32_USB_Device_Library/Core/Src/usbd_ctlreq.c ****     pdev->pClass->Setup (pdev, req);
 242:Middlewares/ST/STM32_USB_Device_Library/Core/Src/usbd_ctlreq.c ****     break;
 243:Middlewares/ST/STM32_USB_Device_Library/Core/Src/usbd_ctlreq.c **** 
 244:Middlewares/ST/STM32_USB_Device_Library/Core/Src/usbd_ctlreq.c ****   case USB_REQ_TYPE_STANDARD:
 245:Middlewares/ST/STM32_USB_Device_Library/Core/Src/usbd_ctlreq.c ****     /* Check if it is a class request */
 246:Middlewares/ST/STM32_USB_Device_Library/Core/Src/usbd_ctlreq.c ****     if ((req->bmRequest & 0x60U) == 0x20U)
 247:Middlewares/ST/STM32_USB_Device_Library/Core/Src/usbd_ctlreq.c ****     {
 248:Middlewares/ST/STM32_USB_Device_Library/Core/Src/usbd_ctlreq.c ****       ret = (USBD_StatusTypeDef)pdev->pClass->Setup (pdev, req);
 249:Middlewares/ST/STM32_USB_Device_Library/Core/Src/usbd_ctlreq.c **** 
 250:Middlewares/ST/STM32_USB_Device_Library/Core/Src/usbd_ctlreq.c ****       return ret;
 251:Middlewares/ST/STM32_USB_Device_Library/Core/Src/usbd_ctlreq.c ****     }
 252:Middlewares/ST/STM32_USB_Device_Library/Core/Src/usbd_ctlreq.c **** 
 253:Middlewares/ST/STM32_USB_Device_Library/Core/Src/usbd_ctlreq.c ****     switch (req->bRequest)
 254:Middlewares/ST/STM32_USB_Device_Library/Core/Src/usbd_ctlreq.c ****     {
 255:Middlewares/ST/STM32_USB_Device_Library/Core/Src/usbd_ctlreq.c **** 
 256:Middlewares/ST/STM32_USB_Device_Library/Core/Src/usbd_ctlreq.c ****     case USB_REQ_SET_FEATURE :
 257:Middlewares/ST/STM32_USB_Device_Library/Core/Src/usbd_ctlreq.c **** 
 258:Middlewares/ST/STM32_USB_Device_Library/Core/Src/usbd_ctlreq.c ****       switch (pdev->dev_state)
ARM GAS  /tmp/ccIuvqu8.s 			page 6


 259:Middlewares/ST/STM32_USB_Device_Library/Core/Src/usbd_ctlreq.c ****       {
 260:Middlewares/ST/STM32_USB_Device_Library/Core/Src/usbd_ctlreq.c ****       case USBD_STATE_ADDRESSED:
 261:Middlewares/ST/STM32_USB_Device_Library/Core/Src/usbd_ctlreq.c ****         if ((ep_addr != 0x00U) && (ep_addr != 0x80U))
 262:Middlewares/ST/STM32_USB_Device_Library/Core/Src/usbd_ctlreq.c ****         {
 263:Middlewares/ST/STM32_USB_Device_Library/Core/Src/usbd_ctlreq.c ****           USBD_LL_StallEP(pdev, ep_addr);
 264:Middlewares/ST/STM32_USB_Device_Library/Core/Src/usbd_ctlreq.c ****           USBD_LL_StallEP(pdev, 0x80U);
 265:Middlewares/ST/STM32_USB_Device_Library/Core/Src/usbd_ctlreq.c ****         }
 266:Middlewares/ST/STM32_USB_Device_Library/Core/Src/usbd_ctlreq.c ****         else
 267:Middlewares/ST/STM32_USB_Device_Library/Core/Src/usbd_ctlreq.c ****         {
 268:Middlewares/ST/STM32_USB_Device_Library/Core/Src/usbd_ctlreq.c ****           USBD_CtlError(pdev, req);
 269:Middlewares/ST/STM32_USB_Device_Library/Core/Src/usbd_ctlreq.c ****         }
 270:Middlewares/ST/STM32_USB_Device_Library/Core/Src/usbd_ctlreq.c ****         break;
 271:Middlewares/ST/STM32_USB_Device_Library/Core/Src/usbd_ctlreq.c **** 
 272:Middlewares/ST/STM32_USB_Device_Library/Core/Src/usbd_ctlreq.c ****       case USBD_STATE_CONFIGURED:
 273:Middlewares/ST/STM32_USB_Device_Library/Core/Src/usbd_ctlreq.c ****         if (req->wValue == USB_FEATURE_EP_HALT)
 274:Middlewares/ST/STM32_USB_Device_Library/Core/Src/usbd_ctlreq.c ****         {
 275:Middlewares/ST/STM32_USB_Device_Library/Core/Src/usbd_ctlreq.c ****           if ((ep_addr != 0x00U) && (ep_addr != 0x80U) && (req->wLength == 0x00U))
 276:Middlewares/ST/STM32_USB_Device_Library/Core/Src/usbd_ctlreq.c ****           {
 277:Middlewares/ST/STM32_USB_Device_Library/Core/Src/usbd_ctlreq.c ****             USBD_LL_StallEP(pdev, ep_addr);
 278:Middlewares/ST/STM32_USB_Device_Library/Core/Src/usbd_ctlreq.c ****           }
 279:Middlewares/ST/STM32_USB_Device_Library/Core/Src/usbd_ctlreq.c ****         }
 280:Middlewares/ST/STM32_USB_Device_Library/Core/Src/usbd_ctlreq.c ****         USBD_CtlSendStatus(pdev);
 281:Middlewares/ST/STM32_USB_Device_Library/Core/Src/usbd_ctlreq.c **** 
 282:Middlewares/ST/STM32_USB_Device_Library/Core/Src/usbd_ctlreq.c ****         break;
 283:Middlewares/ST/STM32_USB_Device_Library/Core/Src/usbd_ctlreq.c **** 
 284:Middlewares/ST/STM32_USB_Device_Library/Core/Src/usbd_ctlreq.c ****       default:
 285:Middlewares/ST/STM32_USB_Device_Library/Core/Src/usbd_ctlreq.c ****         USBD_CtlError(pdev, req);
 286:Middlewares/ST/STM32_USB_Device_Library/Core/Src/usbd_ctlreq.c ****         break;
 287:Middlewares/ST/STM32_USB_Device_Library/Core/Src/usbd_ctlreq.c ****       }
 288:Middlewares/ST/STM32_USB_Device_Library/Core/Src/usbd_ctlreq.c ****       break;
 289:Middlewares/ST/STM32_USB_Device_Library/Core/Src/usbd_ctlreq.c **** 
 290:Middlewares/ST/STM32_USB_Device_Library/Core/Src/usbd_ctlreq.c ****     case USB_REQ_CLEAR_FEATURE :
 291:Middlewares/ST/STM32_USB_Device_Library/Core/Src/usbd_ctlreq.c **** 
 292:Middlewares/ST/STM32_USB_Device_Library/Core/Src/usbd_ctlreq.c ****       switch (pdev->dev_state)
 293:Middlewares/ST/STM32_USB_Device_Library/Core/Src/usbd_ctlreq.c ****       {
 294:Middlewares/ST/STM32_USB_Device_Library/Core/Src/usbd_ctlreq.c ****       case USBD_STATE_ADDRESSED:
 295:Middlewares/ST/STM32_USB_Device_Library/Core/Src/usbd_ctlreq.c ****         if ((ep_addr != 0x00U) && (ep_addr != 0x80U))
 296:Middlewares/ST/STM32_USB_Device_Library/Core/Src/usbd_ctlreq.c ****         {
 297:Middlewares/ST/STM32_USB_Device_Library/Core/Src/usbd_ctlreq.c ****           USBD_LL_StallEP(pdev, ep_addr);
 298:Middlewares/ST/STM32_USB_Device_Library/Core/Src/usbd_ctlreq.c ****           USBD_LL_StallEP(pdev, 0x80U);
 299:Middlewares/ST/STM32_USB_Device_Library/Core/Src/usbd_ctlreq.c ****         }
 300:Middlewares/ST/STM32_USB_Device_Library/Core/Src/usbd_ctlreq.c ****         else
 301:Middlewares/ST/STM32_USB_Device_Library/Core/Src/usbd_ctlreq.c ****         {
 302:Middlewares/ST/STM32_USB_Device_Library/Core/Src/usbd_ctlreq.c ****           USBD_CtlError(pdev, req);
 303:Middlewares/ST/STM32_USB_Device_Library/Core/Src/usbd_ctlreq.c ****         }
 304:Middlewares/ST/STM32_USB_Device_Library/Core/Src/usbd_ctlreq.c ****         break;
 305:Middlewares/ST/STM32_USB_Device_Library/Core/Src/usbd_ctlreq.c **** 
 306:Middlewares/ST/STM32_USB_Device_Library/Core/Src/usbd_ctlreq.c ****       case USBD_STATE_CONFIGURED:
 307:Middlewares/ST/STM32_USB_Device_Library/Core/Src/usbd_ctlreq.c ****         if (req->wValue == USB_FEATURE_EP_HALT)
 308:Middlewares/ST/STM32_USB_Device_Library/Core/Src/usbd_ctlreq.c ****         {
 309:Middlewares/ST/STM32_USB_Device_Library/Core/Src/usbd_ctlreq.c ****           if ((ep_addr & 0x7FU) != 0x00U)
 310:Middlewares/ST/STM32_USB_Device_Library/Core/Src/usbd_ctlreq.c ****           {
 311:Middlewares/ST/STM32_USB_Device_Library/Core/Src/usbd_ctlreq.c ****             USBD_LL_ClearStallEP(pdev, ep_addr);
 312:Middlewares/ST/STM32_USB_Device_Library/Core/Src/usbd_ctlreq.c ****           }
 313:Middlewares/ST/STM32_USB_Device_Library/Core/Src/usbd_ctlreq.c ****           USBD_CtlSendStatus(pdev);
 314:Middlewares/ST/STM32_USB_Device_Library/Core/Src/usbd_ctlreq.c ****         }
 315:Middlewares/ST/STM32_USB_Device_Library/Core/Src/usbd_ctlreq.c ****         break;
ARM GAS  /tmp/ccIuvqu8.s 			page 7


 316:Middlewares/ST/STM32_USB_Device_Library/Core/Src/usbd_ctlreq.c **** 
 317:Middlewares/ST/STM32_USB_Device_Library/Core/Src/usbd_ctlreq.c ****       default:
 318:Middlewares/ST/STM32_USB_Device_Library/Core/Src/usbd_ctlreq.c ****         USBD_CtlError(pdev, req);
 319:Middlewares/ST/STM32_USB_Device_Library/Core/Src/usbd_ctlreq.c ****         break;
 320:Middlewares/ST/STM32_USB_Device_Library/Core/Src/usbd_ctlreq.c ****       }
 321:Middlewares/ST/STM32_USB_Device_Library/Core/Src/usbd_ctlreq.c ****       break;
 322:Middlewares/ST/STM32_USB_Device_Library/Core/Src/usbd_ctlreq.c **** 
 323:Middlewares/ST/STM32_USB_Device_Library/Core/Src/usbd_ctlreq.c ****     case USB_REQ_GET_STATUS:
 324:Middlewares/ST/STM32_USB_Device_Library/Core/Src/usbd_ctlreq.c ****       switch (pdev->dev_state)
 325:Middlewares/ST/STM32_USB_Device_Library/Core/Src/usbd_ctlreq.c ****       {
 326:Middlewares/ST/STM32_USB_Device_Library/Core/Src/usbd_ctlreq.c ****       case USBD_STATE_ADDRESSED:
 327:Middlewares/ST/STM32_USB_Device_Library/Core/Src/usbd_ctlreq.c ****         if ((ep_addr != 0x00U) && (ep_addr != 0x80U))
 328:Middlewares/ST/STM32_USB_Device_Library/Core/Src/usbd_ctlreq.c ****         {
 329:Middlewares/ST/STM32_USB_Device_Library/Core/Src/usbd_ctlreq.c ****           USBD_CtlError(pdev, req);
 330:Middlewares/ST/STM32_USB_Device_Library/Core/Src/usbd_ctlreq.c ****           break;
 331:Middlewares/ST/STM32_USB_Device_Library/Core/Src/usbd_ctlreq.c ****         }
 332:Middlewares/ST/STM32_USB_Device_Library/Core/Src/usbd_ctlreq.c ****         pep = ((ep_addr & 0x80U) == 0x80U) ? &pdev->ep_in[ep_addr & 0x7FU]:\
 333:Middlewares/ST/STM32_USB_Device_Library/Core/Src/usbd_ctlreq.c ****           &pdev->ep_out[ep_addr & 0x7FU];
 334:Middlewares/ST/STM32_USB_Device_Library/Core/Src/usbd_ctlreq.c **** 
 335:Middlewares/ST/STM32_USB_Device_Library/Core/Src/usbd_ctlreq.c ****           pep->status = 0x0000U;
 336:Middlewares/ST/STM32_USB_Device_Library/Core/Src/usbd_ctlreq.c **** 
 337:Middlewares/ST/STM32_USB_Device_Library/Core/Src/usbd_ctlreq.c ****           USBD_CtlSendData (pdev, (uint8_t *)(void *)&pep->status, 2U);
 338:Middlewares/ST/STM32_USB_Device_Library/Core/Src/usbd_ctlreq.c ****           break;
 339:Middlewares/ST/STM32_USB_Device_Library/Core/Src/usbd_ctlreq.c **** 
 340:Middlewares/ST/STM32_USB_Device_Library/Core/Src/usbd_ctlreq.c ****       case USBD_STATE_CONFIGURED:
 341:Middlewares/ST/STM32_USB_Device_Library/Core/Src/usbd_ctlreq.c ****         if((ep_addr & 0x80U) == 0x80U)
 342:Middlewares/ST/STM32_USB_Device_Library/Core/Src/usbd_ctlreq.c ****         {
 343:Middlewares/ST/STM32_USB_Device_Library/Core/Src/usbd_ctlreq.c ****           if (pdev->ep_in[ep_addr & 0xFU].is_used == 0U)
 344:Middlewares/ST/STM32_USB_Device_Library/Core/Src/usbd_ctlreq.c ****           {
 345:Middlewares/ST/STM32_USB_Device_Library/Core/Src/usbd_ctlreq.c ****             USBD_CtlError(pdev, req);
 346:Middlewares/ST/STM32_USB_Device_Library/Core/Src/usbd_ctlreq.c ****             break;
 347:Middlewares/ST/STM32_USB_Device_Library/Core/Src/usbd_ctlreq.c ****           }
 348:Middlewares/ST/STM32_USB_Device_Library/Core/Src/usbd_ctlreq.c ****         }
 349:Middlewares/ST/STM32_USB_Device_Library/Core/Src/usbd_ctlreq.c ****         else
 350:Middlewares/ST/STM32_USB_Device_Library/Core/Src/usbd_ctlreq.c ****         {
 351:Middlewares/ST/STM32_USB_Device_Library/Core/Src/usbd_ctlreq.c ****           if (pdev->ep_out[ep_addr & 0xFU].is_used == 0U)
 352:Middlewares/ST/STM32_USB_Device_Library/Core/Src/usbd_ctlreq.c ****           {
 353:Middlewares/ST/STM32_USB_Device_Library/Core/Src/usbd_ctlreq.c ****             USBD_CtlError(pdev, req);
 354:Middlewares/ST/STM32_USB_Device_Library/Core/Src/usbd_ctlreq.c ****             break;
 355:Middlewares/ST/STM32_USB_Device_Library/Core/Src/usbd_ctlreq.c ****           }
 356:Middlewares/ST/STM32_USB_Device_Library/Core/Src/usbd_ctlreq.c ****         }
 357:Middlewares/ST/STM32_USB_Device_Library/Core/Src/usbd_ctlreq.c **** 
 358:Middlewares/ST/STM32_USB_Device_Library/Core/Src/usbd_ctlreq.c ****         pep = ((ep_addr & 0x80U) == 0x80U) ? &pdev->ep_in[ep_addr & 0x7FU]:\
 359:Middlewares/ST/STM32_USB_Device_Library/Core/Src/usbd_ctlreq.c ****           &pdev->ep_out[ep_addr & 0x7FU];
 360:Middlewares/ST/STM32_USB_Device_Library/Core/Src/usbd_ctlreq.c **** 
 361:Middlewares/ST/STM32_USB_Device_Library/Core/Src/usbd_ctlreq.c ****           if ((ep_addr == 0x00U) || (ep_addr == 0x80U))
 362:Middlewares/ST/STM32_USB_Device_Library/Core/Src/usbd_ctlreq.c ****           {
 363:Middlewares/ST/STM32_USB_Device_Library/Core/Src/usbd_ctlreq.c ****             pep->status = 0x0000U;
 364:Middlewares/ST/STM32_USB_Device_Library/Core/Src/usbd_ctlreq.c ****           }
 365:Middlewares/ST/STM32_USB_Device_Library/Core/Src/usbd_ctlreq.c ****           else if(USBD_LL_IsStallEP(pdev, ep_addr))
 366:Middlewares/ST/STM32_USB_Device_Library/Core/Src/usbd_ctlreq.c ****           {
 367:Middlewares/ST/STM32_USB_Device_Library/Core/Src/usbd_ctlreq.c ****             pep->status = 0x0001U;
 368:Middlewares/ST/STM32_USB_Device_Library/Core/Src/usbd_ctlreq.c ****           }
 369:Middlewares/ST/STM32_USB_Device_Library/Core/Src/usbd_ctlreq.c ****           else
 370:Middlewares/ST/STM32_USB_Device_Library/Core/Src/usbd_ctlreq.c ****           {
 371:Middlewares/ST/STM32_USB_Device_Library/Core/Src/usbd_ctlreq.c ****             pep->status = 0x0000U;
 372:Middlewares/ST/STM32_USB_Device_Library/Core/Src/usbd_ctlreq.c ****           }
ARM GAS  /tmp/ccIuvqu8.s 			page 8


 373:Middlewares/ST/STM32_USB_Device_Library/Core/Src/usbd_ctlreq.c **** 
 374:Middlewares/ST/STM32_USB_Device_Library/Core/Src/usbd_ctlreq.c ****           USBD_CtlSendData (pdev, (uint8_t *)(void *)&pep->status, 2U);
 375:Middlewares/ST/STM32_USB_Device_Library/Core/Src/usbd_ctlreq.c ****           break;
 376:Middlewares/ST/STM32_USB_Device_Library/Core/Src/usbd_ctlreq.c **** 
 377:Middlewares/ST/STM32_USB_Device_Library/Core/Src/usbd_ctlreq.c ****       default:
 378:Middlewares/ST/STM32_USB_Device_Library/Core/Src/usbd_ctlreq.c ****         USBD_CtlError(pdev, req);
 379:Middlewares/ST/STM32_USB_Device_Library/Core/Src/usbd_ctlreq.c ****         break;
 380:Middlewares/ST/STM32_USB_Device_Library/Core/Src/usbd_ctlreq.c ****       }
 381:Middlewares/ST/STM32_USB_Device_Library/Core/Src/usbd_ctlreq.c ****       break;
 382:Middlewares/ST/STM32_USB_Device_Library/Core/Src/usbd_ctlreq.c **** 
 383:Middlewares/ST/STM32_USB_Device_Library/Core/Src/usbd_ctlreq.c ****     default:
 384:Middlewares/ST/STM32_USB_Device_Library/Core/Src/usbd_ctlreq.c ****       USBD_CtlError(pdev, req);
 385:Middlewares/ST/STM32_USB_Device_Library/Core/Src/usbd_ctlreq.c ****       break;
 386:Middlewares/ST/STM32_USB_Device_Library/Core/Src/usbd_ctlreq.c ****     }
 387:Middlewares/ST/STM32_USB_Device_Library/Core/Src/usbd_ctlreq.c ****     break;
 388:Middlewares/ST/STM32_USB_Device_Library/Core/Src/usbd_ctlreq.c **** 
 389:Middlewares/ST/STM32_USB_Device_Library/Core/Src/usbd_ctlreq.c ****   default:
 390:Middlewares/ST/STM32_USB_Device_Library/Core/Src/usbd_ctlreq.c ****     USBD_CtlError(pdev, req);
 391:Middlewares/ST/STM32_USB_Device_Library/Core/Src/usbd_ctlreq.c ****     break;
 392:Middlewares/ST/STM32_USB_Device_Library/Core/Src/usbd_ctlreq.c ****   }
 393:Middlewares/ST/STM32_USB_Device_Library/Core/Src/usbd_ctlreq.c **** 
 394:Middlewares/ST/STM32_USB_Device_Library/Core/Src/usbd_ctlreq.c ****   return ret;
 395:Middlewares/ST/STM32_USB_Device_Library/Core/Src/usbd_ctlreq.c **** }
 396:Middlewares/ST/STM32_USB_Device_Library/Core/Src/usbd_ctlreq.c **** /**
 397:Middlewares/ST/STM32_USB_Device_Library/Core/Src/usbd_ctlreq.c **** * @brief  USBD_GetDescriptor
 398:Middlewares/ST/STM32_USB_Device_Library/Core/Src/usbd_ctlreq.c **** *         Handle Get Descriptor requests
 399:Middlewares/ST/STM32_USB_Device_Library/Core/Src/usbd_ctlreq.c **** * @param  pdev: device instance
 400:Middlewares/ST/STM32_USB_Device_Library/Core/Src/usbd_ctlreq.c **** * @param  req: usb request
 401:Middlewares/ST/STM32_USB_Device_Library/Core/Src/usbd_ctlreq.c **** * @retval status
 402:Middlewares/ST/STM32_USB_Device_Library/Core/Src/usbd_ctlreq.c **** */
 403:Middlewares/ST/STM32_USB_Device_Library/Core/Src/usbd_ctlreq.c **** static void USBD_GetDescriptor(USBD_HandleTypeDef *pdev ,
 404:Middlewares/ST/STM32_USB_Device_Library/Core/Src/usbd_ctlreq.c ****                                USBD_SetupReqTypedef *req)
 405:Middlewares/ST/STM32_USB_Device_Library/Core/Src/usbd_ctlreq.c **** {
 406:Middlewares/ST/STM32_USB_Device_Library/Core/Src/usbd_ctlreq.c ****   uint16_t len;
 407:Middlewares/ST/STM32_USB_Device_Library/Core/Src/usbd_ctlreq.c ****   uint8_t *pbuf;
 408:Middlewares/ST/STM32_USB_Device_Library/Core/Src/usbd_ctlreq.c **** 
 409:Middlewares/ST/STM32_USB_Device_Library/Core/Src/usbd_ctlreq.c **** 
 410:Middlewares/ST/STM32_USB_Device_Library/Core/Src/usbd_ctlreq.c ****   switch (req->wValue >> 8)
 411:Middlewares/ST/STM32_USB_Device_Library/Core/Src/usbd_ctlreq.c ****   {
 412:Middlewares/ST/STM32_USB_Device_Library/Core/Src/usbd_ctlreq.c **** #if (USBD_LPM_ENABLED == 1U)
 413:Middlewares/ST/STM32_USB_Device_Library/Core/Src/usbd_ctlreq.c ****   case USB_DESC_TYPE_BOS:
 414:Middlewares/ST/STM32_USB_Device_Library/Core/Src/usbd_ctlreq.c ****     pbuf = pdev->pDesc->GetBOSDescriptor(pdev->dev_speed, &len);
 415:Middlewares/ST/STM32_USB_Device_Library/Core/Src/usbd_ctlreq.c ****     break;
 416:Middlewares/ST/STM32_USB_Device_Library/Core/Src/usbd_ctlreq.c **** #endif
 417:Middlewares/ST/STM32_USB_Device_Library/Core/Src/usbd_ctlreq.c ****   case USB_DESC_TYPE_DEVICE:
 418:Middlewares/ST/STM32_USB_Device_Library/Core/Src/usbd_ctlreq.c ****     pbuf = pdev->pDesc->GetDeviceDescriptor(pdev->dev_speed, &len);
 419:Middlewares/ST/STM32_USB_Device_Library/Core/Src/usbd_ctlreq.c ****     break;
 420:Middlewares/ST/STM32_USB_Device_Library/Core/Src/usbd_ctlreq.c **** 
 421:Middlewares/ST/STM32_USB_Device_Library/Core/Src/usbd_ctlreq.c ****   case USB_DESC_TYPE_CONFIGURATION:
 422:Middlewares/ST/STM32_USB_Device_Library/Core/Src/usbd_ctlreq.c ****     if(pdev->dev_speed == USBD_SPEED_HIGH )
 423:Middlewares/ST/STM32_USB_Device_Library/Core/Src/usbd_ctlreq.c ****     {
 424:Middlewares/ST/STM32_USB_Device_Library/Core/Src/usbd_ctlreq.c ****       pbuf   = (uint8_t *)pdev->pClass->GetHSConfigDescriptor(&len);
 425:Middlewares/ST/STM32_USB_Device_Library/Core/Src/usbd_ctlreq.c ****       pbuf[1] = USB_DESC_TYPE_CONFIGURATION;
 426:Middlewares/ST/STM32_USB_Device_Library/Core/Src/usbd_ctlreq.c ****     }
 427:Middlewares/ST/STM32_USB_Device_Library/Core/Src/usbd_ctlreq.c ****     else
 428:Middlewares/ST/STM32_USB_Device_Library/Core/Src/usbd_ctlreq.c ****     {
 429:Middlewares/ST/STM32_USB_Device_Library/Core/Src/usbd_ctlreq.c ****       pbuf   = (uint8_t *)pdev->pClass->GetFSConfigDescriptor(&len);
ARM GAS  /tmp/ccIuvqu8.s 			page 9


 430:Middlewares/ST/STM32_USB_Device_Library/Core/Src/usbd_ctlreq.c ****       pbuf[1] = USB_DESC_TYPE_CONFIGURATION;
 431:Middlewares/ST/STM32_USB_Device_Library/Core/Src/usbd_ctlreq.c ****     }
 432:Middlewares/ST/STM32_USB_Device_Library/Core/Src/usbd_ctlreq.c ****     break;
 433:Middlewares/ST/STM32_USB_Device_Library/Core/Src/usbd_ctlreq.c **** 
 434:Middlewares/ST/STM32_USB_Device_Library/Core/Src/usbd_ctlreq.c ****   case USB_DESC_TYPE_STRING:
 435:Middlewares/ST/STM32_USB_Device_Library/Core/Src/usbd_ctlreq.c ****     switch ((uint8_t)(req->wValue))
 436:Middlewares/ST/STM32_USB_Device_Library/Core/Src/usbd_ctlreq.c ****     {
 437:Middlewares/ST/STM32_USB_Device_Library/Core/Src/usbd_ctlreq.c ****     case USBD_IDX_LANGID_STR:
 438:Middlewares/ST/STM32_USB_Device_Library/Core/Src/usbd_ctlreq.c ****      pbuf = pdev->pDesc->GetLangIDStrDescriptor(pdev->dev_speed, &len);
 439:Middlewares/ST/STM32_USB_Device_Library/Core/Src/usbd_ctlreq.c ****       break;
 440:Middlewares/ST/STM32_USB_Device_Library/Core/Src/usbd_ctlreq.c **** 
 441:Middlewares/ST/STM32_USB_Device_Library/Core/Src/usbd_ctlreq.c ****     case USBD_IDX_MFC_STR:
 442:Middlewares/ST/STM32_USB_Device_Library/Core/Src/usbd_ctlreq.c ****       pbuf = pdev->pDesc->GetManufacturerStrDescriptor(pdev->dev_speed, &len);
 443:Middlewares/ST/STM32_USB_Device_Library/Core/Src/usbd_ctlreq.c ****       break;
 444:Middlewares/ST/STM32_USB_Device_Library/Core/Src/usbd_ctlreq.c **** 
 445:Middlewares/ST/STM32_USB_Device_Library/Core/Src/usbd_ctlreq.c ****     case USBD_IDX_PRODUCT_STR:
 446:Middlewares/ST/STM32_USB_Device_Library/Core/Src/usbd_ctlreq.c ****       pbuf = pdev->pDesc->GetProductStrDescriptor(pdev->dev_speed, &len);
 447:Middlewares/ST/STM32_USB_Device_Library/Core/Src/usbd_ctlreq.c ****       break;
 448:Middlewares/ST/STM32_USB_Device_Library/Core/Src/usbd_ctlreq.c **** 
 449:Middlewares/ST/STM32_USB_Device_Library/Core/Src/usbd_ctlreq.c ****     case USBD_IDX_SERIAL_STR:
 450:Middlewares/ST/STM32_USB_Device_Library/Core/Src/usbd_ctlreq.c ****       pbuf = pdev->pDesc->GetSerialStrDescriptor(pdev->dev_speed, &len);
 451:Middlewares/ST/STM32_USB_Device_Library/Core/Src/usbd_ctlreq.c ****       break;
 452:Middlewares/ST/STM32_USB_Device_Library/Core/Src/usbd_ctlreq.c **** 
 453:Middlewares/ST/STM32_USB_Device_Library/Core/Src/usbd_ctlreq.c ****     case USBD_IDX_CONFIG_STR:
 454:Middlewares/ST/STM32_USB_Device_Library/Core/Src/usbd_ctlreq.c ****       pbuf = pdev->pDesc->GetConfigurationStrDescriptor(pdev->dev_speed, &len);
 455:Middlewares/ST/STM32_USB_Device_Library/Core/Src/usbd_ctlreq.c ****       break;
 456:Middlewares/ST/STM32_USB_Device_Library/Core/Src/usbd_ctlreq.c **** 
 457:Middlewares/ST/STM32_USB_Device_Library/Core/Src/usbd_ctlreq.c ****     case USBD_IDX_INTERFACE_STR:
 458:Middlewares/ST/STM32_USB_Device_Library/Core/Src/usbd_ctlreq.c ****       pbuf = pdev->pDesc->GetInterfaceStrDescriptor(pdev->dev_speed, &len);
 459:Middlewares/ST/STM32_USB_Device_Library/Core/Src/usbd_ctlreq.c ****       break;
 460:Middlewares/ST/STM32_USB_Device_Library/Core/Src/usbd_ctlreq.c **** 
 461:Middlewares/ST/STM32_USB_Device_Library/Core/Src/usbd_ctlreq.c ****     default:
 462:Middlewares/ST/STM32_USB_Device_Library/Core/Src/usbd_ctlreq.c **** #if (USBD_SUPPORT_USER_STRING == 1U)
 463:Middlewares/ST/STM32_USB_Device_Library/Core/Src/usbd_ctlreq.c ****       pbuf = pdev->pClass->GetUsrStrDescriptor(pdev, (req->wValue) , &len);
 464:Middlewares/ST/STM32_USB_Device_Library/Core/Src/usbd_ctlreq.c ****       break;
 465:Middlewares/ST/STM32_USB_Device_Library/Core/Src/usbd_ctlreq.c **** #else
 466:Middlewares/ST/STM32_USB_Device_Library/Core/Src/usbd_ctlreq.c ****        USBD_CtlError(pdev , req);
 467:Middlewares/ST/STM32_USB_Device_Library/Core/Src/usbd_ctlreq.c ****       return;
 468:Middlewares/ST/STM32_USB_Device_Library/Core/Src/usbd_ctlreq.c **** #endif
 469:Middlewares/ST/STM32_USB_Device_Library/Core/Src/usbd_ctlreq.c ****     }
 470:Middlewares/ST/STM32_USB_Device_Library/Core/Src/usbd_ctlreq.c ****     break;
 471:Middlewares/ST/STM32_USB_Device_Library/Core/Src/usbd_ctlreq.c ****   case USB_DESC_TYPE_DEVICE_QUALIFIER:
 472:Middlewares/ST/STM32_USB_Device_Library/Core/Src/usbd_ctlreq.c **** 
 473:Middlewares/ST/STM32_USB_Device_Library/Core/Src/usbd_ctlreq.c ****     if(pdev->dev_speed == USBD_SPEED_HIGH)
 474:Middlewares/ST/STM32_USB_Device_Library/Core/Src/usbd_ctlreq.c ****     {
 475:Middlewares/ST/STM32_USB_Device_Library/Core/Src/usbd_ctlreq.c ****       pbuf = (uint8_t *)pdev->pClass->GetDeviceQualifierDescriptor(&len);
 476:Middlewares/ST/STM32_USB_Device_Library/Core/Src/usbd_ctlreq.c ****       break;
 477:Middlewares/ST/STM32_USB_Device_Library/Core/Src/usbd_ctlreq.c ****     }
 478:Middlewares/ST/STM32_USB_Device_Library/Core/Src/usbd_ctlreq.c ****     else
 479:Middlewares/ST/STM32_USB_Device_Library/Core/Src/usbd_ctlreq.c ****     {
 480:Middlewares/ST/STM32_USB_Device_Library/Core/Src/usbd_ctlreq.c ****       USBD_CtlError(pdev , req);
 481:Middlewares/ST/STM32_USB_Device_Library/Core/Src/usbd_ctlreq.c ****       return;
 482:Middlewares/ST/STM32_USB_Device_Library/Core/Src/usbd_ctlreq.c ****     }
 483:Middlewares/ST/STM32_USB_Device_Library/Core/Src/usbd_ctlreq.c **** 
 484:Middlewares/ST/STM32_USB_Device_Library/Core/Src/usbd_ctlreq.c ****   case USB_DESC_TYPE_OTHER_SPEED_CONFIGURATION:
 485:Middlewares/ST/STM32_USB_Device_Library/Core/Src/usbd_ctlreq.c ****     if(pdev->dev_speed == USBD_SPEED_HIGH  )
 486:Middlewares/ST/STM32_USB_Device_Library/Core/Src/usbd_ctlreq.c ****     {
ARM GAS  /tmp/ccIuvqu8.s 			page 10


 487:Middlewares/ST/STM32_USB_Device_Library/Core/Src/usbd_ctlreq.c ****       pbuf   = (uint8_t *)pdev->pClass->GetOtherSpeedConfigDescriptor(&len);
 488:Middlewares/ST/STM32_USB_Device_Library/Core/Src/usbd_ctlreq.c ****       pbuf[1] = USB_DESC_TYPE_OTHER_SPEED_CONFIGURATION;
 489:Middlewares/ST/STM32_USB_Device_Library/Core/Src/usbd_ctlreq.c ****       break;
 490:Middlewares/ST/STM32_USB_Device_Library/Core/Src/usbd_ctlreq.c ****     }
 491:Middlewares/ST/STM32_USB_Device_Library/Core/Src/usbd_ctlreq.c ****     else
 492:Middlewares/ST/STM32_USB_Device_Library/Core/Src/usbd_ctlreq.c ****     {
 493:Middlewares/ST/STM32_USB_Device_Library/Core/Src/usbd_ctlreq.c ****       USBD_CtlError(pdev , req);
 494:Middlewares/ST/STM32_USB_Device_Library/Core/Src/usbd_ctlreq.c ****       return;
 495:Middlewares/ST/STM32_USB_Device_Library/Core/Src/usbd_ctlreq.c ****     }
 496:Middlewares/ST/STM32_USB_Device_Library/Core/Src/usbd_ctlreq.c **** 
 497:Middlewares/ST/STM32_USB_Device_Library/Core/Src/usbd_ctlreq.c ****   default:
 498:Middlewares/ST/STM32_USB_Device_Library/Core/Src/usbd_ctlreq.c ****      USBD_CtlError(pdev , req);
 499:Middlewares/ST/STM32_USB_Device_Library/Core/Src/usbd_ctlreq.c ****     return;
 500:Middlewares/ST/STM32_USB_Device_Library/Core/Src/usbd_ctlreq.c ****   }
 501:Middlewares/ST/STM32_USB_Device_Library/Core/Src/usbd_ctlreq.c **** 
 502:Middlewares/ST/STM32_USB_Device_Library/Core/Src/usbd_ctlreq.c ****   if((len != 0U) && (req->wLength != 0U))
 503:Middlewares/ST/STM32_USB_Device_Library/Core/Src/usbd_ctlreq.c ****   {
 504:Middlewares/ST/STM32_USB_Device_Library/Core/Src/usbd_ctlreq.c **** 
 505:Middlewares/ST/STM32_USB_Device_Library/Core/Src/usbd_ctlreq.c ****     len = MIN(len, req->wLength);
 506:Middlewares/ST/STM32_USB_Device_Library/Core/Src/usbd_ctlreq.c **** 
 507:Middlewares/ST/STM32_USB_Device_Library/Core/Src/usbd_ctlreq.c ****     USBD_CtlSendData (pdev, pbuf, len);
 508:Middlewares/ST/STM32_USB_Device_Library/Core/Src/usbd_ctlreq.c ****   }
 509:Middlewares/ST/STM32_USB_Device_Library/Core/Src/usbd_ctlreq.c **** 
 510:Middlewares/ST/STM32_USB_Device_Library/Core/Src/usbd_ctlreq.c ****   if(req->wLength == 0U)
 511:Middlewares/ST/STM32_USB_Device_Library/Core/Src/usbd_ctlreq.c ****   {
 512:Middlewares/ST/STM32_USB_Device_Library/Core/Src/usbd_ctlreq.c ****    USBD_CtlSendStatus(pdev);
 513:Middlewares/ST/STM32_USB_Device_Library/Core/Src/usbd_ctlreq.c ****   }
 514:Middlewares/ST/STM32_USB_Device_Library/Core/Src/usbd_ctlreq.c **** }
 515:Middlewares/ST/STM32_USB_Device_Library/Core/Src/usbd_ctlreq.c **** 
 516:Middlewares/ST/STM32_USB_Device_Library/Core/Src/usbd_ctlreq.c **** /**
 517:Middlewares/ST/STM32_USB_Device_Library/Core/Src/usbd_ctlreq.c **** * @brief  USBD_SetAddress
 518:Middlewares/ST/STM32_USB_Device_Library/Core/Src/usbd_ctlreq.c **** *         Set device address
 519:Middlewares/ST/STM32_USB_Device_Library/Core/Src/usbd_ctlreq.c **** * @param  pdev: device instance
 520:Middlewares/ST/STM32_USB_Device_Library/Core/Src/usbd_ctlreq.c **** * @param  req: usb request
 521:Middlewares/ST/STM32_USB_Device_Library/Core/Src/usbd_ctlreq.c **** * @retval status
 522:Middlewares/ST/STM32_USB_Device_Library/Core/Src/usbd_ctlreq.c **** */
 523:Middlewares/ST/STM32_USB_Device_Library/Core/Src/usbd_ctlreq.c **** static void USBD_SetAddress(USBD_HandleTypeDef *pdev ,
 524:Middlewares/ST/STM32_USB_Device_Library/Core/Src/usbd_ctlreq.c ****                             USBD_SetupReqTypedef *req)
 525:Middlewares/ST/STM32_USB_Device_Library/Core/Src/usbd_ctlreq.c **** {
 526:Middlewares/ST/STM32_USB_Device_Library/Core/Src/usbd_ctlreq.c ****   uint8_t  dev_addr;
 527:Middlewares/ST/STM32_USB_Device_Library/Core/Src/usbd_ctlreq.c **** 
 528:Middlewares/ST/STM32_USB_Device_Library/Core/Src/usbd_ctlreq.c ****   if ((req->wIndex == 0U) && (req->wLength == 0U) && (req->wValue < 128U))
 529:Middlewares/ST/STM32_USB_Device_Library/Core/Src/usbd_ctlreq.c ****   {
 530:Middlewares/ST/STM32_USB_Device_Library/Core/Src/usbd_ctlreq.c ****     dev_addr = (uint8_t)(req->wValue) & 0x7FU;
 531:Middlewares/ST/STM32_USB_Device_Library/Core/Src/usbd_ctlreq.c **** 
 532:Middlewares/ST/STM32_USB_Device_Library/Core/Src/usbd_ctlreq.c ****     if (pdev->dev_state == USBD_STATE_CONFIGURED)
 533:Middlewares/ST/STM32_USB_Device_Library/Core/Src/usbd_ctlreq.c ****     {
 534:Middlewares/ST/STM32_USB_Device_Library/Core/Src/usbd_ctlreq.c ****       USBD_CtlError(pdev , req);
 535:Middlewares/ST/STM32_USB_Device_Library/Core/Src/usbd_ctlreq.c ****     }
 536:Middlewares/ST/STM32_USB_Device_Library/Core/Src/usbd_ctlreq.c ****     else
 537:Middlewares/ST/STM32_USB_Device_Library/Core/Src/usbd_ctlreq.c ****     {
 538:Middlewares/ST/STM32_USB_Device_Library/Core/Src/usbd_ctlreq.c ****       pdev->dev_address = dev_addr;
 539:Middlewares/ST/STM32_USB_Device_Library/Core/Src/usbd_ctlreq.c ****       USBD_LL_SetUSBAddress(pdev, dev_addr);
 540:Middlewares/ST/STM32_USB_Device_Library/Core/Src/usbd_ctlreq.c ****       USBD_CtlSendStatus(pdev);
 541:Middlewares/ST/STM32_USB_Device_Library/Core/Src/usbd_ctlreq.c **** 
 542:Middlewares/ST/STM32_USB_Device_Library/Core/Src/usbd_ctlreq.c ****       if (dev_addr != 0U)
 543:Middlewares/ST/STM32_USB_Device_Library/Core/Src/usbd_ctlreq.c ****       {
ARM GAS  /tmp/ccIuvqu8.s 			page 11


 544:Middlewares/ST/STM32_USB_Device_Library/Core/Src/usbd_ctlreq.c ****         pdev->dev_state = USBD_STATE_ADDRESSED;
 545:Middlewares/ST/STM32_USB_Device_Library/Core/Src/usbd_ctlreq.c ****       }
 546:Middlewares/ST/STM32_USB_Device_Library/Core/Src/usbd_ctlreq.c ****       else
 547:Middlewares/ST/STM32_USB_Device_Library/Core/Src/usbd_ctlreq.c ****       {
 548:Middlewares/ST/STM32_USB_Device_Library/Core/Src/usbd_ctlreq.c ****         pdev->dev_state = USBD_STATE_DEFAULT;
 549:Middlewares/ST/STM32_USB_Device_Library/Core/Src/usbd_ctlreq.c ****       }
 550:Middlewares/ST/STM32_USB_Device_Library/Core/Src/usbd_ctlreq.c ****     }
 551:Middlewares/ST/STM32_USB_Device_Library/Core/Src/usbd_ctlreq.c ****   }
 552:Middlewares/ST/STM32_USB_Device_Library/Core/Src/usbd_ctlreq.c ****   else
 553:Middlewares/ST/STM32_USB_Device_Library/Core/Src/usbd_ctlreq.c ****   {
 554:Middlewares/ST/STM32_USB_Device_Library/Core/Src/usbd_ctlreq.c ****     USBD_CtlError(pdev, req);
 555:Middlewares/ST/STM32_USB_Device_Library/Core/Src/usbd_ctlreq.c ****   }
 556:Middlewares/ST/STM32_USB_Device_Library/Core/Src/usbd_ctlreq.c **** }
 557:Middlewares/ST/STM32_USB_Device_Library/Core/Src/usbd_ctlreq.c **** 
 558:Middlewares/ST/STM32_USB_Device_Library/Core/Src/usbd_ctlreq.c **** /**
 559:Middlewares/ST/STM32_USB_Device_Library/Core/Src/usbd_ctlreq.c **** * @brief  USBD_SetConfig
 560:Middlewares/ST/STM32_USB_Device_Library/Core/Src/usbd_ctlreq.c **** *         Handle Set device configuration request
 561:Middlewares/ST/STM32_USB_Device_Library/Core/Src/usbd_ctlreq.c **** * @param  pdev: device instance
 562:Middlewares/ST/STM32_USB_Device_Library/Core/Src/usbd_ctlreq.c **** * @param  req: usb request
 563:Middlewares/ST/STM32_USB_Device_Library/Core/Src/usbd_ctlreq.c **** * @retval status
 564:Middlewares/ST/STM32_USB_Device_Library/Core/Src/usbd_ctlreq.c **** */
 565:Middlewares/ST/STM32_USB_Device_Library/Core/Src/usbd_ctlreq.c **** static void USBD_SetConfig(USBD_HandleTypeDef *pdev, USBD_SetupReqTypedef *req)
 566:Middlewares/ST/STM32_USB_Device_Library/Core/Src/usbd_ctlreq.c **** {
 567:Middlewares/ST/STM32_USB_Device_Library/Core/Src/usbd_ctlreq.c ****   static uint8_t cfgidx;
 568:Middlewares/ST/STM32_USB_Device_Library/Core/Src/usbd_ctlreq.c **** 
 569:Middlewares/ST/STM32_USB_Device_Library/Core/Src/usbd_ctlreq.c ****   cfgidx = (uint8_t)(req->wValue);
 570:Middlewares/ST/STM32_USB_Device_Library/Core/Src/usbd_ctlreq.c **** 
 571:Middlewares/ST/STM32_USB_Device_Library/Core/Src/usbd_ctlreq.c ****   if (cfgidx > USBD_MAX_NUM_CONFIGURATION)
 572:Middlewares/ST/STM32_USB_Device_Library/Core/Src/usbd_ctlreq.c ****   {
 573:Middlewares/ST/STM32_USB_Device_Library/Core/Src/usbd_ctlreq.c ****     USBD_CtlError(pdev, req);
 574:Middlewares/ST/STM32_USB_Device_Library/Core/Src/usbd_ctlreq.c ****   }
 575:Middlewares/ST/STM32_USB_Device_Library/Core/Src/usbd_ctlreq.c ****   else
 576:Middlewares/ST/STM32_USB_Device_Library/Core/Src/usbd_ctlreq.c ****   {
 577:Middlewares/ST/STM32_USB_Device_Library/Core/Src/usbd_ctlreq.c ****     switch (pdev->dev_state)
 578:Middlewares/ST/STM32_USB_Device_Library/Core/Src/usbd_ctlreq.c ****     {
 579:Middlewares/ST/STM32_USB_Device_Library/Core/Src/usbd_ctlreq.c ****     case USBD_STATE_ADDRESSED:
 580:Middlewares/ST/STM32_USB_Device_Library/Core/Src/usbd_ctlreq.c ****       if (cfgidx)
 581:Middlewares/ST/STM32_USB_Device_Library/Core/Src/usbd_ctlreq.c ****       {
 582:Middlewares/ST/STM32_USB_Device_Library/Core/Src/usbd_ctlreq.c ****         pdev->dev_config = cfgidx;
 583:Middlewares/ST/STM32_USB_Device_Library/Core/Src/usbd_ctlreq.c ****         pdev->dev_state = USBD_STATE_CONFIGURED;
 584:Middlewares/ST/STM32_USB_Device_Library/Core/Src/usbd_ctlreq.c ****         if(USBD_SetClassConfig(pdev, cfgidx) == USBD_FAIL)
 585:Middlewares/ST/STM32_USB_Device_Library/Core/Src/usbd_ctlreq.c ****         {
 586:Middlewares/ST/STM32_USB_Device_Library/Core/Src/usbd_ctlreq.c ****           USBD_CtlError(pdev, req);
 587:Middlewares/ST/STM32_USB_Device_Library/Core/Src/usbd_ctlreq.c ****           return;
 588:Middlewares/ST/STM32_USB_Device_Library/Core/Src/usbd_ctlreq.c ****         }
 589:Middlewares/ST/STM32_USB_Device_Library/Core/Src/usbd_ctlreq.c ****         USBD_CtlSendStatus(pdev);
 590:Middlewares/ST/STM32_USB_Device_Library/Core/Src/usbd_ctlreq.c ****       }
 591:Middlewares/ST/STM32_USB_Device_Library/Core/Src/usbd_ctlreq.c ****       else
 592:Middlewares/ST/STM32_USB_Device_Library/Core/Src/usbd_ctlreq.c ****       {
 593:Middlewares/ST/STM32_USB_Device_Library/Core/Src/usbd_ctlreq.c ****         USBD_CtlSendStatus(pdev);
 594:Middlewares/ST/STM32_USB_Device_Library/Core/Src/usbd_ctlreq.c ****       }
 595:Middlewares/ST/STM32_USB_Device_Library/Core/Src/usbd_ctlreq.c ****       break;
 596:Middlewares/ST/STM32_USB_Device_Library/Core/Src/usbd_ctlreq.c **** 
 597:Middlewares/ST/STM32_USB_Device_Library/Core/Src/usbd_ctlreq.c ****     case USBD_STATE_CONFIGURED:
 598:Middlewares/ST/STM32_USB_Device_Library/Core/Src/usbd_ctlreq.c ****       if (cfgidx == 0U)
 599:Middlewares/ST/STM32_USB_Device_Library/Core/Src/usbd_ctlreq.c ****       {
 600:Middlewares/ST/STM32_USB_Device_Library/Core/Src/usbd_ctlreq.c ****         pdev->dev_state = USBD_STATE_ADDRESSED;
ARM GAS  /tmp/ccIuvqu8.s 			page 12


 601:Middlewares/ST/STM32_USB_Device_Library/Core/Src/usbd_ctlreq.c ****         pdev->dev_config = cfgidx;
 602:Middlewares/ST/STM32_USB_Device_Library/Core/Src/usbd_ctlreq.c ****         USBD_ClrClassConfig(pdev, cfgidx);
 603:Middlewares/ST/STM32_USB_Device_Library/Core/Src/usbd_ctlreq.c ****         USBD_CtlSendStatus(pdev);
 604:Middlewares/ST/STM32_USB_Device_Library/Core/Src/usbd_ctlreq.c ****       }
 605:Middlewares/ST/STM32_USB_Device_Library/Core/Src/usbd_ctlreq.c ****       else if (cfgidx != pdev->dev_config)
 606:Middlewares/ST/STM32_USB_Device_Library/Core/Src/usbd_ctlreq.c ****       {
 607:Middlewares/ST/STM32_USB_Device_Library/Core/Src/usbd_ctlreq.c ****         /* Clear old configuration */
 608:Middlewares/ST/STM32_USB_Device_Library/Core/Src/usbd_ctlreq.c ****         USBD_ClrClassConfig(pdev, (uint8_t)pdev->dev_config);
 609:Middlewares/ST/STM32_USB_Device_Library/Core/Src/usbd_ctlreq.c **** 
 610:Middlewares/ST/STM32_USB_Device_Library/Core/Src/usbd_ctlreq.c ****         /* set new configuration */
 611:Middlewares/ST/STM32_USB_Device_Library/Core/Src/usbd_ctlreq.c ****         pdev->dev_config = cfgidx;
 612:Middlewares/ST/STM32_USB_Device_Library/Core/Src/usbd_ctlreq.c ****         if(USBD_SetClassConfig(pdev, cfgidx) == USBD_FAIL)
 613:Middlewares/ST/STM32_USB_Device_Library/Core/Src/usbd_ctlreq.c ****         {
 614:Middlewares/ST/STM32_USB_Device_Library/Core/Src/usbd_ctlreq.c ****           USBD_CtlError(pdev, req);
 615:Middlewares/ST/STM32_USB_Device_Library/Core/Src/usbd_ctlreq.c ****           return;
 616:Middlewares/ST/STM32_USB_Device_Library/Core/Src/usbd_ctlreq.c ****         }
 617:Middlewares/ST/STM32_USB_Device_Library/Core/Src/usbd_ctlreq.c ****         USBD_CtlSendStatus(pdev);
 618:Middlewares/ST/STM32_USB_Device_Library/Core/Src/usbd_ctlreq.c ****       }
 619:Middlewares/ST/STM32_USB_Device_Library/Core/Src/usbd_ctlreq.c ****       else
 620:Middlewares/ST/STM32_USB_Device_Library/Core/Src/usbd_ctlreq.c ****       {
 621:Middlewares/ST/STM32_USB_Device_Library/Core/Src/usbd_ctlreq.c ****         USBD_CtlSendStatus(pdev);
 622:Middlewares/ST/STM32_USB_Device_Library/Core/Src/usbd_ctlreq.c ****       }
 623:Middlewares/ST/STM32_USB_Device_Library/Core/Src/usbd_ctlreq.c ****       break;
 624:Middlewares/ST/STM32_USB_Device_Library/Core/Src/usbd_ctlreq.c **** 
 625:Middlewares/ST/STM32_USB_Device_Library/Core/Src/usbd_ctlreq.c ****     default:
 626:Middlewares/ST/STM32_USB_Device_Library/Core/Src/usbd_ctlreq.c ****       USBD_CtlError(pdev, req);
 627:Middlewares/ST/STM32_USB_Device_Library/Core/Src/usbd_ctlreq.c ****       USBD_ClrClassConfig(pdev, cfgidx);
 628:Middlewares/ST/STM32_USB_Device_Library/Core/Src/usbd_ctlreq.c ****       break;
 629:Middlewares/ST/STM32_USB_Device_Library/Core/Src/usbd_ctlreq.c ****     }
 630:Middlewares/ST/STM32_USB_Device_Library/Core/Src/usbd_ctlreq.c ****   }
 631:Middlewares/ST/STM32_USB_Device_Library/Core/Src/usbd_ctlreq.c **** }
 632:Middlewares/ST/STM32_USB_Device_Library/Core/Src/usbd_ctlreq.c **** 
 633:Middlewares/ST/STM32_USB_Device_Library/Core/Src/usbd_ctlreq.c **** /**
 634:Middlewares/ST/STM32_USB_Device_Library/Core/Src/usbd_ctlreq.c **** * @brief  USBD_GetConfig
 635:Middlewares/ST/STM32_USB_Device_Library/Core/Src/usbd_ctlreq.c **** *         Handle Get device configuration request
 636:Middlewares/ST/STM32_USB_Device_Library/Core/Src/usbd_ctlreq.c **** * @param  pdev: device instance
 637:Middlewares/ST/STM32_USB_Device_Library/Core/Src/usbd_ctlreq.c **** * @param  req: usb request
 638:Middlewares/ST/STM32_USB_Device_Library/Core/Src/usbd_ctlreq.c **** * @retval status
 639:Middlewares/ST/STM32_USB_Device_Library/Core/Src/usbd_ctlreq.c **** */
 640:Middlewares/ST/STM32_USB_Device_Library/Core/Src/usbd_ctlreq.c **** static void USBD_GetConfig(USBD_HandleTypeDef *pdev, USBD_SetupReqTypedef *req)
 641:Middlewares/ST/STM32_USB_Device_Library/Core/Src/usbd_ctlreq.c **** {
 642:Middlewares/ST/STM32_USB_Device_Library/Core/Src/usbd_ctlreq.c ****   if (req->wLength != 1U)
 643:Middlewares/ST/STM32_USB_Device_Library/Core/Src/usbd_ctlreq.c ****   {
 644:Middlewares/ST/STM32_USB_Device_Library/Core/Src/usbd_ctlreq.c ****     USBD_CtlError(pdev , req);
 645:Middlewares/ST/STM32_USB_Device_Library/Core/Src/usbd_ctlreq.c ****   }
 646:Middlewares/ST/STM32_USB_Device_Library/Core/Src/usbd_ctlreq.c ****   else
 647:Middlewares/ST/STM32_USB_Device_Library/Core/Src/usbd_ctlreq.c ****   {
 648:Middlewares/ST/STM32_USB_Device_Library/Core/Src/usbd_ctlreq.c ****     switch (pdev->dev_state)
 649:Middlewares/ST/STM32_USB_Device_Library/Core/Src/usbd_ctlreq.c ****     {
 650:Middlewares/ST/STM32_USB_Device_Library/Core/Src/usbd_ctlreq.c ****     case USBD_STATE_DEFAULT:
 651:Middlewares/ST/STM32_USB_Device_Library/Core/Src/usbd_ctlreq.c ****     case USBD_STATE_ADDRESSED:
 652:Middlewares/ST/STM32_USB_Device_Library/Core/Src/usbd_ctlreq.c ****       pdev->dev_default_config = 0U;
 653:Middlewares/ST/STM32_USB_Device_Library/Core/Src/usbd_ctlreq.c ****       USBD_CtlSendData (pdev, (uint8_t *)(void *)&pdev->dev_default_config, 1U);
 654:Middlewares/ST/STM32_USB_Device_Library/Core/Src/usbd_ctlreq.c ****       break;
 655:Middlewares/ST/STM32_USB_Device_Library/Core/Src/usbd_ctlreq.c **** 
 656:Middlewares/ST/STM32_USB_Device_Library/Core/Src/usbd_ctlreq.c ****     case USBD_STATE_CONFIGURED:
 657:Middlewares/ST/STM32_USB_Device_Library/Core/Src/usbd_ctlreq.c ****       USBD_CtlSendData (pdev, (uint8_t *)(void *)&pdev->dev_config, 1U);
ARM GAS  /tmp/ccIuvqu8.s 			page 13


 658:Middlewares/ST/STM32_USB_Device_Library/Core/Src/usbd_ctlreq.c ****       break;
 659:Middlewares/ST/STM32_USB_Device_Library/Core/Src/usbd_ctlreq.c **** 
 660:Middlewares/ST/STM32_USB_Device_Library/Core/Src/usbd_ctlreq.c ****     default:
 661:Middlewares/ST/STM32_USB_Device_Library/Core/Src/usbd_ctlreq.c ****       USBD_CtlError(pdev , req);
 662:Middlewares/ST/STM32_USB_Device_Library/Core/Src/usbd_ctlreq.c ****       break;
 663:Middlewares/ST/STM32_USB_Device_Library/Core/Src/usbd_ctlreq.c ****     }
 664:Middlewares/ST/STM32_USB_Device_Library/Core/Src/usbd_ctlreq.c ****   }
 665:Middlewares/ST/STM32_USB_Device_Library/Core/Src/usbd_ctlreq.c **** }
 666:Middlewares/ST/STM32_USB_Device_Library/Core/Src/usbd_ctlreq.c **** 
 667:Middlewares/ST/STM32_USB_Device_Library/Core/Src/usbd_ctlreq.c **** /**
 668:Middlewares/ST/STM32_USB_Device_Library/Core/Src/usbd_ctlreq.c **** * @brief  USBD_GetStatus
 669:Middlewares/ST/STM32_USB_Device_Library/Core/Src/usbd_ctlreq.c **** *         Handle Get Status request
 670:Middlewares/ST/STM32_USB_Device_Library/Core/Src/usbd_ctlreq.c **** * @param  pdev: device instance
 671:Middlewares/ST/STM32_USB_Device_Library/Core/Src/usbd_ctlreq.c **** * @param  req: usb request
 672:Middlewares/ST/STM32_USB_Device_Library/Core/Src/usbd_ctlreq.c **** * @retval status
 673:Middlewares/ST/STM32_USB_Device_Library/Core/Src/usbd_ctlreq.c **** */
 674:Middlewares/ST/STM32_USB_Device_Library/Core/Src/usbd_ctlreq.c **** static void USBD_GetStatus(USBD_HandleTypeDef *pdev, USBD_SetupReqTypedef *req)
 675:Middlewares/ST/STM32_USB_Device_Library/Core/Src/usbd_ctlreq.c **** {
 676:Middlewares/ST/STM32_USB_Device_Library/Core/Src/usbd_ctlreq.c ****   switch (pdev->dev_state)
 677:Middlewares/ST/STM32_USB_Device_Library/Core/Src/usbd_ctlreq.c ****   {
 678:Middlewares/ST/STM32_USB_Device_Library/Core/Src/usbd_ctlreq.c ****   case USBD_STATE_DEFAULT:
 679:Middlewares/ST/STM32_USB_Device_Library/Core/Src/usbd_ctlreq.c ****   case USBD_STATE_ADDRESSED:
 680:Middlewares/ST/STM32_USB_Device_Library/Core/Src/usbd_ctlreq.c ****   case USBD_STATE_CONFIGURED:
 681:Middlewares/ST/STM32_USB_Device_Library/Core/Src/usbd_ctlreq.c ****     if(req->wLength != 0x2U)
 682:Middlewares/ST/STM32_USB_Device_Library/Core/Src/usbd_ctlreq.c ****     {
 683:Middlewares/ST/STM32_USB_Device_Library/Core/Src/usbd_ctlreq.c ****       USBD_CtlError(pdev, req);
 684:Middlewares/ST/STM32_USB_Device_Library/Core/Src/usbd_ctlreq.c ****       break;
 685:Middlewares/ST/STM32_USB_Device_Library/Core/Src/usbd_ctlreq.c ****     }
 686:Middlewares/ST/STM32_USB_Device_Library/Core/Src/usbd_ctlreq.c **** 
 687:Middlewares/ST/STM32_USB_Device_Library/Core/Src/usbd_ctlreq.c **** #if ( USBD_SELF_POWERED == 1U)
 688:Middlewares/ST/STM32_USB_Device_Library/Core/Src/usbd_ctlreq.c ****     pdev->dev_config_status = USB_CONFIG_SELF_POWERED;
 689:Middlewares/ST/STM32_USB_Device_Library/Core/Src/usbd_ctlreq.c **** #else
 690:Middlewares/ST/STM32_USB_Device_Library/Core/Src/usbd_ctlreq.c ****     pdev->dev_config_status = 0U;
 691:Middlewares/ST/STM32_USB_Device_Library/Core/Src/usbd_ctlreq.c **** #endif
 692:Middlewares/ST/STM32_USB_Device_Library/Core/Src/usbd_ctlreq.c **** 
 693:Middlewares/ST/STM32_USB_Device_Library/Core/Src/usbd_ctlreq.c ****     if (pdev->dev_remote_wakeup)
 694:Middlewares/ST/STM32_USB_Device_Library/Core/Src/usbd_ctlreq.c ****     {
 695:Middlewares/ST/STM32_USB_Device_Library/Core/Src/usbd_ctlreq.c ****       pdev->dev_config_status |= USB_CONFIG_REMOTE_WAKEUP;
 696:Middlewares/ST/STM32_USB_Device_Library/Core/Src/usbd_ctlreq.c ****     }
 697:Middlewares/ST/STM32_USB_Device_Library/Core/Src/usbd_ctlreq.c **** 
 698:Middlewares/ST/STM32_USB_Device_Library/Core/Src/usbd_ctlreq.c ****     USBD_CtlSendData (pdev, (uint8_t *)(void *)&pdev->dev_config_status, 2U);
 699:Middlewares/ST/STM32_USB_Device_Library/Core/Src/usbd_ctlreq.c ****     break;
 700:Middlewares/ST/STM32_USB_Device_Library/Core/Src/usbd_ctlreq.c **** 
 701:Middlewares/ST/STM32_USB_Device_Library/Core/Src/usbd_ctlreq.c ****   default :
 702:Middlewares/ST/STM32_USB_Device_Library/Core/Src/usbd_ctlreq.c ****     USBD_CtlError(pdev , req);
 703:Middlewares/ST/STM32_USB_Device_Library/Core/Src/usbd_ctlreq.c ****     break;
 704:Middlewares/ST/STM32_USB_Device_Library/Core/Src/usbd_ctlreq.c ****   }
 705:Middlewares/ST/STM32_USB_Device_Library/Core/Src/usbd_ctlreq.c **** }
 706:Middlewares/ST/STM32_USB_Device_Library/Core/Src/usbd_ctlreq.c **** 
 707:Middlewares/ST/STM32_USB_Device_Library/Core/Src/usbd_ctlreq.c **** 
 708:Middlewares/ST/STM32_USB_Device_Library/Core/Src/usbd_ctlreq.c **** /**
 709:Middlewares/ST/STM32_USB_Device_Library/Core/Src/usbd_ctlreq.c **** * @brief  USBD_SetFeature
 710:Middlewares/ST/STM32_USB_Device_Library/Core/Src/usbd_ctlreq.c **** *         Handle Set device feature request
 711:Middlewares/ST/STM32_USB_Device_Library/Core/Src/usbd_ctlreq.c **** * @param  pdev: device instance
 712:Middlewares/ST/STM32_USB_Device_Library/Core/Src/usbd_ctlreq.c **** * @param  req: usb request
 713:Middlewares/ST/STM32_USB_Device_Library/Core/Src/usbd_ctlreq.c **** * @retval status
 714:Middlewares/ST/STM32_USB_Device_Library/Core/Src/usbd_ctlreq.c **** */
ARM GAS  /tmp/ccIuvqu8.s 			page 14


 715:Middlewares/ST/STM32_USB_Device_Library/Core/Src/usbd_ctlreq.c **** static void USBD_SetFeature(USBD_HandleTypeDef *pdev ,
 716:Middlewares/ST/STM32_USB_Device_Library/Core/Src/usbd_ctlreq.c ****                             USBD_SetupReqTypedef *req)
 717:Middlewares/ST/STM32_USB_Device_Library/Core/Src/usbd_ctlreq.c **** {
 718:Middlewares/ST/STM32_USB_Device_Library/Core/Src/usbd_ctlreq.c **** 
 719:Middlewares/ST/STM32_USB_Device_Library/Core/Src/usbd_ctlreq.c ****   if (req->wValue == USB_FEATURE_REMOTE_WAKEUP)
 720:Middlewares/ST/STM32_USB_Device_Library/Core/Src/usbd_ctlreq.c ****   {
 721:Middlewares/ST/STM32_USB_Device_Library/Core/Src/usbd_ctlreq.c ****     pdev->dev_remote_wakeup = 1U;
 722:Middlewares/ST/STM32_USB_Device_Library/Core/Src/usbd_ctlreq.c ****     USBD_CtlSendStatus(pdev);
 723:Middlewares/ST/STM32_USB_Device_Library/Core/Src/usbd_ctlreq.c ****   }
 724:Middlewares/ST/STM32_USB_Device_Library/Core/Src/usbd_ctlreq.c **** 
 725:Middlewares/ST/STM32_USB_Device_Library/Core/Src/usbd_ctlreq.c **** }
 726:Middlewares/ST/STM32_USB_Device_Library/Core/Src/usbd_ctlreq.c **** 
 727:Middlewares/ST/STM32_USB_Device_Library/Core/Src/usbd_ctlreq.c **** 
 728:Middlewares/ST/STM32_USB_Device_Library/Core/Src/usbd_ctlreq.c **** /**
 729:Middlewares/ST/STM32_USB_Device_Library/Core/Src/usbd_ctlreq.c **** * @brief  USBD_ClrFeature
 730:Middlewares/ST/STM32_USB_Device_Library/Core/Src/usbd_ctlreq.c **** *         Handle clear device feature request
 731:Middlewares/ST/STM32_USB_Device_Library/Core/Src/usbd_ctlreq.c **** * @param  pdev: device instance
 732:Middlewares/ST/STM32_USB_Device_Library/Core/Src/usbd_ctlreq.c **** * @param  req: usb request
 733:Middlewares/ST/STM32_USB_Device_Library/Core/Src/usbd_ctlreq.c **** * @retval status
 734:Middlewares/ST/STM32_USB_Device_Library/Core/Src/usbd_ctlreq.c **** */
 735:Middlewares/ST/STM32_USB_Device_Library/Core/Src/usbd_ctlreq.c **** static void USBD_ClrFeature(USBD_HandleTypeDef *pdev ,
 736:Middlewares/ST/STM32_USB_Device_Library/Core/Src/usbd_ctlreq.c ****                             USBD_SetupReqTypedef *req)
 737:Middlewares/ST/STM32_USB_Device_Library/Core/Src/usbd_ctlreq.c **** {
 738:Middlewares/ST/STM32_USB_Device_Library/Core/Src/usbd_ctlreq.c ****   switch (pdev->dev_state)
 739:Middlewares/ST/STM32_USB_Device_Library/Core/Src/usbd_ctlreq.c ****   {
 740:Middlewares/ST/STM32_USB_Device_Library/Core/Src/usbd_ctlreq.c ****   case USBD_STATE_DEFAULT:
 741:Middlewares/ST/STM32_USB_Device_Library/Core/Src/usbd_ctlreq.c ****   case USBD_STATE_ADDRESSED:
 742:Middlewares/ST/STM32_USB_Device_Library/Core/Src/usbd_ctlreq.c ****   case USBD_STATE_CONFIGURED:
 743:Middlewares/ST/STM32_USB_Device_Library/Core/Src/usbd_ctlreq.c ****     if (req->wValue == USB_FEATURE_REMOTE_WAKEUP)
 744:Middlewares/ST/STM32_USB_Device_Library/Core/Src/usbd_ctlreq.c ****     {
 745:Middlewares/ST/STM32_USB_Device_Library/Core/Src/usbd_ctlreq.c ****       pdev->dev_remote_wakeup = 0U;
 746:Middlewares/ST/STM32_USB_Device_Library/Core/Src/usbd_ctlreq.c ****       USBD_CtlSendStatus(pdev);
 747:Middlewares/ST/STM32_USB_Device_Library/Core/Src/usbd_ctlreq.c ****     }
 748:Middlewares/ST/STM32_USB_Device_Library/Core/Src/usbd_ctlreq.c ****     break;
 749:Middlewares/ST/STM32_USB_Device_Library/Core/Src/usbd_ctlreq.c **** 
 750:Middlewares/ST/STM32_USB_Device_Library/Core/Src/usbd_ctlreq.c ****   default :
 751:Middlewares/ST/STM32_USB_Device_Library/Core/Src/usbd_ctlreq.c ****      USBD_CtlError(pdev , req);
 752:Middlewares/ST/STM32_USB_Device_Library/Core/Src/usbd_ctlreq.c ****     break;
 753:Middlewares/ST/STM32_USB_Device_Library/Core/Src/usbd_ctlreq.c ****   }
 754:Middlewares/ST/STM32_USB_Device_Library/Core/Src/usbd_ctlreq.c **** }
 755:Middlewares/ST/STM32_USB_Device_Library/Core/Src/usbd_ctlreq.c **** 
 756:Middlewares/ST/STM32_USB_Device_Library/Core/Src/usbd_ctlreq.c **** /**
 757:Middlewares/ST/STM32_USB_Device_Library/Core/Src/usbd_ctlreq.c **** * @brief  USBD_ParseSetupRequest
 758:Middlewares/ST/STM32_USB_Device_Library/Core/Src/usbd_ctlreq.c **** *         Copy buffer into setup structure
 759:Middlewares/ST/STM32_USB_Device_Library/Core/Src/usbd_ctlreq.c **** * @param  pdev: device instance
 760:Middlewares/ST/STM32_USB_Device_Library/Core/Src/usbd_ctlreq.c **** * @param  req: usb request
 761:Middlewares/ST/STM32_USB_Device_Library/Core/Src/usbd_ctlreq.c **** * @retval None
 762:Middlewares/ST/STM32_USB_Device_Library/Core/Src/usbd_ctlreq.c **** */
 763:Middlewares/ST/STM32_USB_Device_Library/Core/Src/usbd_ctlreq.c **** 
 764:Middlewares/ST/STM32_USB_Device_Library/Core/Src/usbd_ctlreq.c **** void USBD_ParseSetupRequest(USBD_SetupReqTypedef *req, uint8_t *pdata)
 765:Middlewares/ST/STM32_USB_Device_Library/Core/Src/usbd_ctlreq.c **** {
 766:Middlewares/ST/STM32_USB_Device_Library/Core/Src/usbd_ctlreq.c ****   req->bmRequest     = *(uint8_t *)  (pdata);
 767:Middlewares/ST/STM32_USB_Device_Library/Core/Src/usbd_ctlreq.c ****   req->bRequest      = *(uint8_t *)  (pdata +  1);
 768:Middlewares/ST/STM32_USB_Device_Library/Core/Src/usbd_ctlreq.c ****   req->wValue        = SWAPBYTE      (pdata +  2);
 769:Middlewares/ST/STM32_USB_Device_Library/Core/Src/usbd_ctlreq.c ****   req->wIndex        = SWAPBYTE      (pdata +  4);
 770:Middlewares/ST/STM32_USB_Device_Library/Core/Src/usbd_ctlreq.c ****   req->wLength       = SWAPBYTE      (pdata +  6);
 771:Middlewares/ST/STM32_USB_Device_Library/Core/Src/usbd_ctlreq.c **** 
ARM GAS  /tmp/ccIuvqu8.s 			page 15


 772:Middlewares/ST/STM32_USB_Device_Library/Core/Src/usbd_ctlreq.c **** }
 773:Middlewares/ST/STM32_USB_Device_Library/Core/Src/usbd_ctlreq.c **** 
 774:Middlewares/ST/STM32_USB_Device_Library/Core/Src/usbd_ctlreq.c **** /**
 775:Middlewares/ST/STM32_USB_Device_Library/Core/Src/usbd_ctlreq.c **** * @brief  USBD_CtlError
 776:Middlewares/ST/STM32_USB_Device_Library/Core/Src/usbd_ctlreq.c **** *         Handle USB low level Error
 777:Middlewares/ST/STM32_USB_Device_Library/Core/Src/usbd_ctlreq.c **** * @param  pdev: device instance
 778:Middlewares/ST/STM32_USB_Device_Library/Core/Src/usbd_ctlreq.c **** * @param  req: usb request
 779:Middlewares/ST/STM32_USB_Device_Library/Core/Src/usbd_ctlreq.c **** * @retval None
 780:Middlewares/ST/STM32_USB_Device_Library/Core/Src/usbd_ctlreq.c **** */
 781:Middlewares/ST/STM32_USB_Device_Library/Core/Src/usbd_ctlreq.c **** 
 782:Middlewares/ST/STM32_USB_Device_Library/Core/Src/usbd_ctlreq.c **** void USBD_CtlError( USBD_HandleTypeDef *pdev ,
 783:Middlewares/ST/STM32_USB_Device_Library/Core/Src/usbd_ctlreq.c ****                             USBD_SetupReqTypedef *req)
 784:Middlewares/ST/STM32_USB_Device_Library/Core/Src/usbd_ctlreq.c **** {
 785:Middlewares/ST/STM32_USB_Device_Library/Core/Src/usbd_ctlreq.c ****   USBD_LL_StallEP(pdev , 0x80U);
 786:Middlewares/ST/STM32_USB_Device_Library/Core/Src/usbd_ctlreq.c ****   USBD_LL_StallEP(pdev , 0U);
 787:Middlewares/ST/STM32_USB_Device_Library/Core/Src/usbd_ctlreq.c **** }
 788:Middlewares/ST/STM32_USB_Device_Library/Core/Src/usbd_ctlreq.c **** 
 789:Middlewares/ST/STM32_USB_Device_Library/Core/Src/usbd_ctlreq.c **** 
 790:Middlewares/ST/STM32_USB_Device_Library/Core/Src/usbd_ctlreq.c **** /**
 791:Middlewares/ST/STM32_USB_Device_Library/Core/Src/usbd_ctlreq.c ****   * @brief  USBD_GetString
 792:Middlewares/ST/STM32_USB_Device_Library/Core/Src/usbd_ctlreq.c ****   *         Convert Ascii string into unicode one
 793:Middlewares/ST/STM32_USB_Device_Library/Core/Src/usbd_ctlreq.c ****   * @param  desc : descriptor buffer
 794:Middlewares/ST/STM32_USB_Device_Library/Core/Src/usbd_ctlreq.c ****   * @param  unicode : Formatted string buffer (unicode)
 795:Middlewares/ST/STM32_USB_Device_Library/Core/Src/usbd_ctlreq.c ****   * @param  len : descriptor length
 796:Middlewares/ST/STM32_USB_Device_Library/Core/Src/usbd_ctlreq.c ****   * @retval None
 797:Middlewares/ST/STM32_USB_Device_Library/Core/Src/usbd_ctlreq.c ****   */
 798:Middlewares/ST/STM32_USB_Device_Library/Core/Src/usbd_ctlreq.c **** void USBD_GetString(uint8_t *desc, uint8_t *unicode, uint16_t *len)
 799:Middlewares/ST/STM32_USB_Device_Library/Core/Src/usbd_ctlreq.c **** {
 800:Middlewares/ST/STM32_USB_Device_Library/Core/Src/usbd_ctlreq.c ****   uint8_t idx = 0U;
 801:Middlewares/ST/STM32_USB_Device_Library/Core/Src/usbd_ctlreq.c **** 
 802:Middlewares/ST/STM32_USB_Device_Library/Core/Src/usbd_ctlreq.c ****   if (desc != NULL)
 803:Middlewares/ST/STM32_USB_Device_Library/Core/Src/usbd_ctlreq.c ****   {
 804:Middlewares/ST/STM32_USB_Device_Library/Core/Src/usbd_ctlreq.c ****     *len = (uint16_t)USBD_GetLen(desc) * 2U + 2U;
 805:Middlewares/ST/STM32_USB_Device_Library/Core/Src/usbd_ctlreq.c ****     unicode[idx++] = *(uint8_t *)(void *)len;
 806:Middlewares/ST/STM32_USB_Device_Library/Core/Src/usbd_ctlreq.c ****     unicode[idx++] = USB_DESC_TYPE_STRING;
 807:Middlewares/ST/STM32_USB_Device_Library/Core/Src/usbd_ctlreq.c **** 
 808:Middlewares/ST/STM32_USB_Device_Library/Core/Src/usbd_ctlreq.c ****     while (*desc != '\0')
 809:Middlewares/ST/STM32_USB_Device_Library/Core/Src/usbd_ctlreq.c ****     {
 810:Middlewares/ST/STM32_USB_Device_Library/Core/Src/usbd_ctlreq.c ****       unicode[idx++] = *desc++;
 811:Middlewares/ST/STM32_USB_Device_Library/Core/Src/usbd_ctlreq.c ****       unicode[idx++] =  0U;
 812:Middlewares/ST/STM32_USB_Device_Library/Core/Src/usbd_ctlreq.c ****     }
 813:Middlewares/ST/STM32_USB_Device_Library/Core/Src/usbd_ctlreq.c ****   }
 814:Middlewares/ST/STM32_USB_Device_Library/Core/Src/usbd_ctlreq.c **** }
 815:Middlewares/ST/STM32_USB_Device_Library/Core/Src/usbd_ctlreq.c **** 
 816:Middlewares/ST/STM32_USB_Device_Library/Core/Src/usbd_ctlreq.c **** /**
 817:Middlewares/ST/STM32_USB_Device_Library/Core/Src/usbd_ctlreq.c ****   * @brief  USBD_GetLen
 818:Middlewares/ST/STM32_USB_Device_Library/Core/Src/usbd_ctlreq.c ****   *         return the string length
 819:Middlewares/ST/STM32_USB_Device_Library/Core/Src/usbd_ctlreq.c ****    * @param  buf : pointer to the ascii string buffer
 820:Middlewares/ST/STM32_USB_Device_Library/Core/Src/usbd_ctlreq.c ****   * @retval string length
 821:Middlewares/ST/STM32_USB_Device_Library/Core/Src/usbd_ctlreq.c ****   */
 822:Middlewares/ST/STM32_USB_Device_Library/Core/Src/usbd_ctlreq.c **** static uint8_t USBD_GetLen(uint8_t *buf)
 823:Middlewares/ST/STM32_USB_Device_Library/Core/Src/usbd_ctlreq.c **** {
  29              		.loc 1 823 1 view -0
  30              		.cfi_startproc
  31              		@ args = 0, pretend = 0, frame = 0
  32              		@ frame_needed = 0, uses_anonymous_args = 0
  33              		@ link register save eliminated.
ARM GAS  /tmp/ccIuvqu8.s 			page 16


  34              		.loc 1 823 1 is_stmt 0 view .LVU1
  35 0000 0346     		mov	r3, r0
 824:Middlewares/ST/STM32_USB_Device_Library/Core/Src/usbd_ctlreq.c ****     uint8_t  len = 0U;
  36              		.loc 1 824 5 is_stmt 1 view .LVU2
  37              	.LVL1:
 825:Middlewares/ST/STM32_USB_Device_Library/Core/Src/usbd_ctlreq.c **** 
 826:Middlewares/ST/STM32_USB_Device_Library/Core/Src/usbd_ctlreq.c ****     while (*buf != '\0')
  38              		.loc 1 826 5 view .LVU3
 824:Middlewares/ST/STM32_USB_Device_Library/Core/Src/usbd_ctlreq.c ****     uint8_t  len = 0U;
  39              		.loc 1 824 14 is_stmt 0 view .LVU4
  40 0002 0020     		movs	r0, #0
  41              	.LVL2:
  42              	.L2:
  43              		.loc 1 826 11 is_stmt 1 view .LVU5
  44              		.loc 1 826 12 is_stmt 0 view .LVU6
  45 0004 1A78     		ldrb	r2, [r3]	@ zero_extendqisi2
  46              		.loc 1 826 11 view .LVU7
  47 0006 1AB1     		cbz	r2, .L4
 827:Middlewares/ST/STM32_USB_Device_Library/Core/Src/usbd_ctlreq.c ****     {
 828:Middlewares/ST/STM32_USB_Device_Library/Core/Src/usbd_ctlreq.c ****         len++;
  48              		.loc 1 828 9 is_stmt 1 view .LVU8
  49              		.loc 1 828 12 is_stmt 0 view .LVU9
  50 0008 0130     		adds	r0, r0, #1
  51              	.LVL3:
  52              		.loc 1 828 12 view .LVU10
  53 000a C0B2     		uxtb	r0, r0
  54              	.LVL4:
 829:Middlewares/ST/STM32_USB_Device_Library/Core/Src/usbd_ctlreq.c ****         buf++;
  55              		.loc 1 829 9 is_stmt 1 view .LVU11
  56              		.loc 1 829 12 is_stmt 0 view .LVU12
  57 000c 0133     		adds	r3, r3, #1
  58              	.LVL5:
  59              		.loc 1 829 12 view .LVU13
  60 000e F9E7     		b	.L2
  61              	.L4:
 830:Middlewares/ST/STM32_USB_Device_Library/Core/Src/usbd_ctlreq.c ****     }
 831:Middlewares/ST/STM32_USB_Device_Library/Core/Src/usbd_ctlreq.c **** 
 832:Middlewares/ST/STM32_USB_Device_Library/Core/Src/usbd_ctlreq.c ****     return len;
 833:Middlewares/ST/STM32_USB_Device_Library/Core/Src/usbd_ctlreq.c **** }
  62              		.loc 1 833 1 view .LVU14
  63 0010 7047     		bx	lr
  64              		.cfi_endproc
  65              	.LFE146:
  67              		.section	.text.USBD_SetFeature,"ax",%progbits
  68              		.align	1
  69              		.syntax unified
  70              		.thumb
  71              		.thumb_func
  72              		.fpu fpv4-sp-d16
  74              	USBD_SetFeature:
  75              	.LVL6:
  76              	.LFB141:
 717:Middlewares/ST/STM32_USB_Device_Library/Core/Src/usbd_ctlreq.c **** 
  77              		.loc 1 717 1 is_stmt 1 view -0
  78              		.cfi_startproc
  79              		@ args = 0, pretend = 0, frame = 0
  80              		@ frame_needed = 0, uses_anonymous_args = 0
ARM GAS  /tmp/ccIuvqu8.s 			page 17


 717:Middlewares/ST/STM32_USB_Device_Library/Core/Src/usbd_ctlreq.c **** 
  81              		.loc 1 717 1 is_stmt 0 view .LVU16
  82 0000 08B5     		push	{r3, lr}
  83              	.LCFI0:
  84              		.cfi_def_cfa_offset 8
  85              		.cfi_offset 3, -8
  86              		.cfi_offset 14, -4
 719:Middlewares/ST/STM32_USB_Device_Library/Core/Src/usbd_ctlreq.c ****   {
  87              		.loc 1 719 3 is_stmt 1 view .LVU17
 719:Middlewares/ST/STM32_USB_Device_Library/Core/Src/usbd_ctlreq.c ****   {
  88              		.loc 1 719 10 is_stmt 0 view .LVU18
  89 0002 4B88     		ldrh	r3, [r1, #2]
 719:Middlewares/ST/STM32_USB_Device_Library/Core/Src/usbd_ctlreq.c ****   {
  90              		.loc 1 719 6 view .LVU19
  91 0004 012B     		cmp	r3, #1
  92 0006 00D0     		beq	.L8
  93              	.LVL7:
  94              	.L5:
 725:Middlewares/ST/STM32_USB_Device_Library/Core/Src/usbd_ctlreq.c **** 
  95              		.loc 1 725 1 view .LVU20
  96 0008 08BD     		pop	{r3, pc}
  97              	.LVL8:
  98              	.L8:
 721:Middlewares/ST/STM32_USB_Device_Library/Core/Src/usbd_ctlreq.c ****     USBD_CtlSendStatus(pdev);
  99              		.loc 1 721 5 is_stmt 1 view .LVU21
 721:Middlewares/ST/STM32_USB_Device_Library/Core/Src/usbd_ctlreq.c ****     USBD_CtlSendStatus(pdev);
 100              		.loc 1 721 29 is_stmt 0 view .LVU22
 101 000a C0F87C32 		str	r3, [r0, #636]
 722:Middlewares/ST/STM32_USB_Device_Library/Core/Src/usbd_ctlreq.c ****   }
 102              		.loc 1 722 5 is_stmt 1 view .LVU23
 103 000e FFF7FEFF 		bl	USBD_CtlSendStatus
 104              	.LVL9:
 725:Middlewares/ST/STM32_USB_Device_Library/Core/Src/usbd_ctlreq.c **** 
 105              		.loc 1 725 1 is_stmt 0 view .LVU24
 106 0012 F9E7     		b	.L5
 107              		.cfi_endproc
 108              	.LFE141:
 110              		.section	.text.USBD_ParseSetupRequest,"ax",%progbits
 111              		.align	1
 112              		.global	USBD_ParseSetupRequest
 113              		.syntax unified
 114              		.thumb
 115              		.thumb_func
 116              		.fpu fpv4-sp-d16
 118              	USBD_ParseSetupRequest:
 119              	.LVL10:
 120              	.LFB143:
 765:Middlewares/ST/STM32_USB_Device_Library/Core/Src/usbd_ctlreq.c ****   req->bmRequest     = *(uint8_t *)  (pdata);
 121              		.loc 1 765 1 is_stmt 1 view -0
 122              		.cfi_startproc
 123              		@ args = 0, pretend = 0, frame = 0
 124              		@ frame_needed = 0, uses_anonymous_args = 0
 125              		@ link register save eliminated.
 766:Middlewares/ST/STM32_USB_Device_Library/Core/Src/usbd_ctlreq.c ****   req->bRequest      = *(uint8_t *)  (pdata +  1);
 126              		.loc 1 766 3 view .LVU26
 766:Middlewares/ST/STM32_USB_Device_Library/Core/Src/usbd_ctlreq.c ****   req->bRequest      = *(uint8_t *)  (pdata +  1);
 127              		.loc 1 766 24 is_stmt 0 view .LVU27
ARM GAS  /tmp/ccIuvqu8.s 			page 18


 128 0000 0B78     		ldrb	r3, [r1]	@ zero_extendqisi2
 766:Middlewares/ST/STM32_USB_Device_Library/Core/Src/usbd_ctlreq.c ****   req->bRequest      = *(uint8_t *)  (pdata +  1);
 129              		.loc 1 766 22 view .LVU28
 130 0002 0370     		strb	r3, [r0]
 767:Middlewares/ST/STM32_USB_Device_Library/Core/Src/usbd_ctlreq.c ****   req->wValue        = SWAPBYTE      (pdata +  2);
 131              		.loc 1 767 3 is_stmt 1 view .LVU29
 767:Middlewares/ST/STM32_USB_Device_Library/Core/Src/usbd_ctlreq.c ****   req->wValue        = SWAPBYTE      (pdata +  2);
 132              		.loc 1 767 22 is_stmt 0 view .LVU30
 133 0004 4B78     		ldrb	r3, [r1, #1]	@ zero_extendqisi2
 134 0006 4370     		strb	r3, [r0, #1]
 768:Middlewares/ST/STM32_USB_Device_Library/Core/Src/usbd_ctlreq.c ****   req->wIndex        = SWAPBYTE      (pdata +  4);
 135              		.loc 1 768 3 is_stmt 1 view .LVU31
 768:Middlewares/ST/STM32_USB_Device_Library/Core/Src/usbd_ctlreq.c ****   req->wIndex        = SWAPBYTE      (pdata +  4);
 136              		.loc 1 768 24 is_stmt 0 view .LVU32
 137 0008 8B78     		ldrb	r3, [r1, #2]	@ zero_extendqisi2
 138 000a CA78     		ldrb	r2, [r1, #3]	@ zero_extendqisi2
 139 000c 03EB0223 		add	r3, r3, r2, lsl #8
 768:Middlewares/ST/STM32_USB_Device_Library/Core/Src/usbd_ctlreq.c ****   req->wIndex        = SWAPBYTE      (pdata +  4);
 140              		.loc 1 768 22 view .LVU33
 141 0010 4380     		strh	r3, [r0, #2]	@ movhi
 769:Middlewares/ST/STM32_USB_Device_Library/Core/Src/usbd_ctlreq.c ****   req->wLength       = SWAPBYTE      (pdata +  6);
 142              		.loc 1 769 3 is_stmt 1 view .LVU34
 769:Middlewares/ST/STM32_USB_Device_Library/Core/Src/usbd_ctlreq.c ****   req->wLength       = SWAPBYTE      (pdata +  6);
 143              		.loc 1 769 24 is_stmt 0 view .LVU35
 144 0012 0B79     		ldrb	r3, [r1, #4]	@ zero_extendqisi2
 145 0014 4A79     		ldrb	r2, [r1, #5]	@ zero_extendqisi2
 146 0016 03EB0223 		add	r3, r3, r2, lsl #8
 769:Middlewares/ST/STM32_USB_Device_Library/Core/Src/usbd_ctlreq.c ****   req->wLength       = SWAPBYTE      (pdata +  6);
 147              		.loc 1 769 22 view .LVU36
 148 001a 8380     		strh	r3, [r0, #4]	@ movhi
 770:Middlewares/ST/STM32_USB_Device_Library/Core/Src/usbd_ctlreq.c **** 
 149              		.loc 1 770 3 is_stmt 1 view .LVU37
 770:Middlewares/ST/STM32_USB_Device_Library/Core/Src/usbd_ctlreq.c **** 
 150              		.loc 1 770 24 is_stmt 0 view .LVU38
 151 001c 8B79     		ldrb	r3, [r1, #6]	@ zero_extendqisi2
 152 001e CA79     		ldrb	r2, [r1, #7]	@ zero_extendqisi2
 153 0020 03EB0223 		add	r3, r3, r2, lsl #8
 770:Middlewares/ST/STM32_USB_Device_Library/Core/Src/usbd_ctlreq.c **** 
 154              		.loc 1 770 22 view .LVU39
 155 0024 C380     		strh	r3, [r0, #6]	@ movhi
 772:Middlewares/ST/STM32_USB_Device_Library/Core/Src/usbd_ctlreq.c **** 
 156              		.loc 1 772 1 view .LVU40
 157 0026 7047     		bx	lr
 158              		.cfi_endproc
 159              	.LFE143:
 161              		.section	.text.USBD_CtlError,"ax",%progbits
 162              		.align	1
 163              		.global	USBD_CtlError
 164              		.syntax unified
 165              		.thumb
 166              		.thumb_func
 167              		.fpu fpv4-sp-d16
 169              	USBD_CtlError:
 170              	.LVL11:
 171              	.LFB144:
 784:Middlewares/ST/STM32_USB_Device_Library/Core/Src/usbd_ctlreq.c ****   USBD_LL_StallEP(pdev , 0x80U);
 172              		.loc 1 784 1 is_stmt 1 view -0
ARM GAS  /tmp/ccIuvqu8.s 			page 19


 173              		.cfi_startproc
 174              		@ args = 0, pretend = 0, frame = 0
 175              		@ frame_needed = 0, uses_anonymous_args = 0
 784:Middlewares/ST/STM32_USB_Device_Library/Core/Src/usbd_ctlreq.c ****   USBD_LL_StallEP(pdev , 0x80U);
 176              		.loc 1 784 1 is_stmt 0 view .LVU42
 177 0000 10B5     		push	{r4, lr}
 178              	.LCFI1:
 179              		.cfi_def_cfa_offset 8
 180              		.cfi_offset 4, -8
 181              		.cfi_offset 14, -4
 182 0002 0446     		mov	r4, r0
 785:Middlewares/ST/STM32_USB_Device_Library/Core/Src/usbd_ctlreq.c ****   USBD_LL_StallEP(pdev , 0U);
 183              		.loc 1 785 3 is_stmt 1 view .LVU43
 184 0004 8021     		movs	r1, #128
 185              	.LVL12:
 785:Middlewares/ST/STM32_USB_Device_Library/Core/Src/usbd_ctlreq.c ****   USBD_LL_StallEP(pdev , 0U);
 186              		.loc 1 785 3 is_stmt 0 view .LVU44
 187 0006 FFF7FEFF 		bl	USBD_LL_StallEP
 188              	.LVL13:
 786:Middlewares/ST/STM32_USB_Device_Library/Core/Src/usbd_ctlreq.c **** }
 189              		.loc 1 786 3 is_stmt 1 view .LVU45
 190 000a 0021     		movs	r1, #0
 191 000c 2046     		mov	r0, r4
 192 000e FFF7FEFF 		bl	USBD_LL_StallEP
 193              	.LVL14:
 787:Middlewares/ST/STM32_USB_Device_Library/Core/Src/usbd_ctlreq.c **** 
 194              		.loc 1 787 1 is_stmt 0 view .LVU46
 195 0012 10BD     		pop	{r4, pc}
 787:Middlewares/ST/STM32_USB_Device_Library/Core/Src/usbd_ctlreq.c **** 
 196              		.loc 1 787 1 view .LVU47
 197              		.cfi_endproc
 198              	.LFE144:
 200              		.section	.text.USBD_GetDescriptor,"ax",%progbits
 201              		.align	1
 202              		.syntax unified
 203              		.thumb
 204              		.thumb_func
 205              		.fpu fpv4-sp-d16
 207              	USBD_GetDescriptor:
 208              	.LVL15:
 209              	.LFB136:
 405:Middlewares/ST/STM32_USB_Device_Library/Core/Src/usbd_ctlreq.c ****   uint16_t len;
 210              		.loc 1 405 1 is_stmt 1 view -0
 211              		.cfi_startproc
 212              		@ args = 0, pretend = 0, frame = 8
 213              		@ frame_needed = 0, uses_anonymous_args = 0
 405:Middlewares/ST/STM32_USB_Device_Library/Core/Src/usbd_ctlreq.c ****   uint16_t len;
 214              		.loc 1 405 1 is_stmt 0 view .LVU49
 215 0000 30B5     		push	{r4, r5, lr}
 216              	.LCFI2:
 217              		.cfi_def_cfa_offset 12
 218              		.cfi_offset 4, -12
 219              		.cfi_offset 5, -8
 220              		.cfi_offset 14, -4
 221 0002 83B0     		sub	sp, sp, #12
 222              	.LCFI3:
 223              		.cfi_def_cfa_offset 24
ARM GAS  /tmp/ccIuvqu8.s 			page 20


 224 0004 0546     		mov	r5, r0
 225 0006 0C46     		mov	r4, r1
 406:Middlewares/ST/STM32_USB_Device_Library/Core/Src/usbd_ctlreq.c ****   uint8_t *pbuf;
 226              		.loc 1 406 3 is_stmt 1 view .LVU50
 407:Middlewares/ST/STM32_USB_Device_Library/Core/Src/usbd_ctlreq.c **** 
 227              		.loc 1 407 3 view .LVU51
 410:Middlewares/ST/STM32_USB_Device_Library/Core/Src/usbd_ctlreq.c ****   {
 228              		.loc 1 410 3 view .LVU52
 410:Middlewares/ST/STM32_USB_Device_Library/Core/Src/usbd_ctlreq.c ****   {
 229              		.loc 1 410 14 is_stmt 0 view .LVU53
 230 0008 4A88     		ldrh	r2, [r1, #2]
 410:Middlewares/ST/STM32_USB_Device_Library/Core/Src/usbd_ctlreq.c ****   {
 231              		.loc 1 410 23 view .LVU54
 232 000a 130A     		lsrs	r3, r2, #8
 233 000c 013B     		subs	r3, r3, #1
 234 000e 0E2B     		cmp	r3, #14
 235 0010 00F29180 		bhi	.L13
 236 0014 DFE803F0 		tbb	[pc, r3]
 237              	.LVL16:
 238              	.L15:
 239 0018 1B       		.byte	(.L20-.L15)/2
 240 0019 23       		.byte	(.L19-.L15)/2
 241 001a 37       		.byte	(.L18-.L15)/2
 242 001b 8F       		.byte	(.L13-.L15)/2
 243 001c 8F       		.byte	(.L13-.L15)/2
 244 001d 73       		.byte	(.L17-.L15)/2
 245 001e 80       		.byte	(.L16-.L15)/2
 246 001f 8F       		.byte	(.L13-.L15)/2
 247 0020 8F       		.byte	(.L13-.L15)/2
 248 0021 8F       		.byte	(.L13-.L15)/2
 249 0022 8F       		.byte	(.L13-.L15)/2
 250 0023 8F       		.byte	(.L13-.L15)/2
 251 0024 8F       		.byte	(.L13-.L15)/2
 252 0025 8F       		.byte	(.L13-.L15)/2
 253 0026 08       		.byte	(.L14-.L15)/2
 254 0027 00       		.p2align 1
 255              	.L14:
 414:Middlewares/ST/STM32_USB_Device_Library/Core/Src/usbd_ctlreq.c ****     break;
 256              		.loc 1 414 5 is_stmt 1 view .LVU55
 414:Middlewares/ST/STM32_USB_Device_Library/Core/Src/usbd_ctlreq.c ****     break;
 257              		.loc 1 414 16 is_stmt 0 view .LVU56
 258 0028 D0F88832 		ldr	r3, [r0, #648]
 414:Middlewares/ST/STM32_USB_Device_Library/Core/Src/usbd_ctlreq.c ****     break;
 259              		.loc 1 414 23 view .LVU57
 260 002c DB69     		ldr	r3, [r3, #28]
 414:Middlewares/ST/STM32_USB_Device_Library/Core/Src/usbd_ctlreq.c ****     break;
 261              		.loc 1 414 12 view .LVU58
 262 002e 0DF10601 		add	r1, sp, #6
 263 0032 007C     		ldrb	r0, [r0, #16]	@ zero_extendqisi2
 264              	.LVL17:
 414:Middlewares/ST/STM32_USB_Device_Library/Core/Src/usbd_ctlreq.c ****     break;
 265              		.loc 1 414 12 view .LVU59
 266 0034 9847     		blx	r3
 267              	.LVL18:
 415:Middlewares/ST/STM32_USB_Device_Library/Core/Src/usbd_ctlreq.c **** #endif
 268              		.loc 1 415 5 is_stmt 1 view .LVU60
 269              	.L21:
ARM GAS  /tmp/ccIuvqu8.s 			page 21


 502:Middlewares/ST/STM32_USB_Device_Library/Core/Src/usbd_ctlreq.c ****   {
 270              		.loc 1 502 3 view .LVU61
 502:Middlewares/ST/STM32_USB_Device_Library/Core/Src/usbd_ctlreq.c ****   {
 271              		.loc 1 502 11 is_stmt 0 view .LVU62
 272 0036 BDF80620 		ldrh	r2, [sp, #6]
 502:Middlewares/ST/STM32_USB_Device_Library/Core/Src/usbd_ctlreq.c ****   {
 273              		.loc 1 502 5 view .LVU63
 274 003a 12B1     		cbz	r2, .L34
 502:Middlewares/ST/STM32_USB_Device_Library/Core/Src/usbd_ctlreq.c ****   {
 275              		.loc 1 502 25 discriminator 1 view .LVU64
 276 003c E388     		ldrh	r3, [r4, #6]
 502:Middlewares/ST/STM32_USB_Device_Library/Core/Src/usbd_ctlreq.c ****   {
 277              		.loc 1 502 18 discriminator 1 view .LVU65
 278 003e 002B     		cmp	r3, #0
 279 0040 7DD1     		bne	.L38
 280              	.LVL19:
 281              	.L34:
 510:Middlewares/ST/STM32_USB_Device_Library/Core/Src/usbd_ctlreq.c ****   {
 282              		.loc 1 510 3 is_stmt 1 view .LVU66
 510:Middlewares/ST/STM32_USB_Device_Library/Core/Src/usbd_ctlreq.c ****   {
 283              		.loc 1 510 9 is_stmt 0 view .LVU67
 284 0042 E388     		ldrh	r3, [r4, #6]
 510:Middlewares/ST/STM32_USB_Device_Library/Core/Src/usbd_ctlreq.c ****   {
 285              		.loc 1 510 5 view .LVU68
 286 0044 002B     		cmp	r3, #0
 287 0046 00F08480 		beq	.L39
 288              	.L12:
 514:Middlewares/ST/STM32_USB_Device_Library/Core/Src/usbd_ctlreq.c **** 
 289              		.loc 1 514 1 view .LVU69
 290 004a 03B0     		add	sp, sp, #12
 291              	.LCFI4:
 292              		.cfi_remember_state
 293              		.cfi_def_cfa_offset 12
 294              		@ sp needed
 295 004c 30BD     		pop	{r4, r5, pc}
 296              	.LVL20:
 297              	.L20:
 298              	.LCFI5:
 299              		.cfi_restore_state
 418:Middlewares/ST/STM32_USB_Device_Library/Core/Src/usbd_ctlreq.c ****     break;
 300              		.loc 1 418 5 is_stmt 1 view .LVU70
 418:Middlewares/ST/STM32_USB_Device_Library/Core/Src/usbd_ctlreq.c ****     break;
 301              		.loc 1 418 16 is_stmt 0 view .LVU71
 302 004e D0F88832 		ldr	r3, [r0, #648]
 418:Middlewares/ST/STM32_USB_Device_Library/Core/Src/usbd_ctlreq.c ****     break;
 303              		.loc 1 418 23 view .LVU72
 304 0052 1B68     		ldr	r3, [r3]
 418:Middlewares/ST/STM32_USB_Device_Library/Core/Src/usbd_ctlreq.c ****     break;
 305              		.loc 1 418 12 view .LVU73
 306 0054 0DF10601 		add	r1, sp, #6
 307 0058 007C     		ldrb	r0, [r0, #16]	@ zero_extendqisi2
 308              	.LVL21:
 418:Middlewares/ST/STM32_USB_Device_Library/Core/Src/usbd_ctlreq.c ****     break;
 309              		.loc 1 418 12 view .LVU74
 310 005a 9847     		blx	r3
 311              	.LVL22:
 419:Middlewares/ST/STM32_USB_Device_Library/Core/Src/usbd_ctlreq.c **** 
ARM GAS  /tmp/ccIuvqu8.s 			page 22


 312              		.loc 1 419 5 is_stmt 1 view .LVU75
 313 005c EBE7     		b	.L21
 314              	.LVL23:
 315              	.L19:
 422:Middlewares/ST/STM32_USB_Device_Library/Core/Src/usbd_ctlreq.c ****     {
 316              		.loc 1 422 5 view .LVU76
 422:Middlewares/ST/STM32_USB_Device_Library/Core/Src/usbd_ctlreq.c ****     {
 317              		.loc 1 422 12 is_stmt 0 view .LVU77
 318 005e 037C     		ldrb	r3, [r0, #16]	@ zero_extendqisi2
 422:Middlewares/ST/STM32_USB_Device_Library/Core/Src/usbd_ctlreq.c ****     {
 319              		.loc 1 422 7 view .LVU78
 320 0060 43B9     		cbnz	r3, .L22
 424:Middlewares/ST/STM32_USB_Device_Library/Core/Src/usbd_ctlreq.c ****       pbuf[1] = USB_DESC_TYPE_CONFIGURATION;
 321              		.loc 1 424 7 is_stmt 1 view .LVU79
 424:Middlewares/ST/STM32_USB_Device_Library/Core/Src/usbd_ctlreq.c ****       pbuf[1] = USB_DESC_TYPE_CONFIGURATION;
 322              		.loc 1 424 31 is_stmt 0 view .LVU80
 323 0062 D0F88C32 		ldr	r3, [r0, #652]
 424:Middlewares/ST/STM32_USB_Device_Library/Core/Src/usbd_ctlreq.c ****       pbuf[1] = USB_DESC_TYPE_CONFIGURATION;
 324              		.loc 1 424 39 view .LVU81
 325 0066 9B6A     		ldr	r3, [r3, #40]
 424:Middlewares/ST/STM32_USB_Device_Library/Core/Src/usbd_ctlreq.c ****       pbuf[1] = USB_DESC_TYPE_CONFIGURATION;
 326              		.loc 1 424 16 view .LVU82
 327 0068 0DF10600 		add	r0, sp, #6
 328              	.LVL24:
 424:Middlewares/ST/STM32_USB_Device_Library/Core/Src/usbd_ctlreq.c ****       pbuf[1] = USB_DESC_TYPE_CONFIGURATION;
 329              		.loc 1 424 16 view .LVU83
 330 006c 9847     		blx	r3
 331              	.LVL25:
 425:Middlewares/ST/STM32_USB_Device_Library/Core/Src/usbd_ctlreq.c ****     }
 332              		.loc 1 425 7 is_stmt 1 view .LVU84
 425:Middlewares/ST/STM32_USB_Device_Library/Core/Src/usbd_ctlreq.c ****     }
 333              		.loc 1 425 15 is_stmt 0 view .LVU85
 334 006e 0223     		movs	r3, #2
 335 0070 4370     		strb	r3, [r0, #1]
 336 0072 E0E7     		b	.L21
 337              	.LVL26:
 338              	.L22:
 429:Middlewares/ST/STM32_USB_Device_Library/Core/Src/usbd_ctlreq.c ****       pbuf[1] = USB_DESC_TYPE_CONFIGURATION;
 339              		.loc 1 429 7 is_stmt 1 view .LVU86
 429:Middlewares/ST/STM32_USB_Device_Library/Core/Src/usbd_ctlreq.c ****       pbuf[1] = USB_DESC_TYPE_CONFIGURATION;
 340              		.loc 1 429 31 is_stmt 0 view .LVU87
 341 0074 D0F88C32 		ldr	r3, [r0, #652]
 429:Middlewares/ST/STM32_USB_Device_Library/Core/Src/usbd_ctlreq.c ****       pbuf[1] = USB_DESC_TYPE_CONFIGURATION;
 342              		.loc 1 429 39 view .LVU88
 343 0078 DB6A     		ldr	r3, [r3, #44]
 429:Middlewares/ST/STM32_USB_Device_Library/Core/Src/usbd_ctlreq.c ****       pbuf[1] = USB_DESC_TYPE_CONFIGURATION;
 344              		.loc 1 429 16 view .LVU89
 345 007a 0DF10600 		add	r0, sp, #6
 346              	.LVL27:
 429:Middlewares/ST/STM32_USB_Device_Library/Core/Src/usbd_ctlreq.c ****       pbuf[1] = USB_DESC_TYPE_CONFIGURATION;
 347              		.loc 1 429 16 view .LVU90
 348 007e 9847     		blx	r3
 349              	.LVL28:
 430:Middlewares/ST/STM32_USB_Device_Library/Core/Src/usbd_ctlreq.c ****     }
 350              		.loc 1 430 7 is_stmt 1 view .LVU91
 430:Middlewares/ST/STM32_USB_Device_Library/Core/Src/usbd_ctlreq.c ****     }
 351              		.loc 1 430 15 is_stmt 0 view .LVU92
ARM GAS  /tmp/ccIuvqu8.s 			page 23


 352 0080 0223     		movs	r3, #2
 353 0082 4370     		strb	r3, [r0, #1]
 354 0084 D7E7     		b	.L21
 355              	.LVL29:
 356              	.L18:
 435:Middlewares/ST/STM32_USB_Device_Library/Core/Src/usbd_ctlreq.c ****     {
 357              		.loc 1 435 5 is_stmt 1 view .LVU93
 435:Middlewares/ST/STM32_USB_Device_Library/Core/Src/usbd_ctlreq.c ****     {
 358              		.loc 1 435 13 is_stmt 0 view .LVU94
 359 0086 D2B2     		uxtb	r2, r2
 360 0088 052A     		cmp	r2, #5
 361 008a 34D8     		bhi	.L23
 362 008c DFE802F0 		tbb	[pc, r2]
 363              	.L25:
 364 0090 03       		.byte	(.L30-.L25)/2
 365 0091 0B       		.byte	(.L29-.L25)/2
 366 0092 13       		.byte	(.L28-.L25)/2
 367 0093 1B       		.byte	(.L27-.L25)/2
 368 0094 23       		.byte	(.L26-.L25)/2
 369 0095 2B       		.byte	(.L24-.L25)/2
 370              		.p2align 1
 371              	.L30:
 438:Middlewares/ST/STM32_USB_Device_Library/Core/Src/usbd_ctlreq.c ****       break;
 372              		.loc 1 438 6 is_stmt 1 view .LVU95
 438:Middlewares/ST/STM32_USB_Device_Library/Core/Src/usbd_ctlreq.c ****       break;
 373              		.loc 1 438 17 is_stmt 0 view .LVU96
 374 0096 D0F88832 		ldr	r3, [r0, #648]
 438:Middlewares/ST/STM32_USB_Device_Library/Core/Src/usbd_ctlreq.c ****       break;
 375              		.loc 1 438 24 view .LVU97
 376 009a 5B68     		ldr	r3, [r3, #4]
 438:Middlewares/ST/STM32_USB_Device_Library/Core/Src/usbd_ctlreq.c ****       break;
 377              		.loc 1 438 13 view .LVU98
 378 009c 0DF10601 		add	r1, sp, #6
 379 00a0 007C     		ldrb	r0, [r0, #16]	@ zero_extendqisi2
 380              	.LVL30:
 438:Middlewares/ST/STM32_USB_Device_Library/Core/Src/usbd_ctlreq.c ****       break;
 381              		.loc 1 438 13 view .LVU99
 382 00a2 9847     		blx	r3
 383              	.LVL31:
 439:Middlewares/ST/STM32_USB_Device_Library/Core/Src/usbd_ctlreq.c **** 
 384              		.loc 1 439 7 is_stmt 1 view .LVU100
 385 00a4 C7E7     		b	.L21
 386              	.LVL32:
 387              	.L29:
 442:Middlewares/ST/STM32_USB_Device_Library/Core/Src/usbd_ctlreq.c ****       break;
 388              		.loc 1 442 7 view .LVU101
 442:Middlewares/ST/STM32_USB_Device_Library/Core/Src/usbd_ctlreq.c ****       break;
 389              		.loc 1 442 18 is_stmt 0 view .LVU102
 390 00a6 D0F88832 		ldr	r3, [r0, #648]
 442:Middlewares/ST/STM32_USB_Device_Library/Core/Src/usbd_ctlreq.c ****       break;
 391              		.loc 1 442 25 view .LVU103
 392 00aa 9B68     		ldr	r3, [r3, #8]
 442:Middlewares/ST/STM32_USB_Device_Library/Core/Src/usbd_ctlreq.c ****       break;
 393              		.loc 1 442 14 view .LVU104
 394 00ac 0DF10601 		add	r1, sp, #6
 395 00b0 007C     		ldrb	r0, [r0, #16]	@ zero_extendqisi2
 396              	.LVL33:
ARM GAS  /tmp/ccIuvqu8.s 			page 24


 442:Middlewares/ST/STM32_USB_Device_Library/Core/Src/usbd_ctlreq.c ****       break;
 397              		.loc 1 442 14 view .LVU105
 398 00b2 9847     		blx	r3
 399              	.LVL34:
 443:Middlewares/ST/STM32_USB_Device_Library/Core/Src/usbd_ctlreq.c **** 
 400              		.loc 1 443 7 is_stmt 1 view .LVU106
 401 00b4 BFE7     		b	.L21
 402              	.LVL35:
 403              	.L28:
 446:Middlewares/ST/STM32_USB_Device_Library/Core/Src/usbd_ctlreq.c ****       break;
 404              		.loc 1 446 7 view .LVU107
 446:Middlewares/ST/STM32_USB_Device_Library/Core/Src/usbd_ctlreq.c ****       break;
 405              		.loc 1 446 18 is_stmt 0 view .LVU108
 406 00b6 D0F88832 		ldr	r3, [r0, #648]
 446:Middlewares/ST/STM32_USB_Device_Library/Core/Src/usbd_ctlreq.c ****       break;
 407              		.loc 1 446 25 view .LVU109
 408 00ba DB68     		ldr	r3, [r3, #12]
 446:Middlewares/ST/STM32_USB_Device_Library/Core/Src/usbd_ctlreq.c ****       break;
 409              		.loc 1 446 14 view .LVU110
 410 00bc 0DF10601 		add	r1, sp, #6
 411 00c0 007C     		ldrb	r0, [r0, #16]	@ zero_extendqisi2
 412              	.LVL36:
 446:Middlewares/ST/STM32_USB_Device_Library/Core/Src/usbd_ctlreq.c ****       break;
 413              		.loc 1 446 14 view .LVU111
 414 00c2 9847     		blx	r3
 415              	.LVL37:
 447:Middlewares/ST/STM32_USB_Device_Library/Core/Src/usbd_ctlreq.c **** 
 416              		.loc 1 447 7 is_stmt 1 view .LVU112
 417 00c4 B7E7     		b	.L21
 418              	.LVL38:
 419              	.L27:
 450:Middlewares/ST/STM32_USB_Device_Library/Core/Src/usbd_ctlreq.c ****       break;
 420              		.loc 1 450 7 view .LVU113
 450:Middlewares/ST/STM32_USB_Device_Library/Core/Src/usbd_ctlreq.c ****       break;
 421              		.loc 1 450 18 is_stmt 0 view .LVU114
 422 00c6 D0F88832 		ldr	r3, [r0, #648]
 450:Middlewares/ST/STM32_USB_Device_Library/Core/Src/usbd_ctlreq.c ****       break;
 423              		.loc 1 450 25 view .LVU115
 424 00ca 1B69     		ldr	r3, [r3, #16]
 450:Middlewares/ST/STM32_USB_Device_Library/Core/Src/usbd_ctlreq.c ****       break;
 425              		.loc 1 450 14 view .LVU116
 426 00cc 0DF10601 		add	r1, sp, #6
 427 00d0 007C     		ldrb	r0, [r0, #16]	@ zero_extendqisi2
 428              	.LVL39:
 450:Middlewares/ST/STM32_USB_Device_Library/Core/Src/usbd_ctlreq.c ****       break;
 429              		.loc 1 450 14 view .LVU117
 430 00d2 9847     		blx	r3
 431              	.LVL40:
 451:Middlewares/ST/STM32_USB_Device_Library/Core/Src/usbd_ctlreq.c **** 
 432              		.loc 1 451 7 is_stmt 1 view .LVU118
 433 00d4 AFE7     		b	.L21
 434              	.LVL41:
 435              	.L26:
 454:Middlewares/ST/STM32_USB_Device_Library/Core/Src/usbd_ctlreq.c ****       break;
 436              		.loc 1 454 7 view .LVU119
 454:Middlewares/ST/STM32_USB_Device_Library/Core/Src/usbd_ctlreq.c ****       break;
 437              		.loc 1 454 18 is_stmt 0 view .LVU120
ARM GAS  /tmp/ccIuvqu8.s 			page 25


 438 00d6 D0F88832 		ldr	r3, [r0, #648]
 454:Middlewares/ST/STM32_USB_Device_Library/Core/Src/usbd_ctlreq.c ****       break;
 439              		.loc 1 454 25 view .LVU121
 440 00da 5B69     		ldr	r3, [r3, #20]
 454:Middlewares/ST/STM32_USB_Device_Library/Core/Src/usbd_ctlreq.c ****       break;
 441              		.loc 1 454 14 view .LVU122
 442 00dc 0DF10601 		add	r1, sp, #6
 443 00e0 007C     		ldrb	r0, [r0, #16]	@ zero_extendqisi2
 444              	.LVL42:
 454:Middlewares/ST/STM32_USB_Device_Library/Core/Src/usbd_ctlreq.c ****       break;
 445              		.loc 1 454 14 view .LVU123
 446 00e2 9847     		blx	r3
 447              	.LVL43:
 455:Middlewares/ST/STM32_USB_Device_Library/Core/Src/usbd_ctlreq.c **** 
 448              		.loc 1 455 7 is_stmt 1 view .LVU124
 449 00e4 A7E7     		b	.L21
 450              	.LVL44:
 451              	.L24:
 458:Middlewares/ST/STM32_USB_Device_Library/Core/Src/usbd_ctlreq.c ****       break;
 452              		.loc 1 458 7 view .LVU125
 458:Middlewares/ST/STM32_USB_Device_Library/Core/Src/usbd_ctlreq.c ****       break;
 453              		.loc 1 458 18 is_stmt 0 view .LVU126
 454 00e6 D0F88832 		ldr	r3, [r0, #648]
 458:Middlewares/ST/STM32_USB_Device_Library/Core/Src/usbd_ctlreq.c ****       break;
 455              		.loc 1 458 25 view .LVU127
 456 00ea 9B69     		ldr	r3, [r3, #24]
 458:Middlewares/ST/STM32_USB_Device_Library/Core/Src/usbd_ctlreq.c ****       break;
 457              		.loc 1 458 14 view .LVU128
 458 00ec 0DF10601 		add	r1, sp, #6
 459 00f0 007C     		ldrb	r0, [r0, #16]	@ zero_extendqisi2
 460              	.LVL45:
 458:Middlewares/ST/STM32_USB_Device_Library/Core/Src/usbd_ctlreq.c ****       break;
 461              		.loc 1 458 14 view .LVU129
 462 00f2 9847     		blx	r3
 463              	.LVL46:
 459:Middlewares/ST/STM32_USB_Device_Library/Core/Src/usbd_ctlreq.c **** 
 464              		.loc 1 459 7 is_stmt 1 view .LVU130
 465 00f4 9FE7     		b	.L21
 466              	.LVL47:
 467              	.L23:
 466:Middlewares/ST/STM32_USB_Device_Library/Core/Src/usbd_ctlreq.c ****       return;
 468              		.loc 1 466 8 view .LVU131
 469 00f6 2146     		mov	r1, r4
 470 00f8 FFF7FEFF 		bl	USBD_CtlError
 471              	.LVL48:
 467:Middlewares/ST/STM32_USB_Device_Library/Core/Src/usbd_ctlreq.c **** #endif
 472              		.loc 1 467 7 view .LVU132
 473 00fc A5E7     		b	.L12
 474              	.LVL49:
 475              	.L17:
 473:Middlewares/ST/STM32_USB_Device_Library/Core/Src/usbd_ctlreq.c ****     {
 476              		.loc 1 473 5 view .LVU133
 473:Middlewares/ST/STM32_USB_Device_Library/Core/Src/usbd_ctlreq.c ****     {
 477              		.loc 1 473 12 is_stmt 0 view .LVU134
 478 00fe 037C     		ldrb	r3, [r0, #16]	@ zero_extendqisi2
 473:Middlewares/ST/STM32_USB_Device_Library/Core/Src/usbd_ctlreq.c ****     {
 479              		.loc 1 473 7 view .LVU135
ARM GAS  /tmp/ccIuvqu8.s 			page 26


 480 0100 33B9     		cbnz	r3, .L32
 475:Middlewares/ST/STM32_USB_Device_Library/Core/Src/usbd_ctlreq.c ****       break;
 481              		.loc 1 475 7 is_stmt 1 view .LVU136
 475:Middlewares/ST/STM32_USB_Device_Library/Core/Src/usbd_ctlreq.c ****       break;
 482              		.loc 1 475 29 is_stmt 0 view .LVU137
 483 0102 D0F88C32 		ldr	r3, [r0, #652]
 475:Middlewares/ST/STM32_USB_Device_Library/Core/Src/usbd_ctlreq.c ****       break;
 484              		.loc 1 475 37 view .LVU138
 485 0106 5B6B     		ldr	r3, [r3, #52]
 475:Middlewares/ST/STM32_USB_Device_Library/Core/Src/usbd_ctlreq.c ****       break;
 486              		.loc 1 475 14 view .LVU139
 487 0108 0DF10600 		add	r0, sp, #6
 488              	.LVL50:
 475:Middlewares/ST/STM32_USB_Device_Library/Core/Src/usbd_ctlreq.c ****       break;
 489              		.loc 1 475 14 view .LVU140
 490 010c 9847     		blx	r3
 491              	.LVL51:
 476:Middlewares/ST/STM32_USB_Device_Library/Core/Src/usbd_ctlreq.c ****     }
 492              		.loc 1 476 7 is_stmt 1 view .LVU141
 493 010e 92E7     		b	.L21
 494              	.LVL52:
 495              	.L32:
 480:Middlewares/ST/STM32_USB_Device_Library/Core/Src/usbd_ctlreq.c ****       return;
 496              		.loc 1 480 7 view .LVU142
 497 0110 2146     		mov	r1, r4
 498 0112 FFF7FEFF 		bl	USBD_CtlError
 499              	.LVL53:
 481:Middlewares/ST/STM32_USB_Device_Library/Core/Src/usbd_ctlreq.c ****     }
 500              		.loc 1 481 7 view .LVU143
 501 0116 98E7     		b	.L12
 502              	.LVL54:
 503              	.L16:
 485:Middlewares/ST/STM32_USB_Device_Library/Core/Src/usbd_ctlreq.c ****     {
 504              		.loc 1 485 5 view .LVU144
 485:Middlewares/ST/STM32_USB_Device_Library/Core/Src/usbd_ctlreq.c ****     {
 505              		.loc 1 485 12 is_stmt 0 view .LVU145
 506 0118 037C     		ldrb	r3, [r0, #16]	@ zero_extendqisi2
 485:Middlewares/ST/STM32_USB_Device_Library/Core/Src/usbd_ctlreq.c ****     {
 507              		.loc 1 485 7 view .LVU146
 508 011a 43B9     		cbnz	r3, .L33
 487:Middlewares/ST/STM32_USB_Device_Library/Core/Src/usbd_ctlreq.c ****       pbuf[1] = USB_DESC_TYPE_OTHER_SPEED_CONFIGURATION;
 509              		.loc 1 487 7 is_stmt 1 view .LVU147
 487:Middlewares/ST/STM32_USB_Device_Library/Core/Src/usbd_ctlreq.c ****       pbuf[1] = USB_DESC_TYPE_OTHER_SPEED_CONFIGURATION;
 510              		.loc 1 487 31 is_stmt 0 view .LVU148
 511 011c D0F88C32 		ldr	r3, [r0, #652]
 487:Middlewares/ST/STM32_USB_Device_Library/Core/Src/usbd_ctlreq.c ****       pbuf[1] = USB_DESC_TYPE_OTHER_SPEED_CONFIGURATION;
 512              		.loc 1 487 39 view .LVU149
 513 0120 1B6B     		ldr	r3, [r3, #48]
 487:Middlewares/ST/STM32_USB_Device_Library/Core/Src/usbd_ctlreq.c ****       pbuf[1] = USB_DESC_TYPE_OTHER_SPEED_CONFIGURATION;
 514              		.loc 1 487 16 view .LVU150
 515 0122 0DF10600 		add	r0, sp, #6
 516              	.LVL55:
 487:Middlewares/ST/STM32_USB_Device_Library/Core/Src/usbd_ctlreq.c ****       pbuf[1] = USB_DESC_TYPE_OTHER_SPEED_CONFIGURATION;
 517              		.loc 1 487 16 view .LVU151
 518 0126 9847     		blx	r3
 519              	.LVL56:
 488:Middlewares/ST/STM32_USB_Device_Library/Core/Src/usbd_ctlreq.c ****       break;
ARM GAS  /tmp/ccIuvqu8.s 			page 27


 520              		.loc 1 488 7 is_stmt 1 view .LVU152
 488:Middlewares/ST/STM32_USB_Device_Library/Core/Src/usbd_ctlreq.c ****       break;
 521              		.loc 1 488 15 is_stmt 0 view .LVU153
 522 0128 0723     		movs	r3, #7
 523 012a 4370     		strb	r3, [r0, #1]
 489:Middlewares/ST/STM32_USB_Device_Library/Core/Src/usbd_ctlreq.c ****     }
 524              		.loc 1 489 7 is_stmt 1 view .LVU154
 525 012c 83E7     		b	.L21
 526              	.LVL57:
 527              	.L33:
 493:Middlewares/ST/STM32_USB_Device_Library/Core/Src/usbd_ctlreq.c ****       return;
 528              		.loc 1 493 7 view .LVU155
 529 012e 2146     		mov	r1, r4
 530 0130 FFF7FEFF 		bl	USBD_CtlError
 531              	.LVL58:
 494:Middlewares/ST/STM32_USB_Device_Library/Core/Src/usbd_ctlreq.c ****     }
 532              		.loc 1 494 7 view .LVU156
 533 0134 89E7     		b	.L12
 534              	.LVL59:
 535              	.L13:
 498:Middlewares/ST/STM32_USB_Device_Library/Core/Src/usbd_ctlreq.c ****     return;
 536              		.loc 1 498 6 view .LVU157
 537 0136 2146     		mov	r1, r4
 538 0138 FFF7FEFF 		bl	USBD_CtlError
 539              	.LVL60:
 499:Middlewares/ST/STM32_USB_Device_Library/Core/Src/usbd_ctlreq.c ****   }
 540              		.loc 1 499 5 view .LVU158
 541 013c 85E7     		b	.L12
 542              	.LVL61:
 543              	.L38:
 505:Middlewares/ST/STM32_USB_Device_Library/Core/Src/usbd_ctlreq.c **** 
 544              		.loc 1 505 5 view .LVU159
 505:Middlewares/ST/STM32_USB_Device_Library/Core/Src/usbd_ctlreq.c **** 
 545              		.loc 1 505 11 is_stmt 0 view .LVU160
 546 013e 9A42     		cmp	r2, r3
 547 0140 28BF     		it	cs
 548 0142 1A46     		movcs	r2, r3
 505:Middlewares/ST/STM32_USB_Device_Library/Core/Src/usbd_ctlreq.c **** 
 549              		.loc 1 505 9 view .LVU161
 550 0144 ADF80620 		strh	r2, [sp, #6]	@ movhi
 507:Middlewares/ST/STM32_USB_Device_Library/Core/Src/usbd_ctlreq.c ****   }
 551              		.loc 1 507 5 is_stmt 1 view .LVU162
 552 0148 0146     		mov	r1, r0
 553 014a 2846     		mov	r0, r5
 554              	.LVL62:
 507:Middlewares/ST/STM32_USB_Device_Library/Core/Src/usbd_ctlreq.c ****   }
 555              		.loc 1 507 5 is_stmt 0 view .LVU163
 556 014c FFF7FEFF 		bl	USBD_CtlSendData
 557              	.LVL63:
 507:Middlewares/ST/STM32_USB_Device_Library/Core/Src/usbd_ctlreq.c ****   }
 558              		.loc 1 507 5 view .LVU164
 559 0150 77E7     		b	.L34
 560              	.L39:
 512:Middlewares/ST/STM32_USB_Device_Library/Core/Src/usbd_ctlreq.c ****   }
 561              		.loc 1 512 4 is_stmt 1 view .LVU165
 562 0152 2846     		mov	r0, r5
 563 0154 FFF7FEFF 		bl	USBD_CtlSendStatus
ARM GAS  /tmp/ccIuvqu8.s 			page 28


 564              	.LVL64:
 565 0158 77E7     		b	.L12
 566              		.cfi_endproc
 567              	.LFE136:
 569              		.section	.text.USBD_SetAddress,"ax",%progbits
 570              		.align	1
 571              		.syntax unified
 572              		.thumb
 573              		.thumb_func
 574              		.fpu fpv4-sp-d16
 576              	USBD_SetAddress:
 577              	.LVL65:
 578              	.LFB137:
 525:Middlewares/ST/STM32_USB_Device_Library/Core/Src/usbd_ctlreq.c ****   uint8_t  dev_addr;
 579              		.loc 1 525 1 view -0
 580              		.cfi_startproc
 581              		@ args = 0, pretend = 0, frame = 0
 582              		@ frame_needed = 0, uses_anonymous_args = 0
 525:Middlewares/ST/STM32_USB_Device_Library/Core/Src/usbd_ctlreq.c ****   uint8_t  dev_addr;
 583              		.loc 1 525 1 is_stmt 0 view .LVU167
 584 0000 38B5     		push	{r3, r4, r5, lr}
 585              	.LCFI6:
 586              		.cfi_def_cfa_offset 16
 587              		.cfi_offset 3, -16
 588              		.cfi_offset 4, -12
 589              		.cfi_offset 5, -8
 590              		.cfi_offset 14, -4
 591 0002 0446     		mov	r4, r0
 526:Middlewares/ST/STM32_USB_Device_Library/Core/Src/usbd_ctlreq.c **** 
 592              		.loc 1 526 3 is_stmt 1 view .LVU168
 528:Middlewares/ST/STM32_USB_Device_Library/Core/Src/usbd_ctlreq.c ****   {
 593              		.loc 1 528 3 view .LVU169
 528:Middlewares/ST/STM32_USB_Device_Library/Core/Src/usbd_ctlreq.c ****   {
 594              		.loc 1 528 11 is_stmt 0 view .LVU170
 595 0004 8B88     		ldrh	r3, [r1, #4]
 528:Middlewares/ST/STM32_USB_Device_Library/Core/Src/usbd_ctlreq.c ****   {
 596              		.loc 1 528 6 view .LVU171
 597 0006 F3B9     		cbnz	r3, .L41
 528:Middlewares/ST/STM32_USB_Device_Library/Core/Src/usbd_ctlreq.c ****   {
 598              		.loc 1 528 34 discriminator 1 view .LVU172
 599 0008 CB88     		ldrh	r3, [r1, #6]
 528:Middlewares/ST/STM32_USB_Device_Library/Core/Src/usbd_ctlreq.c ****   {
 600              		.loc 1 528 27 discriminator 1 view .LVU173
 601 000a E3B9     		cbnz	r3, .L41
 528:Middlewares/ST/STM32_USB_Device_Library/Core/Src/usbd_ctlreq.c ****   {
 602              		.loc 1 528 58 discriminator 2 view .LVU174
 603 000c 4B88     		ldrh	r3, [r1, #2]
 528:Middlewares/ST/STM32_USB_Device_Library/Core/Src/usbd_ctlreq.c ****   {
 604              		.loc 1 528 51 discriminator 2 view .LVU175
 605 000e 7F2B     		cmp	r3, #127
 606 0010 19D8     		bhi	.L41
 530:Middlewares/ST/STM32_USB_Device_Library/Core/Src/usbd_ctlreq.c **** 
 607              		.loc 1 530 5 is_stmt 1 view .LVU176
 530:Middlewares/ST/STM32_USB_Device_Library/Core/Src/usbd_ctlreq.c **** 
 608              		.loc 1 530 14 is_stmt 0 view .LVU177
 609 0012 03F07F05 		and	r5, r3, #127
 610              	.LVL66:
ARM GAS  /tmp/ccIuvqu8.s 			page 29


 532:Middlewares/ST/STM32_USB_Device_Library/Core/Src/usbd_ctlreq.c ****     {
 611              		.loc 1 532 5 is_stmt 1 view .LVU178
 532:Middlewares/ST/STM32_USB_Device_Library/Core/Src/usbd_ctlreq.c ****     {
 612              		.loc 1 532 13 is_stmt 0 view .LVU179
 613 0016 90F87432 		ldrb	r3, [r0, #628]	@ zero_extendqisi2
 532:Middlewares/ST/STM32_USB_Device_Library/Core/Src/usbd_ctlreq.c ****     {
 614              		.loc 1 532 8 view .LVU180
 615 001a 032B     		cmp	r3, #3
 616 001c 0CD0     		beq	.L46
 538:Middlewares/ST/STM32_USB_Device_Library/Core/Src/usbd_ctlreq.c ****       USBD_LL_SetUSBAddress(pdev, dev_addr);
 617              		.loc 1 538 7 is_stmt 1 view .LVU181
 538:Middlewares/ST/STM32_USB_Device_Library/Core/Src/usbd_ctlreq.c ****       USBD_LL_SetUSBAddress(pdev, dev_addr);
 618              		.loc 1 538 25 is_stmt 0 view .LVU182
 619 001e 80F87652 		strb	r5, [r0, #630]
 539:Middlewares/ST/STM32_USB_Device_Library/Core/Src/usbd_ctlreq.c ****       USBD_CtlSendStatus(pdev);
 620              		.loc 1 539 7 is_stmt 1 view .LVU183
 621 0022 2946     		mov	r1, r5
 622              	.LVL67:
 539:Middlewares/ST/STM32_USB_Device_Library/Core/Src/usbd_ctlreq.c ****       USBD_CtlSendStatus(pdev);
 623              		.loc 1 539 7 is_stmt 0 view .LVU184
 624 0024 FFF7FEFF 		bl	USBD_LL_SetUSBAddress
 625              	.LVL68:
 540:Middlewares/ST/STM32_USB_Device_Library/Core/Src/usbd_ctlreq.c **** 
 626              		.loc 1 540 7 is_stmt 1 view .LVU185
 627 0028 2046     		mov	r0, r4
 628 002a FFF7FEFF 		bl	USBD_CtlSendStatus
 629              	.LVL69:
 542:Middlewares/ST/STM32_USB_Device_Library/Core/Src/usbd_ctlreq.c ****       {
 630              		.loc 1 542 7 view .LVU186
 542:Middlewares/ST/STM32_USB_Device_Library/Core/Src/usbd_ctlreq.c ****       {
 631              		.loc 1 542 10 is_stmt 0 view .LVU187
 632 002e 35B1     		cbz	r5, .L44
 544:Middlewares/ST/STM32_USB_Device_Library/Core/Src/usbd_ctlreq.c ****       }
 633              		.loc 1 544 9 is_stmt 1 view .LVU188
 544:Middlewares/ST/STM32_USB_Device_Library/Core/Src/usbd_ctlreq.c ****       }
 634              		.loc 1 544 25 is_stmt 0 view .LVU189
 635 0030 0223     		movs	r3, #2
 636 0032 84F87432 		strb	r3, [r4, #628]
 637 0036 09E0     		b	.L40
 638              	.LVL70:
 639              	.L46:
 534:Middlewares/ST/STM32_USB_Device_Library/Core/Src/usbd_ctlreq.c ****     }
 640              		.loc 1 534 7 is_stmt 1 view .LVU190
 641 0038 FFF7FEFF 		bl	USBD_CtlError
 642              	.LVL71:
 534:Middlewares/ST/STM32_USB_Device_Library/Core/Src/usbd_ctlreq.c ****     }
 643              		.loc 1 534 7 is_stmt 0 view .LVU191
 644 003c 06E0     		b	.L40
 645              	.L44:
 548:Middlewares/ST/STM32_USB_Device_Library/Core/Src/usbd_ctlreq.c ****       }
 646              		.loc 1 548 9 is_stmt 1 view .LVU192
 548:Middlewares/ST/STM32_USB_Device_Library/Core/Src/usbd_ctlreq.c ****       }
 647              		.loc 1 548 25 is_stmt 0 view .LVU193
 648 003e 0123     		movs	r3, #1
 649 0040 84F87432 		strb	r3, [r4, #628]
 650 0044 02E0     		b	.L40
 651              	.LVL72:
ARM GAS  /tmp/ccIuvqu8.s 			page 30


 652              	.L41:
 554:Middlewares/ST/STM32_USB_Device_Library/Core/Src/usbd_ctlreq.c ****   }
 653              		.loc 1 554 5 is_stmt 1 view .LVU194
 654 0046 2046     		mov	r0, r4
 655              	.LVL73:
 554:Middlewares/ST/STM32_USB_Device_Library/Core/Src/usbd_ctlreq.c ****   }
 656              		.loc 1 554 5 is_stmt 0 view .LVU195
 657 0048 FFF7FEFF 		bl	USBD_CtlError
 658              	.LVL74:
 659              	.L40:
 556:Middlewares/ST/STM32_USB_Device_Library/Core/Src/usbd_ctlreq.c **** 
 660              		.loc 1 556 1 view .LVU196
 661 004c 38BD     		pop	{r3, r4, r5, pc}
 556:Middlewares/ST/STM32_USB_Device_Library/Core/Src/usbd_ctlreq.c **** 
 662              		.loc 1 556 1 view .LVU197
 663              		.cfi_endproc
 664              	.LFE137:
 666              		.section	.text.USBD_SetConfig,"ax",%progbits
 667              		.align	1
 668              		.syntax unified
 669              		.thumb
 670              		.thumb_func
 671              		.fpu fpv4-sp-d16
 673              	USBD_SetConfig:
 674              	.LVL75:
 675              	.LFB138:
 566:Middlewares/ST/STM32_USB_Device_Library/Core/Src/usbd_ctlreq.c ****   static uint8_t cfgidx;
 676              		.loc 1 566 1 is_stmt 1 view -0
 677              		.cfi_startproc
 678              		@ args = 0, pretend = 0, frame = 0
 679              		@ frame_needed = 0, uses_anonymous_args = 0
 566:Middlewares/ST/STM32_USB_Device_Library/Core/Src/usbd_ctlreq.c ****   static uint8_t cfgidx;
 680              		.loc 1 566 1 is_stmt 0 view .LVU199
 681 0000 38B5     		push	{r3, r4, r5, lr}
 682              	.LCFI7:
 683              		.cfi_def_cfa_offset 16
 684              		.cfi_offset 3, -16
 685              		.cfi_offset 4, -12
 686              		.cfi_offset 5, -8
 687              		.cfi_offset 14, -4
 688 0002 0446     		mov	r4, r0
 689 0004 0D46     		mov	r5, r1
 567:Middlewares/ST/STM32_USB_Device_Library/Core/Src/usbd_ctlreq.c **** 
 690              		.loc 1 567 3 is_stmt 1 view .LVU200
 569:Middlewares/ST/STM32_USB_Device_Library/Core/Src/usbd_ctlreq.c **** 
 691              		.loc 1 569 3 view .LVU201
 569:Middlewares/ST/STM32_USB_Device_Library/Core/Src/usbd_ctlreq.c **** 
 692              		.loc 1 569 12 is_stmt 0 view .LVU202
 693 0006 8978     		ldrb	r1, [r1, #2]	@ zero_extendqisi2
 694              	.LVL76:
 569:Middlewares/ST/STM32_USB_Device_Library/Core/Src/usbd_ctlreq.c **** 
 695              		.loc 1 569 10 view .LVU203
 696 0008 284B     		ldr	r3, .L64
 697 000a 1970     		strb	r1, [r3]
 571:Middlewares/ST/STM32_USB_Device_Library/Core/Src/usbd_ctlreq.c ****   {
 698              		.loc 1 571 3 is_stmt 1 view .LVU204
 571:Middlewares/ST/STM32_USB_Device_Library/Core/Src/usbd_ctlreq.c ****   {
ARM GAS  /tmp/ccIuvqu8.s 			page 31


 699              		.loc 1 571 6 is_stmt 0 view .LVU205
 700 000c 0129     		cmp	r1, #1
 701 000e 0ED8     		bhi	.L60
 577:Middlewares/ST/STM32_USB_Device_Library/Core/Src/usbd_ctlreq.c ****     {
 702              		.loc 1 577 5 is_stmt 1 view .LVU206
 577:Middlewares/ST/STM32_USB_Device_Library/Core/Src/usbd_ctlreq.c ****     {
 703              		.loc 1 577 17 is_stmt 0 view .LVU207
 704 0010 90F87432 		ldrb	r3, [r0, #628]	@ zero_extendqisi2
 577:Middlewares/ST/STM32_USB_Device_Library/Core/Src/usbd_ctlreq.c ****     {
 705              		.loc 1 577 5 view .LVU208
 706 0014 022B     		cmp	r3, #2
 707 0016 0ED0     		beq	.L50
 708 0018 032B     		cmp	r3, #3
 709 001a 21D0     		beq	.L51
 626:Middlewares/ST/STM32_USB_Device_Library/Core/Src/usbd_ctlreq.c ****       USBD_ClrClassConfig(pdev, cfgidx);
 710              		.loc 1 626 7 is_stmt 1 view .LVU209
 711 001c 2946     		mov	r1, r5
 712 001e FFF7FEFF 		bl	USBD_CtlError
 713              	.LVL77:
 627:Middlewares/ST/STM32_USB_Device_Library/Core/Src/usbd_ctlreq.c ****       break;
 714              		.loc 1 627 7 view .LVU210
 715 0022 224B     		ldr	r3, .L64
 716 0024 1978     		ldrb	r1, [r3]	@ zero_extendqisi2
 717 0026 2046     		mov	r0, r4
 718 0028 FFF7FEFF 		bl	USBD_ClrClassConfig
 719              	.LVL78:
 628:Middlewares/ST/STM32_USB_Device_Library/Core/Src/usbd_ctlreq.c ****     }
 720              		.loc 1 628 7 view .LVU211
 721 002c 02E0     		b	.L47
 722              	.LVL79:
 723              	.L60:
 573:Middlewares/ST/STM32_USB_Device_Library/Core/Src/usbd_ctlreq.c ****   }
 724              		.loc 1 573 5 view .LVU212
 725 002e 2946     		mov	r1, r5
 726 0030 FFF7FEFF 		bl	USBD_CtlError
 727              	.LVL80:
 728              	.L47:
 631:Middlewares/ST/STM32_USB_Device_Library/Core/Src/usbd_ctlreq.c **** 
 729              		.loc 1 631 1 is_stmt 0 view .LVU213
 730 0034 38BD     		pop	{r3, r4, r5, pc}
 731              	.LVL81:
 732              	.L50:
 580:Middlewares/ST/STM32_USB_Device_Library/Core/Src/usbd_ctlreq.c ****       {
 733              		.loc 1 580 7 is_stmt 1 view .LVU214
 580:Middlewares/ST/STM32_USB_Device_Library/Core/Src/usbd_ctlreq.c ****       {
 734              		.loc 1 580 10 is_stmt 0 view .LVU215
 735 0036 81B1     		cbz	r1, .L53
 582:Middlewares/ST/STM32_USB_Device_Library/Core/Src/usbd_ctlreq.c ****         pdev->dev_state = USBD_STATE_CONFIGURED;
 736              		.loc 1 582 9 is_stmt 1 view .LVU216
 582:Middlewares/ST/STM32_USB_Device_Library/Core/Src/usbd_ctlreq.c ****         pdev->dev_state = USBD_STATE_CONFIGURED;
 737              		.loc 1 582 26 is_stmt 0 view .LVU217
 738 0038 4160     		str	r1, [r0, #4]
 583:Middlewares/ST/STM32_USB_Device_Library/Core/Src/usbd_ctlreq.c ****         if(USBD_SetClassConfig(pdev, cfgidx) == USBD_FAIL)
 739              		.loc 1 583 9 is_stmt 1 view .LVU218
 583:Middlewares/ST/STM32_USB_Device_Library/Core/Src/usbd_ctlreq.c ****         if(USBD_SetClassConfig(pdev, cfgidx) == USBD_FAIL)
 740              		.loc 1 583 25 is_stmt 0 view .LVU219
 741 003a 0323     		movs	r3, #3
ARM GAS  /tmp/ccIuvqu8.s 			page 32


 742 003c 80F87432 		strb	r3, [r0, #628]
 584:Middlewares/ST/STM32_USB_Device_Library/Core/Src/usbd_ctlreq.c ****         {
 743              		.loc 1 584 9 is_stmt 1 view .LVU220
 584:Middlewares/ST/STM32_USB_Device_Library/Core/Src/usbd_ctlreq.c ****         {
 744              		.loc 1 584 12 is_stmt 0 view .LVU221
 745 0040 FFF7FEFF 		bl	USBD_SetClassConfig
 746              	.LVL82:
 584:Middlewares/ST/STM32_USB_Device_Library/Core/Src/usbd_ctlreq.c ****         {
 747              		.loc 1 584 11 view .LVU222
 748 0044 0228     		cmp	r0, #2
 749 0046 03D0     		beq	.L61
 589:Middlewares/ST/STM32_USB_Device_Library/Core/Src/usbd_ctlreq.c ****       }
 750              		.loc 1 589 9 is_stmt 1 view .LVU223
 751 0048 2046     		mov	r0, r4
 752 004a FFF7FEFF 		bl	USBD_CtlSendStatus
 753              	.LVL83:
 754 004e F1E7     		b	.L47
 755              	.L61:
 586:Middlewares/ST/STM32_USB_Device_Library/Core/Src/usbd_ctlreq.c ****           return;
 756              		.loc 1 586 11 view .LVU224
 757 0050 2946     		mov	r1, r5
 758 0052 2046     		mov	r0, r4
 759 0054 FFF7FEFF 		bl	USBD_CtlError
 760              	.LVL84:
 587:Middlewares/ST/STM32_USB_Device_Library/Core/Src/usbd_ctlreq.c ****         }
 761              		.loc 1 587 11 view .LVU225
 762 0058 ECE7     		b	.L47
 763              	.LVL85:
 764              	.L53:
 593:Middlewares/ST/STM32_USB_Device_Library/Core/Src/usbd_ctlreq.c ****       }
 765              		.loc 1 593 9 view .LVU226
 766 005a FFF7FEFF 		bl	USBD_CtlSendStatus
 767              	.LVL86:
 593:Middlewares/ST/STM32_USB_Device_Library/Core/Src/usbd_ctlreq.c ****       }
 768              		.loc 1 593 9 is_stmt 0 view .LVU227
 769 005e E9E7     		b	.L47
 770              	.LVL87:
 771              	.L51:
 598:Middlewares/ST/STM32_USB_Device_Library/Core/Src/usbd_ctlreq.c ****       {
 772              		.loc 1 598 7 is_stmt 1 view .LVU228
 598:Middlewares/ST/STM32_USB_Device_Library/Core/Src/usbd_ctlreq.c ****       {
 773              		.loc 1 598 10 is_stmt 0 view .LVU229
 774 0060 89B1     		cbz	r1, .L62
 605:Middlewares/ST/STM32_USB_Device_Library/Core/Src/usbd_ctlreq.c ****       {
 775              		.loc 1 605 12 is_stmt 1 view .LVU230
 605:Middlewares/ST/STM32_USB_Device_Library/Core/Src/usbd_ctlreq.c ****       {
 776              		.loc 1 605 30 is_stmt 0 view .LVU231
 777 0062 4368     		ldr	r3, [r0, #4]
 605:Middlewares/ST/STM32_USB_Device_Library/Core/Src/usbd_ctlreq.c ****       {
 778              		.loc 1 605 15 view .LVU232
 779 0064 9942     		cmp	r1, r3
 780 0066 1DD0     		beq	.L56
 608:Middlewares/ST/STM32_USB_Device_Library/Core/Src/usbd_ctlreq.c **** 
 781              		.loc 1 608 9 is_stmt 1 view .LVU233
 782 0068 D9B2     		uxtb	r1, r3
 783 006a FFF7FEFF 		bl	USBD_ClrClassConfig
 784              	.LVL88:
ARM GAS  /tmp/ccIuvqu8.s 			page 33


 611:Middlewares/ST/STM32_USB_Device_Library/Core/Src/usbd_ctlreq.c ****         if(USBD_SetClassConfig(pdev, cfgidx) == USBD_FAIL)
 785              		.loc 1 611 9 view .LVU234
 611:Middlewares/ST/STM32_USB_Device_Library/Core/Src/usbd_ctlreq.c ****         if(USBD_SetClassConfig(pdev, cfgidx) == USBD_FAIL)
 786              		.loc 1 611 26 is_stmt 0 view .LVU235
 787 006e 0F4B     		ldr	r3, .L64
 788 0070 1978     		ldrb	r1, [r3]	@ zero_extendqisi2
 789 0072 6160     		str	r1, [r4, #4]
 612:Middlewares/ST/STM32_USB_Device_Library/Core/Src/usbd_ctlreq.c ****         {
 790              		.loc 1 612 9 is_stmt 1 view .LVU236
 612:Middlewares/ST/STM32_USB_Device_Library/Core/Src/usbd_ctlreq.c ****         {
 791              		.loc 1 612 12 is_stmt 0 view .LVU237
 792 0074 2046     		mov	r0, r4
 793 0076 FFF7FEFF 		bl	USBD_SetClassConfig
 794              	.LVL89:
 612:Middlewares/ST/STM32_USB_Device_Library/Core/Src/usbd_ctlreq.c ****         {
 795              		.loc 1 612 11 view .LVU238
 796 007a 0228     		cmp	r0, #2
 797 007c 0DD0     		beq	.L63
 617:Middlewares/ST/STM32_USB_Device_Library/Core/Src/usbd_ctlreq.c ****       }
 798              		.loc 1 617 9 is_stmt 1 view .LVU239
 799 007e 2046     		mov	r0, r4
 800 0080 FFF7FEFF 		bl	USBD_CtlSendStatus
 801              	.LVL90:
 802 0084 D6E7     		b	.L47
 803              	.LVL91:
 804              	.L62:
 600:Middlewares/ST/STM32_USB_Device_Library/Core/Src/usbd_ctlreq.c ****         pdev->dev_config = cfgidx;
 805              		.loc 1 600 9 view .LVU240
 600:Middlewares/ST/STM32_USB_Device_Library/Core/Src/usbd_ctlreq.c ****         pdev->dev_config = cfgidx;
 806              		.loc 1 600 25 is_stmt 0 view .LVU241
 807 0086 0223     		movs	r3, #2
 808 0088 80F87432 		strb	r3, [r0, #628]
 601:Middlewares/ST/STM32_USB_Device_Library/Core/Src/usbd_ctlreq.c ****         USBD_ClrClassConfig(pdev, cfgidx);
 809              		.loc 1 601 9 is_stmt 1 view .LVU242
 601:Middlewares/ST/STM32_USB_Device_Library/Core/Src/usbd_ctlreq.c ****         USBD_ClrClassConfig(pdev, cfgidx);
 810              		.loc 1 601 26 is_stmt 0 view .LVU243
 811 008c 4160     		str	r1, [r0, #4]
 602:Middlewares/ST/STM32_USB_Device_Library/Core/Src/usbd_ctlreq.c ****         USBD_CtlSendStatus(pdev);
 812              		.loc 1 602 9 is_stmt 1 view .LVU244
 813 008e FFF7FEFF 		bl	USBD_ClrClassConfig
 814              	.LVL92:
 603:Middlewares/ST/STM32_USB_Device_Library/Core/Src/usbd_ctlreq.c ****       }
 815              		.loc 1 603 9 view .LVU245
 816 0092 2046     		mov	r0, r4
 817 0094 FFF7FEFF 		bl	USBD_CtlSendStatus
 818              	.LVL93:
 819 0098 CCE7     		b	.L47
 820              	.L63:
 614:Middlewares/ST/STM32_USB_Device_Library/Core/Src/usbd_ctlreq.c ****           return;
 821              		.loc 1 614 11 view .LVU246
 822 009a 2946     		mov	r1, r5
 823 009c 2046     		mov	r0, r4
 824 009e FFF7FEFF 		bl	USBD_CtlError
 825              	.LVL94:
 615:Middlewares/ST/STM32_USB_Device_Library/Core/Src/usbd_ctlreq.c ****         }
 826              		.loc 1 615 11 view .LVU247
 827 00a2 C7E7     		b	.L47
ARM GAS  /tmp/ccIuvqu8.s 			page 34


 828              	.LVL95:
 829              	.L56:
 621:Middlewares/ST/STM32_USB_Device_Library/Core/Src/usbd_ctlreq.c ****       }
 830              		.loc 1 621 9 view .LVU248
 831 00a4 FFF7FEFF 		bl	USBD_CtlSendStatus
 832              	.LVL96:
 621:Middlewares/ST/STM32_USB_Device_Library/Core/Src/usbd_ctlreq.c ****       }
 833              		.loc 1 621 9 is_stmt 0 view .LVU249
 834 00a8 C4E7     		b	.L47
 835              	.L65:
 836 00aa 00BF     		.align	2
 837              	.L64:
 838 00ac 00000000 		.word	.LANCHOR0
 839              		.cfi_endproc
 840              	.LFE138:
 842              		.section	.text.USBD_GetConfig,"ax",%progbits
 843              		.align	1
 844              		.syntax unified
 845              		.thumb
 846              		.thumb_func
 847              		.fpu fpv4-sp-d16
 849              	USBD_GetConfig:
 850              	.LVL97:
 851              	.LFB139:
 641:Middlewares/ST/STM32_USB_Device_Library/Core/Src/usbd_ctlreq.c ****   if (req->wLength != 1U)
 852              		.loc 1 641 1 is_stmt 1 view -0
 853              		.cfi_startproc
 854              		@ args = 0, pretend = 0, frame = 0
 855              		@ frame_needed = 0, uses_anonymous_args = 0
 641:Middlewares/ST/STM32_USB_Device_Library/Core/Src/usbd_ctlreq.c ****   if (req->wLength != 1U)
 856              		.loc 1 641 1 is_stmt 0 view .LVU251
 857 0000 08B5     		push	{r3, lr}
 858              	.LCFI8:
 859              		.cfi_def_cfa_offset 8
 860              		.cfi_offset 3, -8
 861              		.cfi_offset 14, -4
 642:Middlewares/ST/STM32_USB_Device_Library/Core/Src/usbd_ctlreq.c ****   {
 862              		.loc 1 642 3 is_stmt 1 view .LVU252
 642:Middlewares/ST/STM32_USB_Device_Library/Core/Src/usbd_ctlreq.c ****   {
 863              		.loc 1 642 10 is_stmt 0 view .LVU253
 864 0002 CB88     		ldrh	r3, [r1, #6]
 642:Middlewares/ST/STM32_USB_Device_Library/Core/Src/usbd_ctlreq.c ****   {
 865              		.loc 1 642 6 view .LVU254
 866 0004 012B     		cmp	r3, #1
 867 0006 0AD1     		bne	.L74
 648:Middlewares/ST/STM32_USB_Device_Library/Core/Src/usbd_ctlreq.c ****     {
 868              		.loc 1 648 5 is_stmt 1 view .LVU255
 648:Middlewares/ST/STM32_USB_Device_Library/Core/Src/usbd_ctlreq.c ****     {
 869              		.loc 1 648 17 is_stmt 0 view .LVU256
 870 0008 90F87432 		ldrb	r3, [r0, #628]	@ zero_extendqisi2
 648:Middlewares/ST/STM32_USB_Device_Library/Core/Src/usbd_ctlreq.c ****     {
 871              		.loc 1 648 5 view .LVU257
 872 000c 022B     		cmp	r3, #2
 873 000e 09D9     		bls	.L75
 874 0010 032B     		cmp	r3, #3
 875 0012 09D1     		bne	.L71
 657:Middlewares/ST/STM32_USB_Device_Library/Core/Src/usbd_ctlreq.c ****       break;
ARM GAS  /tmp/ccIuvqu8.s 			page 35


 876              		.loc 1 657 7 is_stmt 1 view .LVU258
 877 0014 0122     		movs	r2, #1
 878 0016 011D     		adds	r1, r0, #4
 879              	.LVL98:
 657:Middlewares/ST/STM32_USB_Device_Library/Core/Src/usbd_ctlreq.c ****       break;
 880              		.loc 1 657 7 is_stmt 0 view .LVU259
 881 0018 FFF7FEFF 		bl	USBD_CtlSendData
 882              	.LVL99:
 658:Middlewares/ST/STM32_USB_Device_Library/Core/Src/usbd_ctlreq.c **** 
 883              		.loc 1 658 7 is_stmt 1 view .LVU260
 884 001c 01E0     		b	.L66
 885              	.LVL100:
 886              	.L74:
 644:Middlewares/ST/STM32_USB_Device_Library/Core/Src/usbd_ctlreq.c ****   }
 887              		.loc 1 644 5 view .LVU261
 888 001e FFF7FEFF 		bl	USBD_CtlError
 889              	.LVL101:
 890              	.L66:
 665:Middlewares/ST/STM32_USB_Device_Library/Core/Src/usbd_ctlreq.c **** 
 891              		.loc 1 665 1 is_stmt 0 view .LVU262
 892 0022 08BD     		pop	{r3, pc}
 893              	.LVL102:
 894              	.L75:
 648:Middlewares/ST/STM32_USB_Device_Library/Core/Src/usbd_ctlreq.c ****     {
 895              		.loc 1 648 5 view .LVU263
 896 0024 5BB2     		sxtb	r3, r3
 897 0026 13B9     		cbnz	r3, .L76
 898              	.L71:
 661:Middlewares/ST/STM32_USB_Device_Library/Core/Src/usbd_ctlreq.c ****       break;
 899              		.loc 1 661 7 is_stmt 1 view .LVU264
 900 0028 FFF7FEFF 		bl	USBD_CtlError
 901              	.LVL103:
 662:Middlewares/ST/STM32_USB_Device_Library/Core/Src/usbd_ctlreq.c ****     }
 902              		.loc 1 662 7 view .LVU265
 665:Middlewares/ST/STM32_USB_Device_Library/Core/Src/usbd_ctlreq.c **** 
 903              		.loc 1 665 1 is_stmt 0 view .LVU266
 904 002c F9E7     		b	.L66
 905              	.LVL104:
 906              	.L76:
 652:Middlewares/ST/STM32_USB_Device_Library/Core/Src/usbd_ctlreq.c ****       USBD_CtlSendData (pdev, (uint8_t *)(void *)&pdev->dev_default_config, 1U);
 907              		.loc 1 652 7 is_stmt 1 view .LVU267
 652:Middlewares/ST/STM32_USB_Device_Library/Core/Src/usbd_ctlreq.c ****       USBD_CtlSendData (pdev, (uint8_t *)(void *)&pdev->dev_default_config, 1U);
 908              		.loc 1 652 32 is_stmt 0 view .LVU268
 909 002e 0146     		mov	r1, r0
 910              	.LVL105:
 652:Middlewares/ST/STM32_USB_Device_Library/Core/Src/usbd_ctlreq.c ****       USBD_CtlSendData (pdev, (uint8_t *)(void *)&pdev->dev_default_config, 1U);
 911              		.loc 1 652 32 view .LVU269
 912 0030 0023     		movs	r3, #0
 913 0032 41F8083F 		str	r3, [r1, #8]!
 653:Middlewares/ST/STM32_USB_Device_Library/Core/Src/usbd_ctlreq.c ****       break;
 914              		.loc 1 653 7 is_stmt 1 view .LVU270
 915 0036 0122     		movs	r2, #1
 916 0038 FFF7FEFF 		bl	USBD_CtlSendData
 917              	.LVL106:
 654:Middlewares/ST/STM32_USB_Device_Library/Core/Src/usbd_ctlreq.c **** 
 918              		.loc 1 654 7 view .LVU271
 919 003c F1E7     		b	.L66
ARM GAS  /tmp/ccIuvqu8.s 			page 36


 920              		.cfi_endproc
 921              	.LFE139:
 923              		.section	.text.USBD_GetStatus,"ax",%progbits
 924              		.align	1
 925              		.syntax unified
 926              		.thumb
 927              		.thumb_func
 928              		.fpu fpv4-sp-d16
 930              	USBD_GetStatus:
 931              	.LVL107:
 932              	.LFB140:
 675:Middlewares/ST/STM32_USB_Device_Library/Core/Src/usbd_ctlreq.c ****   switch (pdev->dev_state)
 933              		.loc 1 675 1 view -0
 934              		.cfi_startproc
 935              		@ args = 0, pretend = 0, frame = 0
 936              		@ frame_needed = 0, uses_anonymous_args = 0
 675:Middlewares/ST/STM32_USB_Device_Library/Core/Src/usbd_ctlreq.c ****   switch (pdev->dev_state)
 937              		.loc 1 675 1 is_stmt 0 view .LVU273
 938 0000 08B5     		push	{r3, lr}
 939              	.LCFI9:
 940              		.cfi_def_cfa_offset 8
 941              		.cfi_offset 3, -8
 942              		.cfi_offset 14, -4
 676:Middlewares/ST/STM32_USB_Device_Library/Core/Src/usbd_ctlreq.c ****   {
 943              		.loc 1 676 3 is_stmt 1 view .LVU274
 676:Middlewares/ST/STM32_USB_Device_Library/Core/Src/usbd_ctlreq.c ****   {
 944              		.loc 1 676 15 is_stmt 0 view .LVU275
 945 0002 90F87432 		ldrb	r3, [r0, #628]	@ zero_extendqisi2
 676:Middlewares/ST/STM32_USB_Device_Library/Core/Src/usbd_ctlreq.c ****   {
 946              		.loc 1 676 3 view .LVU276
 947 0006 013B     		subs	r3, r3, #1
 948 0008 022B     		cmp	r3, #2
 949 000a 12D8     		bhi	.L78
 681:Middlewares/ST/STM32_USB_Device_Library/Core/Src/usbd_ctlreq.c ****     {
 950              		.loc 1 681 5 is_stmt 1 view .LVU277
 681:Middlewares/ST/STM32_USB_Device_Library/Core/Src/usbd_ctlreq.c ****     {
 951              		.loc 1 681 11 is_stmt 0 view .LVU278
 952 000c CB88     		ldrh	r3, [r1, #6]
 681:Middlewares/ST/STM32_USB_Device_Library/Core/Src/usbd_ctlreq.c ****     {
 953              		.loc 1 681 7 view .LVU279
 954 000e 022B     		cmp	r3, #2
 955 0010 0CD1     		bne	.L83
 688:Middlewares/ST/STM32_USB_Device_Library/Core/Src/usbd_ctlreq.c **** #else
 956              		.loc 1 688 5 is_stmt 1 view .LVU280
 688:Middlewares/ST/STM32_USB_Device_Library/Core/Src/usbd_ctlreq.c **** #else
 957              		.loc 1 688 29 is_stmt 0 view .LVU281
 958 0012 0123     		movs	r3, #1
 959 0014 C360     		str	r3, [r0, #12]
 693:Middlewares/ST/STM32_USB_Device_Library/Core/Src/usbd_ctlreq.c ****     {
 960              		.loc 1 693 5 is_stmt 1 view .LVU282
 693:Middlewares/ST/STM32_USB_Device_Library/Core/Src/usbd_ctlreq.c ****     {
 961              		.loc 1 693 13 is_stmt 0 view .LVU283
 962 0016 D0F87C32 		ldr	r3, [r0, #636]
 693:Middlewares/ST/STM32_USB_Device_Library/Core/Src/usbd_ctlreq.c ****     {
 963              		.loc 1 693 8 view .LVU284
 964 001a 0BB1     		cbz	r3, .L81
 695:Middlewares/ST/STM32_USB_Device_Library/Core/Src/usbd_ctlreq.c ****     }
ARM GAS  /tmp/ccIuvqu8.s 			page 37


 965              		.loc 1 695 7 is_stmt 1 view .LVU285
 695:Middlewares/ST/STM32_USB_Device_Library/Core/Src/usbd_ctlreq.c ****     }
 966              		.loc 1 695 31 is_stmt 0 view .LVU286
 967 001c 0323     		movs	r3, #3
 968 001e C360     		str	r3, [r0, #12]
 969              	.L81:
 698:Middlewares/ST/STM32_USB_Device_Library/Core/Src/usbd_ctlreq.c ****     break;
 970              		.loc 1 698 5 is_stmt 1 view .LVU287
 971 0020 0222     		movs	r2, #2
 972 0022 00F10C01 		add	r1, r0, #12
 973              	.LVL108:
 698:Middlewares/ST/STM32_USB_Device_Library/Core/Src/usbd_ctlreq.c ****     break;
 974              		.loc 1 698 5 is_stmt 0 view .LVU288
 975 0026 FFF7FEFF 		bl	USBD_CtlSendData
 976              	.LVL109:
 699:Middlewares/ST/STM32_USB_Device_Library/Core/Src/usbd_ctlreq.c **** 
 977              		.loc 1 699 5 is_stmt 1 view .LVU289
 978              	.L77:
 705:Middlewares/ST/STM32_USB_Device_Library/Core/Src/usbd_ctlreq.c **** 
 979              		.loc 1 705 1 is_stmt 0 view .LVU290
 980 002a 08BD     		pop	{r3, pc}
 981              	.LVL110:
 982              	.L83:
 683:Middlewares/ST/STM32_USB_Device_Library/Core/Src/usbd_ctlreq.c ****       break;
 983              		.loc 1 683 7 is_stmt 1 view .LVU291
 984 002c FFF7FEFF 		bl	USBD_CtlError
 985              	.LVL111:
 684:Middlewares/ST/STM32_USB_Device_Library/Core/Src/usbd_ctlreq.c ****     }
 986              		.loc 1 684 7 view .LVU292
 987 0030 FBE7     		b	.L77
 988              	.LVL112:
 989              	.L78:
 702:Middlewares/ST/STM32_USB_Device_Library/Core/Src/usbd_ctlreq.c ****     break;
 990              		.loc 1 702 5 view .LVU293
 991 0032 FFF7FEFF 		bl	USBD_CtlError
 992              	.LVL113:
 703:Middlewares/ST/STM32_USB_Device_Library/Core/Src/usbd_ctlreq.c ****   }
 993              		.loc 1 703 5 view .LVU294
 705:Middlewares/ST/STM32_USB_Device_Library/Core/Src/usbd_ctlreq.c **** 
 994              		.loc 1 705 1 is_stmt 0 view .LVU295
 995 0036 F8E7     		b	.L77
 996              		.cfi_endproc
 997              	.LFE140:
 999              		.section	.text.USBD_ClrFeature,"ax",%progbits
 1000              		.align	1
 1001              		.syntax unified
 1002              		.thumb
 1003              		.thumb_func
 1004              		.fpu fpv4-sp-d16
 1006              	USBD_ClrFeature:
 1007              	.LVL114:
 1008              	.LFB142:
 737:Middlewares/ST/STM32_USB_Device_Library/Core/Src/usbd_ctlreq.c ****   switch (pdev->dev_state)
 1009              		.loc 1 737 1 is_stmt 1 view -0
 1010              		.cfi_startproc
 1011              		@ args = 0, pretend = 0, frame = 0
 1012              		@ frame_needed = 0, uses_anonymous_args = 0
ARM GAS  /tmp/ccIuvqu8.s 			page 38


 737:Middlewares/ST/STM32_USB_Device_Library/Core/Src/usbd_ctlreq.c ****   switch (pdev->dev_state)
 1013              		.loc 1 737 1 is_stmt 0 view .LVU297
 1014 0000 08B5     		push	{r3, lr}
 1015              	.LCFI10:
 1016              		.cfi_def_cfa_offset 8
 1017              		.cfi_offset 3, -8
 1018              		.cfi_offset 14, -4
 738:Middlewares/ST/STM32_USB_Device_Library/Core/Src/usbd_ctlreq.c ****   {
 1019              		.loc 1 738 3 is_stmt 1 view .LVU298
 738:Middlewares/ST/STM32_USB_Device_Library/Core/Src/usbd_ctlreq.c ****   {
 1020              		.loc 1 738 15 is_stmt 0 view .LVU299
 1021 0002 90F87432 		ldrb	r3, [r0, #628]	@ zero_extendqisi2
 738:Middlewares/ST/STM32_USB_Device_Library/Core/Src/usbd_ctlreq.c ****   {
 1022              		.loc 1 738 3 view .LVU300
 1023 0006 013B     		subs	r3, r3, #1
 1024 0008 022B     		cmp	r3, #2
 1025 000a 09D8     		bhi	.L85
 743:Middlewares/ST/STM32_USB_Device_Library/Core/Src/usbd_ctlreq.c ****     {
 1026              		.loc 1 743 5 is_stmt 1 view .LVU301
 743:Middlewares/ST/STM32_USB_Device_Library/Core/Src/usbd_ctlreq.c ****     {
 1027              		.loc 1 743 12 is_stmt 0 view .LVU302
 1028 000c 4B88     		ldrh	r3, [r1, #2]
 743:Middlewares/ST/STM32_USB_Device_Library/Core/Src/usbd_ctlreq.c ****     {
 1029              		.loc 1 743 8 view .LVU303
 1030 000e 012B     		cmp	r3, #1
 1031 0010 00D0     		beq	.L88
 1032              	.LVL115:
 1033              	.L84:
 754:Middlewares/ST/STM32_USB_Device_Library/Core/Src/usbd_ctlreq.c **** 
 1034              		.loc 1 754 1 view .LVU304
 1035 0012 08BD     		pop	{r3, pc}
 1036              	.LVL116:
 1037              	.L88:
 745:Middlewares/ST/STM32_USB_Device_Library/Core/Src/usbd_ctlreq.c ****       USBD_CtlSendStatus(pdev);
 1038              		.loc 1 745 7 is_stmt 1 view .LVU305
 745:Middlewares/ST/STM32_USB_Device_Library/Core/Src/usbd_ctlreq.c ****       USBD_CtlSendStatus(pdev);
 1039              		.loc 1 745 31 is_stmt 0 view .LVU306
 1040 0014 0023     		movs	r3, #0
 1041 0016 C0F87C32 		str	r3, [r0, #636]
 746:Middlewares/ST/STM32_USB_Device_Library/Core/Src/usbd_ctlreq.c ****     }
 1042              		.loc 1 746 7 is_stmt 1 view .LVU307
 1043 001a FFF7FEFF 		bl	USBD_CtlSendStatus
 1044              	.LVL117:
 746:Middlewares/ST/STM32_USB_Device_Library/Core/Src/usbd_ctlreq.c ****     }
 1045              		.loc 1 746 7 is_stmt 0 view .LVU308
 1046 001e F8E7     		b	.L84
 1047              	.LVL118:
 1048              	.L85:
 751:Middlewares/ST/STM32_USB_Device_Library/Core/Src/usbd_ctlreq.c ****     break;
 1049              		.loc 1 751 6 is_stmt 1 view .LVU309
 1050 0020 FFF7FEFF 		bl	USBD_CtlError
 1051              	.LVL119:
 752:Middlewares/ST/STM32_USB_Device_Library/Core/Src/usbd_ctlreq.c ****   }
 1052              		.loc 1 752 5 view .LVU310
 754:Middlewares/ST/STM32_USB_Device_Library/Core/Src/usbd_ctlreq.c **** 
 1053              		.loc 1 754 1 is_stmt 0 view .LVU311
 1054 0024 F5E7     		b	.L84
ARM GAS  /tmp/ccIuvqu8.s 			page 39


 1055              		.cfi_endproc
 1056              	.LFE142:
 1058              		.section	.text.USBD_StdDevReq,"ax",%progbits
 1059              		.align	1
 1060              		.global	USBD_StdDevReq
 1061              		.syntax unified
 1062              		.thumb
 1063              		.thumb_func
 1064              		.fpu fpv4-sp-d16
 1066              	USBD_StdDevReq:
 1067              	.LVL120:
 1068              	.LFB133:
 112:Middlewares/ST/STM32_USB_Device_Library/Core/Src/usbd_ctlreq.c ****   USBD_StatusTypeDef ret = USBD_OK;
 1069              		.loc 1 112 1 is_stmt 1 view -0
 1070              		.cfi_startproc
 1071              		@ args = 0, pretend = 0, frame = 0
 1072              		@ frame_needed = 0, uses_anonymous_args = 0
 112:Middlewares/ST/STM32_USB_Device_Library/Core/Src/usbd_ctlreq.c ****   USBD_StatusTypeDef ret = USBD_OK;
 1073              		.loc 1 112 1 is_stmt 0 view .LVU313
 1074 0000 08B5     		push	{r3, lr}
 1075              	.LCFI11:
 1076              		.cfi_def_cfa_offset 8
 1077              		.cfi_offset 3, -8
 1078              		.cfi_offset 14, -4
 113:Middlewares/ST/STM32_USB_Device_Library/Core/Src/usbd_ctlreq.c **** 
 1079              		.loc 1 113 3 is_stmt 1 view .LVU314
 1080              	.LVL121:
 115:Middlewares/ST/STM32_USB_Device_Library/Core/Src/usbd_ctlreq.c ****   {
 1081              		.loc 1 115 3 view .LVU315
 115:Middlewares/ST/STM32_USB_Device_Library/Core/Src/usbd_ctlreq.c ****   {
 1082              		.loc 1 115 14 is_stmt 0 view .LVU316
 1083 0002 0B78     		ldrb	r3, [r1]	@ zero_extendqisi2
 1084 0004 03F06003 		and	r3, r3, #96
 115:Middlewares/ST/STM32_USB_Device_Library/Core/Src/usbd_ctlreq.c ****   {
 1085              		.loc 1 115 3 view .LVU317
 1086 0008 202B     		cmp	r3, #32
 1087 000a 05D0     		beq	.L90
 1088 000c 402B     		cmp	r3, #64
 1089 000e 03D0     		beq	.L90
 1090 0010 43B1     		cbz	r3, .L105
 163:Middlewares/ST/STM32_USB_Device_Library/Core/Src/usbd_ctlreq.c ****     break;
 1091              		.loc 1 163 5 is_stmt 1 view .LVU318
 1092 0012 FFF7FEFF 		bl	USBD_CtlError
 1093              	.LVL122:
 164:Middlewares/ST/STM32_USB_Device_Library/Core/Src/usbd_ctlreq.c ****   }
 1094              		.loc 1 164 5 view .LVU319
 1095 0016 03E0     		b	.L93
 1096              	.LVL123:
 1097              	.L90:
 119:Middlewares/ST/STM32_USB_Device_Library/Core/Src/usbd_ctlreq.c ****     break;
 1098              		.loc 1 119 5 view .LVU320
 119:Middlewares/ST/STM32_USB_Device_Library/Core/Src/usbd_ctlreq.c ****     break;
 1099              		.loc 1 119 9 is_stmt 0 view .LVU321
 1100 0018 D0F88C32 		ldr	r3, [r0, #652]
 119:Middlewares/ST/STM32_USB_Device_Library/Core/Src/usbd_ctlreq.c ****     break;
 1101              		.loc 1 119 17 view .LVU322
 1102 001c 9B68     		ldr	r3, [r3, #8]
ARM GAS  /tmp/ccIuvqu8.s 			page 40


 119:Middlewares/ST/STM32_USB_Device_Library/Core/Src/usbd_ctlreq.c ****     break;
 1103              		.loc 1 119 5 view .LVU323
 1104 001e 9847     		blx	r3
 1105              	.LVL124:
 120:Middlewares/ST/STM32_USB_Device_Library/Core/Src/usbd_ctlreq.c **** 
 1106              		.loc 1 120 5 is_stmt 1 view .LVU324
 1107              	.L93:
 167:Middlewares/ST/STM32_USB_Device_Library/Core/Src/usbd_ctlreq.c **** }
 1108              		.loc 1 167 3 view .LVU325
 168:Middlewares/ST/STM32_USB_Device_Library/Core/Src/usbd_ctlreq.c **** 
 1109              		.loc 1 168 1 is_stmt 0 view .LVU326
 1110 0020 0020     		movs	r0, #0
 1111 0022 08BD     		pop	{r3, pc}
 1112              	.LVL125:
 1113              	.L105:
 124:Middlewares/ST/STM32_USB_Device_Library/Core/Src/usbd_ctlreq.c ****     {
 1114              		.loc 1 124 5 is_stmt 1 view .LVU327
 124:Middlewares/ST/STM32_USB_Device_Library/Core/Src/usbd_ctlreq.c ****     {
 1115              		.loc 1 124 16 is_stmt 0 view .LVU328
 1116 0024 4B78     		ldrb	r3, [r1, #1]	@ zero_extendqisi2
 1117 0026 092B     		cmp	r3, #9
 1118 0028 1BD8     		bhi	.L94
 1119 002a DFE803F0 		tbb	[pc, r3]
 1120              	.L96:
 1121 002e 11       		.byte	(.L102-.L96)/2
 1122 002f 17       		.byte	(.L101-.L96)/2
 1123 0030 1A       		.byte	(.L94-.L96)/2
 1124 0031 14       		.byte	(.L100-.L96)/2
 1125 0032 1A       		.byte	(.L94-.L96)/2
 1126 0033 08       		.byte	(.L99-.L96)/2
 1127 0034 05       		.byte	(.L98-.L96)/2
 1128 0035 1A       		.byte	(.L94-.L96)/2
 1129 0036 0E       		.byte	(.L97-.L96)/2
 1130 0037 0B       		.byte	(.L95-.L96)/2
 1131              		.p2align 1
 1132              	.L98:
 128:Middlewares/ST/STM32_USB_Device_Library/Core/Src/usbd_ctlreq.c ****       break;
 1133              		.loc 1 128 7 is_stmt 1 view .LVU329
 1134 0038 FFF7FEFF 		bl	USBD_GetDescriptor
 1135              	.LVL126:
 129:Middlewares/ST/STM32_USB_Device_Library/Core/Src/usbd_ctlreq.c **** 
 1136              		.loc 1 129 7 view .LVU330
 1137 003c F0E7     		b	.L93
 1138              	.LVL127:
 1139              	.L99:
 132:Middlewares/ST/STM32_USB_Device_Library/Core/Src/usbd_ctlreq.c ****       break;
 1140              		.loc 1 132 7 view .LVU331
 1141 003e FFF7FEFF 		bl	USBD_SetAddress
 1142              	.LVL128:
 133:Middlewares/ST/STM32_USB_Device_Library/Core/Src/usbd_ctlreq.c **** 
 1143              		.loc 1 133 7 view .LVU332
 1144 0042 EDE7     		b	.L93
 1145              	.LVL129:
 1146              	.L95:
 136:Middlewares/ST/STM32_USB_Device_Library/Core/Src/usbd_ctlreq.c ****       break;
 1147              		.loc 1 136 7 view .LVU333
 1148 0044 FFF7FEFF 		bl	USBD_SetConfig
ARM GAS  /tmp/ccIuvqu8.s 			page 41


 1149              	.LVL130:
 137:Middlewares/ST/STM32_USB_Device_Library/Core/Src/usbd_ctlreq.c **** 
 1150              		.loc 1 137 7 view .LVU334
 1151 0048 EAE7     		b	.L93
 1152              	.LVL131:
 1153              	.L97:
 140:Middlewares/ST/STM32_USB_Device_Library/Core/Src/usbd_ctlreq.c ****       break;
 1154              		.loc 1 140 7 view .LVU335
 1155 004a FFF7FEFF 		bl	USBD_GetConfig
 1156              	.LVL132:
 141:Middlewares/ST/STM32_USB_Device_Library/Core/Src/usbd_ctlreq.c **** 
 1157              		.loc 1 141 7 view .LVU336
 1158 004e E7E7     		b	.L93
 1159              	.LVL133:
 1160              	.L102:
 144:Middlewares/ST/STM32_USB_Device_Library/Core/Src/usbd_ctlreq.c ****       break;
 1161              		.loc 1 144 7 view .LVU337
 1162 0050 FFF7FEFF 		bl	USBD_GetStatus
 1163              	.LVL134:
 145:Middlewares/ST/STM32_USB_Device_Library/Core/Src/usbd_ctlreq.c **** 
 1164              		.loc 1 145 7 view .LVU338
 1165 0054 E4E7     		b	.L93
 1166              	.LVL135:
 1167              	.L100:
 149:Middlewares/ST/STM32_USB_Device_Library/Core/Src/usbd_ctlreq.c ****       break;
 1168              		.loc 1 149 7 view .LVU339
 1169 0056 FFF7FEFF 		bl	USBD_SetFeature
 1170              	.LVL136:
 150:Middlewares/ST/STM32_USB_Device_Library/Core/Src/usbd_ctlreq.c **** 
 1171              		.loc 1 150 7 view .LVU340
 1172 005a E1E7     		b	.L93
 1173              	.LVL137:
 1174              	.L101:
 153:Middlewares/ST/STM32_USB_Device_Library/Core/Src/usbd_ctlreq.c ****       break;
 1175              		.loc 1 153 7 view .LVU341
 1176 005c FFF7FEFF 		bl	USBD_ClrFeature
 1177              	.LVL138:
 154:Middlewares/ST/STM32_USB_Device_Library/Core/Src/usbd_ctlreq.c **** 
 1178              		.loc 1 154 7 view .LVU342
 1179 0060 DEE7     		b	.L93
 1180              	.LVL139:
 1181              	.L94:
 157:Middlewares/ST/STM32_USB_Device_Library/Core/Src/usbd_ctlreq.c ****       break;
 1182              		.loc 1 157 7 view .LVU343
 1183 0062 FFF7FEFF 		bl	USBD_CtlError
 1184              	.LVL140:
 158:Middlewares/ST/STM32_USB_Device_Library/Core/Src/usbd_ctlreq.c ****     }
 1185              		.loc 1 158 7 view .LVU344
 1186 0066 DBE7     		b	.L93
 1187              		.cfi_endproc
 1188              	.LFE133:
 1190              		.section	.text.USBD_StdItfReq,"ax",%progbits
 1191              		.align	1
 1192              		.global	USBD_StdItfReq
 1193              		.syntax unified
 1194              		.thumb
 1195              		.thumb_func
ARM GAS  /tmp/ccIuvqu8.s 			page 42


 1196              		.fpu fpv4-sp-d16
 1198              	USBD_StdItfReq:
 1199              	.LVL141:
 1200              	.LFB134:
 178:Middlewares/ST/STM32_USB_Device_Library/Core/Src/usbd_ctlreq.c ****   USBD_StatusTypeDef ret = USBD_OK;
 1201              		.loc 1 178 1 view -0
 1202              		.cfi_startproc
 1203              		@ args = 0, pretend = 0, frame = 0
 1204              		@ frame_needed = 0, uses_anonymous_args = 0
 178:Middlewares/ST/STM32_USB_Device_Library/Core/Src/usbd_ctlreq.c ****   USBD_StatusTypeDef ret = USBD_OK;
 1205              		.loc 1 178 1 is_stmt 0 view .LVU346
 1206 0000 38B5     		push	{r3, r4, r5, lr}
 1207              	.LCFI12:
 1208              		.cfi_def_cfa_offset 16
 1209              		.cfi_offset 3, -16
 1210              		.cfi_offset 4, -12
 1211              		.cfi_offset 5, -8
 1212              		.cfi_offset 14, -4
 1213 0002 0546     		mov	r5, r0
 1214 0004 0C46     		mov	r4, r1
 179:Middlewares/ST/STM32_USB_Device_Library/Core/Src/usbd_ctlreq.c **** 
 1215              		.loc 1 179 3 is_stmt 1 view .LVU347
 1216              	.LVL142:
 181:Middlewares/ST/STM32_USB_Device_Library/Core/Src/usbd_ctlreq.c ****   {
 1217              		.loc 1 181 3 view .LVU348
 181:Middlewares/ST/STM32_USB_Device_Library/Core/Src/usbd_ctlreq.c ****   {
 1218              		.loc 1 181 14 is_stmt 0 view .LVU349
 1219 0006 0B78     		ldrb	r3, [r1]	@ zero_extendqisi2
 1220 0008 03F06003 		and	r3, r3, #96
 181:Middlewares/ST/STM32_USB_Device_Library/Core/Src/usbd_ctlreq.c ****   {
 1221              		.loc 1 181 3 view .LVU350
 1222 000c 202B     		cmp	r3, #32
 1223 000e 06D0     		beq	.L107
 1224 0010 402B     		cmp	r3, #64
 1225 0012 04D0     		beq	.L107
 1226 0014 1BB1     		cbz	r3, .L107
 214:Middlewares/ST/STM32_USB_Device_Library/Core/Src/usbd_ctlreq.c ****     break;
 1227              		.loc 1 214 5 is_stmt 1 view .LVU351
 1228 0016 FFF7FEFF 		bl	USBD_CtlError
 1229              	.LVL143:
 215:Middlewares/ST/STM32_USB_Device_Library/Core/Src/usbd_ctlreq.c ****   }
 1230              		.loc 1 215 5 view .LVU352
 1231              	.L111:
 218:Middlewares/ST/STM32_USB_Device_Library/Core/Src/usbd_ctlreq.c **** }
 1232              		.loc 1 218 3 view .LVU353
 219:Middlewares/ST/STM32_USB_Device_Library/Core/Src/usbd_ctlreq.c **** 
 1233              		.loc 1 219 1 is_stmt 0 view .LVU354
 1234 001a 0020     		movs	r0, #0
 1235 001c 38BD     		pop	{r3, r4, r5, pc}
 1236              	.LVL144:
 1237              	.L107:
 186:Middlewares/ST/STM32_USB_Device_Library/Core/Src/usbd_ctlreq.c ****     {
 1238              		.loc 1 186 5 is_stmt 1 view .LVU355
 186:Middlewares/ST/STM32_USB_Device_Library/Core/Src/usbd_ctlreq.c ****     {
 1239              		.loc 1 186 17 is_stmt 0 view .LVU356
 1240 001e 95F87432 		ldrb	r3, [r5, #628]	@ zero_extendqisi2
 1241 0022 013B     		subs	r3, r3, #1
ARM GAS  /tmp/ccIuvqu8.s 			page 43


 1242 0024 022B     		cmp	r3, #2
 1243 0026 16D8     		bhi	.L109
 192:Middlewares/ST/STM32_USB_Device_Library/Core/Src/usbd_ctlreq.c ****       {
 1244              		.loc 1 192 7 is_stmt 1 view .LVU357
 192:Middlewares/ST/STM32_USB_Device_Library/Core/Src/usbd_ctlreq.c ****       {
 1245              		.loc 1 192 11 is_stmt 0 view .LVU358
 1246 0028 2379     		ldrb	r3, [r4, #4]	@ zero_extendqisi2
 192:Middlewares/ST/STM32_USB_Device_Library/Core/Src/usbd_ctlreq.c ****       {
 1247              		.loc 1 192 10 view .LVU359
 1248 002a 032B     		cmp	r3, #3
 1249 002c 0ED8     		bhi	.L110
 194:Middlewares/ST/STM32_USB_Device_Library/Core/Src/usbd_ctlreq.c **** 
 1250              		.loc 1 194 9 is_stmt 1 view .LVU360
 194:Middlewares/ST/STM32_USB_Device_Library/Core/Src/usbd_ctlreq.c **** 
 1251              		.loc 1 194 39 is_stmt 0 view .LVU361
 1252 002e D5F88C32 		ldr	r3, [r5, #652]
 194:Middlewares/ST/STM32_USB_Device_Library/Core/Src/usbd_ctlreq.c **** 
 1253              		.loc 1 194 47 view .LVU362
 1254 0032 9B68     		ldr	r3, [r3, #8]
 194:Middlewares/ST/STM32_USB_Device_Library/Core/Src/usbd_ctlreq.c **** 
 1255              		.loc 1 194 35 view .LVU363
 1256 0034 2146     		mov	r1, r4
 1257              	.LVL145:
 194:Middlewares/ST/STM32_USB_Device_Library/Core/Src/usbd_ctlreq.c **** 
 1258              		.loc 1 194 35 view .LVU364
 1259 0036 2846     		mov	r0, r5
 1260              	.LVL146:
 194:Middlewares/ST/STM32_USB_Device_Library/Core/Src/usbd_ctlreq.c **** 
 1261              		.loc 1 194 35 view .LVU365
 1262 0038 9847     		blx	r3
 1263              	.LVL147:
 196:Middlewares/ST/STM32_USB_Device_Library/Core/Src/usbd_ctlreq.c ****         {
 1264              		.loc 1 196 9 is_stmt 1 view .LVU366
 196:Middlewares/ST/STM32_USB_Device_Library/Core/Src/usbd_ctlreq.c ****         {
 1265              		.loc 1 196 17 is_stmt 0 view .LVU367
 1266 003a E388     		ldrh	r3, [r4, #6]
 196:Middlewares/ST/STM32_USB_Device_Library/Core/Src/usbd_ctlreq.c ****         {
 1267              		.loc 1 196 12 view .LVU368
 1268 003c 002B     		cmp	r3, #0
 1269 003e ECD1     		bne	.L111
 196:Middlewares/ST/STM32_USB_Device_Library/Core/Src/usbd_ctlreq.c ****         {
 1270              		.loc 1 196 34 discriminator 1 view .LVU369
 1271 0040 0028     		cmp	r0, #0
 1272 0042 EAD1     		bne	.L111
 198:Middlewares/ST/STM32_USB_Device_Library/Core/Src/usbd_ctlreq.c ****         }
 1273              		.loc 1 198 11 is_stmt 1 view .LVU370
 1274 0044 2846     		mov	r0, r5
 1275              	.LVL148:
 198:Middlewares/ST/STM32_USB_Device_Library/Core/Src/usbd_ctlreq.c ****         }
 1276              		.loc 1 198 11 is_stmt 0 view .LVU371
 1277 0046 FFF7FEFF 		bl	USBD_CtlSendStatus
 1278              	.LVL149:
 1279 004a E6E7     		b	.L111
 1280              	.LVL150:
 1281              	.L110:
 203:Middlewares/ST/STM32_USB_Device_Library/Core/Src/usbd_ctlreq.c ****       }
 1282              		.loc 1 203 9 is_stmt 1 view .LVU372
ARM GAS  /tmp/ccIuvqu8.s 			page 44


 1283 004c 2146     		mov	r1, r4
 1284              	.LVL151:
 203:Middlewares/ST/STM32_USB_Device_Library/Core/Src/usbd_ctlreq.c ****       }
 1285              		.loc 1 203 9 is_stmt 0 view .LVU373
 1286 004e 2846     		mov	r0, r5
 1287              	.LVL152:
 203:Middlewares/ST/STM32_USB_Device_Library/Core/Src/usbd_ctlreq.c ****       }
 1288              		.loc 1 203 9 view .LVU374
 1289 0050 FFF7FEFF 		bl	USBD_CtlError
 1290              	.LVL153:
 1291 0054 E1E7     		b	.L111
 1292              	.LVL154:
 1293              	.L109:
 208:Middlewares/ST/STM32_USB_Device_Library/Core/Src/usbd_ctlreq.c ****       break;
 1294              		.loc 1 208 7 is_stmt 1 view .LVU375
 1295 0056 2146     		mov	r1, r4
 1296              	.LVL155:
 208:Middlewares/ST/STM32_USB_Device_Library/Core/Src/usbd_ctlreq.c ****       break;
 1297              		.loc 1 208 7 is_stmt 0 view .LVU376
 1298 0058 2846     		mov	r0, r5
 1299              	.LVL156:
 208:Middlewares/ST/STM32_USB_Device_Library/Core/Src/usbd_ctlreq.c ****       break;
 1300              		.loc 1 208 7 view .LVU377
 1301 005a FFF7FEFF 		bl	USBD_CtlError
 1302              	.LVL157:
 209:Middlewares/ST/STM32_USB_Device_Library/Core/Src/usbd_ctlreq.c ****     }
 1303              		.loc 1 209 7 is_stmt 1 view .LVU378
 1304 005e DCE7     		b	.L111
 1305              		.cfi_endproc
 1306              	.LFE134:
 1308              		.section	.text.USBD_StdEPReq,"ax",%progbits
 1309              		.align	1
 1310              		.global	USBD_StdEPReq
 1311              		.syntax unified
 1312              		.thumb
 1313              		.thumb_func
 1314              		.fpu fpv4-sp-d16
 1316              	USBD_StdEPReq:
 1317              	.LVL158:
 1318              	.LFB135:
 229:Middlewares/ST/STM32_USB_Device_Library/Core/Src/usbd_ctlreq.c **** 
 1319              		.loc 1 229 1 view -0
 1320              		.cfi_startproc
 1321              		@ args = 0, pretend = 0, frame = 0
 1322              		@ frame_needed = 0, uses_anonymous_args = 0
 229:Middlewares/ST/STM32_USB_Device_Library/Core/Src/usbd_ctlreq.c **** 
 1323              		.loc 1 229 1 is_stmt 0 view .LVU380
 1324 0000 70B5     		push	{r4, r5, r6, lr}
 1325              	.LCFI13:
 1326              		.cfi_def_cfa_offset 16
 1327              		.cfi_offset 4, -16
 1328              		.cfi_offset 5, -12
 1329              		.cfi_offset 6, -8
 1330              		.cfi_offset 14, -4
 1331 0002 0546     		mov	r5, r0
 231:Middlewares/ST/STM32_USB_Device_Library/Core/Src/usbd_ctlreq.c ****   USBD_StatusTypeDef ret = USBD_OK;
 1332              		.loc 1 231 3 is_stmt 1 view .LVU381
ARM GAS  /tmp/ccIuvqu8.s 			page 45


 232:Middlewares/ST/STM32_USB_Device_Library/Core/Src/usbd_ctlreq.c ****   USBD_EndpointTypeDef   *pep;
 1333              		.loc 1 232 3 view .LVU382
 1334              	.LVL159:
 233:Middlewares/ST/STM32_USB_Device_Library/Core/Src/usbd_ctlreq.c ****   ep_addr  = LOBYTE(req->wIndex);
 1335              		.loc 1 233 3 view .LVU383
 234:Middlewares/ST/STM32_USB_Device_Library/Core/Src/usbd_ctlreq.c **** 
 1336              		.loc 1 234 3 view .LVU384
 234:Middlewares/ST/STM32_USB_Device_Library/Core/Src/usbd_ctlreq.c **** 
 1337              		.loc 1 234 14 is_stmt 0 view .LVU385
 1338 0004 8B88     		ldrh	r3, [r1, #4]
 1339              	.LVL160:
 236:Middlewares/ST/STM32_USB_Device_Library/Core/Src/usbd_ctlreq.c ****   {
 1340              		.loc 1 236 3 is_stmt 1 view .LVU386
 236:Middlewares/ST/STM32_USB_Device_Library/Core/Src/usbd_ctlreq.c ****   {
 1341              		.loc 1 236 14 is_stmt 0 view .LVU387
 1342 0006 0C78     		ldrb	r4, [r1]	@ zero_extendqisi2
 1343 0008 04F06004 		and	r4, r4, #96
 236:Middlewares/ST/STM32_USB_Device_Library/Core/Src/usbd_ctlreq.c ****   {
 1344              		.loc 1 236 3 view .LVU388
 1345 000c 202C     		cmp	r4, #32
 1346 000e 07D0     		beq	.L114
 1347 0010 DAB2     		uxtb	r2, r3
 1348 0012 402C     		cmp	r4, #64
 1349 0014 04D0     		beq	.L114
 1350 0016 5CB1     		cbz	r4, .L153
 390:Middlewares/ST/STM32_USB_Device_Library/Core/Src/usbd_ctlreq.c ****     break;
 1351              		.loc 1 390 5 is_stmt 1 view .LVU389
 1352 0018 FFF7FEFF 		bl	USBD_CtlError
 1353              	.LVL161:
 391:Middlewares/ST/STM32_USB_Device_Library/Core/Src/usbd_ctlreq.c ****   }
 1354              		.loc 1 391 5 view .LVU390
 394:Middlewares/ST/STM32_USB_Device_Library/Core/Src/usbd_ctlreq.c **** }
 1355              		.loc 1 394 10 is_stmt 0 view .LVU391
 1356 001c 0024     		movs	r4, #0
 391:Middlewares/ST/STM32_USB_Device_Library/Core/Src/usbd_ctlreq.c ****   }
 1357              		.loc 1 391 5 view .LVU392
 1358 001e 05E0     		b	.L117
 1359              	.LVL162:
 1360              	.L114:
 241:Middlewares/ST/STM32_USB_Device_Library/Core/Src/usbd_ctlreq.c ****     break;
 1361              		.loc 1 241 5 is_stmt 1 view .LVU393
 241:Middlewares/ST/STM32_USB_Device_Library/Core/Src/usbd_ctlreq.c ****     break;
 1362              		.loc 1 241 9 is_stmt 0 view .LVU394
 1363 0020 D5F88C32 		ldr	r3, [r5, #652]
 1364              	.LVL163:
 241:Middlewares/ST/STM32_USB_Device_Library/Core/Src/usbd_ctlreq.c ****     break;
 1365              		.loc 1 241 17 view .LVU395
 1366 0024 9B68     		ldr	r3, [r3, #8]
 241:Middlewares/ST/STM32_USB_Device_Library/Core/Src/usbd_ctlreq.c ****     break;
 1367              		.loc 1 241 5 view .LVU396
 1368 0026 2846     		mov	r0, r5
 1369              	.LVL164:
 241:Middlewares/ST/STM32_USB_Device_Library/Core/Src/usbd_ctlreq.c ****     break;
 1370              		.loc 1 241 5 view .LVU397
 1371 0028 9847     		blx	r3
 1372              	.LVL165:
 242:Middlewares/ST/STM32_USB_Device_Library/Core/Src/usbd_ctlreq.c **** 
ARM GAS  /tmp/ccIuvqu8.s 			page 46


 1373              		.loc 1 242 5 is_stmt 1 view .LVU398
 394:Middlewares/ST/STM32_USB_Device_Library/Core/Src/usbd_ctlreq.c **** }
 1374              		.loc 1 394 10 is_stmt 0 view .LVU399
 1375 002a 0024     		movs	r4, #0
 1376              	.LVL166:
 1377              	.L117:
 395:Middlewares/ST/STM32_USB_Device_Library/Core/Src/usbd_ctlreq.c **** /**
 1378              		.loc 1 395 1 view .LVU400
 1379 002c 2046     		mov	r0, r4
 1380 002e 70BD     		pop	{r4, r5, r6, pc}
 1381              	.LVL167:
 1382              	.L153:
 246:Middlewares/ST/STM32_USB_Device_Library/Core/Src/usbd_ctlreq.c ****     {
 1383              		.loc 1 246 5 is_stmt 1 view .LVU401
 246:Middlewares/ST/STM32_USB_Device_Library/Core/Src/usbd_ctlreq.c ****     {
 1384              		.loc 1 246 8 is_stmt 0 view .LVU402
 1385 0030 202C     		cmp	r4, #32
 1386 0032 09D0     		beq	.L154
 253:Middlewares/ST/STM32_USB_Device_Library/Core/Src/usbd_ctlreq.c ****     {
 1387              		.loc 1 253 5 is_stmt 1 view .LVU403
 253:Middlewares/ST/STM32_USB_Device_Library/Core/Src/usbd_ctlreq.c ****     {
 1388              		.loc 1 253 16 is_stmt 0 view .LVU404
 1389 0034 4E78     		ldrb	r6, [r1, #1]	@ zero_extendqisi2
 1390 0036 012E     		cmp	r6, #1
 1391 0038 33D0     		beq	.L119
 1392 003a 032E     		cmp	r6, #3
 1393 003c 0AD0     		beq	.L120
 1394 003e 002E     		cmp	r6, #0
 1395 0040 55D0     		beq	.L155
 384:Middlewares/ST/STM32_USB_Device_Library/Core/Src/usbd_ctlreq.c ****       break;
 1396              		.loc 1 384 7 is_stmt 1 view .LVU405
 1397 0042 FFF7FEFF 		bl	USBD_CtlError
 1398              	.LVL168:
 385:Middlewares/ST/STM32_USB_Device_Library/Core/Src/usbd_ctlreq.c ****     }
 1399              		.loc 1 385 7 view .LVU406
 1400 0046 F1E7     		b	.L117
 1401              	.LVL169:
 1402              	.L154:
 248:Middlewares/ST/STM32_USB_Device_Library/Core/Src/usbd_ctlreq.c **** 
 1403              		.loc 1 248 7 view .LVU407
 248:Middlewares/ST/STM32_USB_Device_Library/Core/Src/usbd_ctlreq.c **** 
 1404              		.loc 1 248 37 is_stmt 0 view .LVU408
 1405 0048 D0F88C32 		ldr	r3, [r0, #652]
 1406              	.LVL170:
 248:Middlewares/ST/STM32_USB_Device_Library/Core/Src/usbd_ctlreq.c **** 
 1407              		.loc 1 248 45 view .LVU409
 1408 004c 9B68     		ldr	r3, [r3, #8]
 248:Middlewares/ST/STM32_USB_Device_Library/Core/Src/usbd_ctlreq.c **** 
 1409              		.loc 1 248 33 view .LVU410
 1410 004e 9847     		blx	r3
 1411              	.LVL171:
 248:Middlewares/ST/STM32_USB_Device_Library/Core/Src/usbd_ctlreq.c **** 
 1412              		.loc 1 248 33 view .LVU411
 1413 0050 0446     		mov	r4, r0
 1414              	.LVL172:
 250:Middlewares/ST/STM32_USB_Device_Library/Core/Src/usbd_ctlreq.c ****     }
 1415              		.loc 1 250 7 is_stmt 1 view .LVU412
ARM GAS  /tmp/ccIuvqu8.s 			page 47


 250:Middlewares/ST/STM32_USB_Device_Library/Core/Src/usbd_ctlreq.c ****     }
 1416              		.loc 1 250 14 is_stmt 0 view .LVU413
 1417 0052 EBE7     		b	.L117
 1418              	.LVL173:
 1419              	.L120:
 258:Middlewares/ST/STM32_USB_Device_Library/Core/Src/usbd_ctlreq.c ****       {
 1420              		.loc 1 258 7 is_stmt 1 discriminator 3 view .LVU414
 258:Middlewares/ST/STM32_USB_Device_Library/Core/Src/usbd_ctlreq.c ****       {
 1421              		.loc 1 258 19 is_stmt 0 discriminator 3 view .LVU415
 1422 0054 90F87432 		ldrb	r3, [r0, #628]	@ zero_extendqisi2
 1423              	.LVL174:
 258:Middlewares/ST/STM32_USB_Device_Library/Core/Src/usbd_ctlreq.c ****       {
 1424              		.loc 1 258 19 discriminator 3 view .LVU416
 1425 0058 022B     		cmp	r3, #2
 1426 005a 04D0     		beq	.L123
 1427 005c 032B     		cmp	r3, #3
 1428 005e 11D0     		beq	.L124
 285:Middlewares/ST/STM32_USB_Device_Library/Core/Src/usbd_ctlreq.c ****         break;
 1429              		.loc 1 285 9 is_stmt 1 view .LVU417
 1430 0060 FFF7FEFF 		bl	USBD_CtlError
 1431              	.LVL175:
 286:Middlewares/ST/STM32_USB_Device_Library/Core/Src/usbd_ctlreq.c ****       }
 1432              		.loc 1 286 9 view .LVU418
 1433 0064 E2E7     		b	.L117
 1434              	.LVL176:
 1435              	.L123:
 261:Middlewares/ST/STM32_USB_Device_Library/Core/Src/usbd_ctlreq.c ****         {
 1436              		.loc 1 261 9 view .LVU419
 261:Middlewares/ST/STM32_USB_Device_Library/Core/Src/usbd_ctlreq.c ****         {
 1437              		.loc 1 261 12 is_stmt 0 view .LVU420
 1438 0066 0AB1     		cbz	r2, .L126
 261:Middlewares/ST/STM32_USB_Device_Library/Core/Src/usbd_ctlreq.c ****         {
 1439              		.loc 1 261 32 discriminator 1 view .LVU421
 1440 0068 802A     		cmp	r2, #128
 1441 006a 03D1     		bne	.L156
 1442              	.L126:
 268:Middlewares/ST/STM32_USB_Device_Library/Core/Src/usbd_ctlreq.c ****         }
 1443              		.loc 1 268 11 is_stmt 1 view .LVU422
 1444 006c 2846     		mov	r0, r5
 1445              	.LVL177:
 268:Middlewares/ST/STM32_USB_Device_Library/Core/Src/usbd_ctlreq.c ****         }
 1446              		.loc 1 268 11 is_stmt 0 view .LVU423
 1447 006e FFF7FEFF 		bl	USBD_CtlError
 1448              	.LVL178:
 268:Middlewares/ST/STM32_USB_Device_Library/Core/Src/usbd_ctlreq.c ****         }
 1449              		.loc 1 268 11 view .LVU424
 1450 0072 DBE7     		b	.L117
 1451              	.LVL179:
 1452              	.L156:
 263:Middlewares/ST/STM32_USB_Device_Library/Core/Src/usbd_ctlreq.c ****           USBD_LL_StallEP(pdev, 0x80U);
 1453              		.loc 1 263 11 is_stmt 1 view .LVU425
 1454 0074 1146     		mov	r1, r2
 1455              	.LVL180:
 263:Middlewares/ST/STM32_USB_Device_Library/Core/Src/usbd_ctlreq.c ****           USBD_LL_StallEP(pdev, 0x80U);
 1456              		.loc 1 263 11 is_stmt 0 view .LVU426
 1457 0076 FFF7FEFF 		bl	USBD_LL_StallEP
 1458              	.LVL181:
ARM GAS  /tmp/ccIuvqu8.s 			page 48


 264:Middlewares/ST/STM32_USB_Device_Library/Core/Src/usbd_ctlreq.c ****         }
 1459              		.loc 1 264 11 is_stmt 1 view .LVU427
 1460 007a 8021     		movs	r1, #128
 1461 007c 2846     		mov	r0, r5
 1462 007e FFF7FEFF 		bl	USBD_LL_StallEP
 1463              	.LVL182:
 1464 0082 D3E7     		b	.L117
 1465              	.LVL183:
 1466              	.L124:
 273:Middlewares/ST/STM32_USB_Device_Library/Core/Src/usbd_ctlreq.c ****         {
 1467              		.loc 1 273 9 view .LVU428
 273:Middlewares/ST/STM32_USB_Device_Library/Core/Src/usbd_ctlreq.c ****         {
 1468              		.loc 1 273 16 is_stmt 0 view .LVU429
 1469 0084 4B88     		ldrh	r3, [r1, #2]
 273:Middlewares/ST/STM32_USB_Device_Library/Core/Src/usbd_ctlreq.c ****         {
 1470              		.loc 1 273 12 view .LVU430
 1471 0086 23B9     		cbnz	r3, .L127
 275:Middlewares/ST/STM32_USB_Device_Library/Core/Src/usbd_ctlreq.c ****           {
 1472              		.loc 1 275 11 is_stmt 1 view .LVU431
 275:Middlewares/ST/STM32_USB_Device_Library/Core/Src/usbd_ctlreq.c ****           {
 1473              		.loc 1 275 14 is_stmt 0 view .LVU432
 1474 0088 1AB1     		cbz	r2, .L127
 275:Middlewares/ST/STM32_USB_Device_Library/Core/Src/usbd_ctlreq.c ****           {
 1475              		.loc 1 275 34 discriminator 1 view .LVU433
 1476 008a 802A     		cmp	r2, #128
 1477 008c 01D0     		beq	.L127
 275:Middlewares/ST/STM32_USB_Device_Library/Core/Src/usbd_ctlreq.c ****           {
 1478              		.loc 1 275 63 discriminator 2 view .LVU434
 1479 008e CB88     		ldrh	r3, [r1, #6]
 275:Middlewares/ST/STM32_USB_Device_Library/Core/Src/usbd_ctlreq.c ****           {
 1480              		.loc 1 275 56 discriminator 2 view .LVU435
 1481 0090 1BB1     		cbz	r3, .L157
 1482              	.LVL184:
 1483              	.L127:
 280:Middlewares/ST/STM32_USB_Device_Library/Core/Src/usbd_ctlreq.c **** 
 1484              		.loc 1 280 9 is_stmt 1 view .LVU436
 1485 0092 2846     		mov	r0, r5
 1486 0094 FFF7FEFF 		bl	USBD_CtlSendStatus
 1487              	.LVL185:
 282:Middlewares/ST/STM32_USB_Device_Library/Core/Src/usbd_ctlreq.c **** 
 1488              		.loc 1 282 9 view .LVU437
 1489 0098 C8E7     		b	.L117
 1490              	.LVL186:
 1491              	.L157:
 277:Middlewares/ST/STM32_USB_Device_Library/Core/Src/usbd_ctlreq.c ****           }
 1492              		.loc 1 277 13 view .LVU438
 1493 009a 1146     		mov	r1, r2
 1494              	.LVL187:
 277:Middlewares/ST/STM32_USB_Device_Library/Core/Src/usbd_ctlreq.c ****           }
 1495              		.loc 1 277 13 is_stmt 0 view .LVU439
 1496 009c FFF7FEFF 		bl	USBD_LL_StallEP
 1497              	.LVL188:
 277:Middlewares/ST/STM32_USB_Device_Library/Core/Src/usbd_ctlreq.c ****           }
 1498              		.loc 1 277 13 view .LVU440
 1499 00a0 F7E7     		b	.L127
 1500              	.LVL189:
 1501              	.L119:
ARM GAS  /tmp/ccIuvqu8.s 			page 49


 292:Middlewares/ST/STM32_USB_Device_Library/Core/Src/usbd_ctlreq.c ****       {
 1502              		.loc 1 292 7 is_stmt 1 discriminator 2 view .LVU441
 292:Middlewares/ST/STM32_USB_Device_Library/Core/Src/usbd_ctlreq.c ****       {
 1503              		.loc 1 292 19 is_stmt 0 discriminator 2 view .LVU442
 1504 00a2 90F87432 		ldrb	r3, [r0, #628]	@ zero_extendqisi2
 1505              	.LVL190:
 292:Middlewares/ST/STM32_USB_Device_Library/Core/Src/usbd_ctlreq.c ****       {
 1506              		.loc 1 292 19 discriminator 2 view .LVU443
 1507 00a6 022B     		cmp	r3, #2
 1508 00a8 04D0     		beq	.L128
 1509 00aa 032B     		cmp	r3, #3
 1510 00ac 11D0     		beq	.L129
 318:Middlewares/ST/STM32_USB_Device_Library/Core/Src/usbd_ctlreq.c ****         break;
 1511              		.loc 1 318 9 is_stmt 1 view .LVU444
 1512 00ae FFF7FEFF 		bl	USBD_CtlError
 1513              	.LVL191:
 319:Middlewares/ST/STM32_USB_Device_Library/Core/Src/usbd_ctlreq.c ****       }
 1514              		.loc 1 319 9 view .LVU445
 1515 00b2 BBE7     		b	.L117
 1516              	.LVL192:
 1517              	.L128:
 295:Middlewares/ST/STM32_USB_Device_Library/Core/Src/usbd_ctlreq.c ****         {
 1518              		.loc 1 295 9 view .LVU446
 295:Middlewares/ST/STM32_USB_Device_Library/Core/Src/usbd_ctlreq.c ****         {
 1519              		.loc 1 295 12 is_stmt 0 view .LVU447
 1520 00b4 0AB1     		cbz	r2, .L131
 295:Middlewares/ST/STM32_USB_Device_Library/Core/Src/usbd_ctlreq.c ****         {
 1521              		.loc 1 295 32 discriminator 1 view .LVU448
 1522 00b6 802A     		cmp	r2, #128
 1523 00b8 03D1     		bne	.L158
 1524              	.L131:
 302:Middlewares/ST/STM32_USB_Device_Library/Core/Src/usbd_ctlreq.c ****         }
 1525              		.loc 1 302 11 is_stmt 1 view .LVU449
 1526 00ba 2846     		mov	r0, r5
 1527              	.LVL193:
 302:Middlewares/ST/STM32_USB_Device_Library/Core/Src/usbd_ctlreq.c ****         }
 1528              		.loc 1 302 11 is_stmt 0 view .LVU450
 1529 00bc FFF7FEFF 		bl	USBD_CtlError
 1530              	.LVL194:
 302:Middlewares/ST/STM32_USB_Device_Library/Core/Src/usbd_ctlreq.c ****         }
 1531              		.loc 1 302 11 view .LVU451
 1532 00c0 B4E7     		b	.L117
 1533              	.LVL195:
 1534              	.L158:
 297:Middlewares/ST/STM32_USB_Device_Library/Core/Src/usbd_ctlreq.c ****           USBD_LL_StallEP(pdev, 0x80U);
 1535              		.loc 1 297 11 is_stmt 1 view .LVU452
 1536 00c2 1146     		mov	r1, r2
 1537              	.LVL196:
 297:Middlewares/ST/STM32_USB_Device_Library/Core/Src/usbd_ctlreq.c ****           USBD_LL_StallEP(pdev, 0x80U);
 1538              		.loc 1 297 11 is_stmt 0 view .LVU453
 1539 00c4 FFF7FEFF 		bl	USBD_LL_StallEP
 1540              	.LVL197:
 298:Middlewares/ST/STM32_USB_Device_Library/Core/Src/usbd_ctlreq.c ****         }
 1541              		.loc 1 298 11 is_stmt 1 view .LVU454
 1542 00c8 8021     		movs	r1, #128
 1543 00ca 2846     		mov	r0, r5
 1544 00cc FFF7FEFF 		bl	USBD_LL_StallEP
ARM GAS  /tmp/ccIuvqu8.s 			page 50


 1545              	.LVL198:
 1546 00d0 ACE7     		b	.L117
 1547              	.LVL199:
 1548              	.L129:
 307:Middlewares/ST/STM32_USB_Device_Library/Core/Src/usbd_ctlreq.c ****         {
 1549              		.loc 1 307 9 view .LVU455
 307:Middlewares/ST/STM32_USB_Device_Library/Core/Src/usbd_ctlreq.c ****         {
 1550              		.loc 1 307 16 is_stmt 0 view .LVU456
 1551 00d2 4B88     		ldrh	r3, [r1, #2]
 307:Middlewares/ST/STM32_USB_Device_Library/Core/Src/usbd_ctlreq.c ****         {
 1552              		.loc 1 307 12 view .LVU457
 1553 00d4 002B     		cmp	r3, #0
 1554 00d6 A9D1     		bne	.L117
 309:Middlewares/ST/STM32_USB_Device_Library/Core/Src/usbd_ctlreq.c ****           {
 1555              		.loc 1 309 11 is_stmt 1 view .LVU458
 309:Middlewares/ST/STM32_USB_Device_Library/Core/Src/usbd_ctlreq.c ****           {
 1556              		.loc 1 309 14 is_stmt 0 view .LVU459
 1557 00d8 12F07F0F 		tst	r2, #127
 1558 00dc 03D1     		bne	.L159
 1559              	.LVL200:
 1560              	.L132:
 313:Middlewares/ST/STM32_USB_Device_Library/Core/Src/usbd_ctlreq.c ****         }
 1561              		.loc 1 313 11 is_stmt 1 view .LVU460
 1562 00de 2846     		mov	r0, r5
 1563 00e0 FFF7FEFF 		bl	USBD_CtlSendStatus
 1564              	.LVL201:
 1565 00e4 A2E7     		b	.L117
 1566              	.LVL202:
 1567              	.L159:
 311:Middlewares/ST/STM32_USB_Device_Library/Core/Src/usbd_ctlreq.c ****           }
 1568              		.loc 1 311 13 view .LVU461
 1569 00e6 1146     		mov	r1, r2
 1570              	.LVL203:
 311:Middlewares/ST/STM32_USB_Device_Library/Core/Src/usbd_ctlreq.c ****           }
 1571              		.loc 1 311 13 is_stmt 0 view .LVU462
 1572 00e8 FFF7FEFF 		bl	USBD_LL_ClearStallEP
 1573              	.LVL204:
 311:Middlewares/ST/STM32_USB_Device_Library/Core/Src/usbd_ctlreq.c ****           }
 1574              		.loc 1 311 13 view .LVU463
 1575 00ec F7E7     		b	.L132
 1576              	.LVL205:
 1577              	.L155:
 324:Middlewares/ST/STM32_USB_Device_Library/Core/Src/usbd_ctlreq.c ****       {
 1578              		.loc 1 324 7 is_stmt 1 discriminator 1 view .LVU464
 324:Middlewares/ST/STM32_USB_Device_Library/Core/Src/usbd_ctlreq.c ****       {
 1579              		.loc 1 324 19 is_stmt 0 discriminator 1 view .LVU465
 1580 00ee 90F87402 		ldrb	r0, [r0, #628]	@ zero_extendqisi2
 1581              	.LVL206:
 324:Middlewares/ST/STM32_USB_Device_Library/Core/Src/usbd_ctlreq.c ****       {
 1582              		.loc 1 324 19 discriminator 1 view .LVU466
 1583 00f2 0228     		cmp	r0, #2
 1584 00f4 06D0     		beq	.L133
 1585 00f6 0328     		cmp	r0, #3
 1586 00f8 28D0     		beq	.L134
 378:Middlewares/ST/STM32_USB_Device_Library/Core/Src/usbd_ctlreq.c ****         break;
 1587              		.loc 1 378 9 is_stmt 1 view .LVU467
 1588 00fa 2846     		mov	r0, r5
ARM GAS  /tmp/ccIuvqu8.s 			page 51


 1589 00fc FFF7FEFF 		bl	USBD_CtlError
 1590              	.LVL207:
 379:Middlewares/ST/STM32_USB_Device_Library/Core/Src/usbd_ctlreq.c ****       }
 1591              		.loc 1 379 9 view .LVU468
 394:Middlewares/ST/STM32_USB_Device_Library/Core/Src/usbd_ctlreq.c **** }
 1592              		.loc 1 394 10 is_stmt 0 view .LVU469
 1593 0100 3446     		mov	r4, r6
 379:Middlewares/ST/STM32_USB_Device_Library/Core/Src/usbd_ctlreq.c ****       }
 1594              		.loc 1 379 9 view .LVU470
 1595 0102 93E7     		b	.L117
 1596              	.LVL208:
 1597              	.L133:
 327:Middlewares/ST/STM32_USB_Device_Library/Core/Src/usbd_ctlreq.c ****         {
 1598              		.loc 1 327 9 is_stmt 1 view .LVU471
 327:Middlewares/ST/STM32_USB_Device_Library/Core/Src/usbd_ctlreq.c ****         {
 1599              		.loc 1 327 12 is_stmt 0 view .LVU472
 1600 0104 0AB1     		cbz	r2, .L136
 327:Middlewares/ST/STM32_USB_Device_Library/Core/Src/usbd_ctlreq.c ****         {
 1601              		.loc 1 327 32 discriminator 1 view .LVU473
 1602 0106 802A     		cmp	r2, #128
 1603 0108 12D1     		bne	.L160
 1604              	.L136:
 332:Middlewares/ST/STM32_USB_Device_Library/Core/Src/usbd_ctlreq.c ****           &pdev->ep_out[ep_addr & 0x7FU];
 1605              		.loc 1 332 9 is_stmt 1 view .LVU474
 332:Middlewares/ST/STM32_USB_Device_Library/Core/Src/usbd_ctlreq.c ****           &pdev->ep_out[ep_addr & 0x7FU];
 1606              		.loc 1 332 75 is_stmt 0 view .LVU475
 1607 010a 13F0800F 		tst	r3, #128
 1608 010e 14D1     		bne	.L161
 333:Middlewares/ST/STM32_USB_Device_Library/Core/Src/usbd_ctlreq.c **** 
 1609              		.loc 1 333 33 discriminator 2 view .LVU476
 1610 0110 02F07F02 		and	r2, r2, #127
 332:Middlewares/ST/STM32_USB_Device_Library/Core/Src/usbd_ctlreq.c ****           &pdev->ep_out[ep_addr & 0x7FU];
 1611              		.loc 1 332 75 discriminator 2 view .LVU477
 1612 0114 02EB8202 		add	r2, r2, r2, lsl #2
 1613 0118 9100     		lsls	r1, r2, #2
 1614              	.LVL209:
 332:Middlewares/ST/STM32_USB_Device_Library/Core/Src/usbd_ctlreq.c ****           &pdev->ep_out[ep_addr & 0x7FU];
 1615              		.loc 1 332 75 discriminator 2 view .LVU478
 1616 011a 01F5A071 		add	r1, r1, #320
 1617 011e 2944     		add	r1, r1, r5
 1618              	.L138:
 1619              	.LVL210:
 335:Middlewares/ST/STM32_USB_Device_Library/Core/Src/usbd_ctlreq.c **** 
 1620              		.loc 1 335 11 is_stmt 1 discriminator 4 view .LVU479
 335:Middlewares/ST/STM32_USB_Device_Library/Core/Src/usbd_ctlreq.c **** 
 1621              		.loc 1 335 23 is_stmt 0 discriminator 4 view .LVU480
 1622 0120 0023     		movs	r3, #0
 1623              	.LVL211:
 335:Middlewares/ST/STM32_USB_Device_Library/Core/Src/usbd_ctlreq.c **** 
 1624              		.loc 1 335 23 discriminator 4 view .LVU481
 1625 0122 0B60     		str	r3, [r1]
 1626              	.LVL212:
 337:Middlewares/ST/STM32_USB_Device_Library/Core/Src/usbd_ctlreq.c ****           break;
 1627              		.loc 1 337 11 is_stmt 1 discriminator 4 view .LVU482
 1628 0124 0222     		movs	r2, #2
 1629 0126 2846     		mov	r0, r5
 1630 0128 FFF7FEFF 		bl	USBD_CtlSendData
ARM GAS  /tmp/ccIuvqu8.s 			page 52


 1631              	.LVL213:
 338:Middlewares/ST/STM32_USB_Device_Library/Core/Src/usbd_ctlreq.c **** 
 1632              		.loc 1 338 11 discriminator 4 view .LVU483
 394:Middlewares/ST/STM32_USB_Device_Library/Core/Src/usbd_ctlreq.c **** }
 1633              		.loc 1 394 10 is_stmt 0 discriminator 4 view .LVU484
 1634 012c 3446     		mov	r4, r6
 338:Middlewares/ST/STM32_USB_Device_Library/Core/Src/usbd_ctlreq.c **** 
 1635              		.loc 1 338 11 discriminator 4 view .LVU485
 1636 012e 7DE7     		b	.L117
 1637              	.LVL214:
 1638              	.L160:
 329:Middlewares/ST/STM32_USB_Device_Library/Core/Src/usbd_ctlreq.c ****           break;
 1639              		.loc 1 329 11 is_stmt 1 view .LVU486
 1640 0130 2846     		mov	r0, r5
 1641 0132 FFF7FEFF 		bl	USBD_CtlError
 1642              	.LVL215:
 330:Middlewares/ST/STM32_USB_Device_Library/Core/Src/usbd_ctlreq.c ****         }
 1643              		.loc 1 330 11 view .LVU487
 394:Middlewares/ST/STM32_USB_Device_Library/Core/Src/usbd_ctlreq.c **** }
 1644              		.loc 1 394 10 is_stmt 0 view .LVU488
 1645 0136 3446     		mov	r4, r6
 330:Middlewares/ST/STM32_USB_Device_Library/Core/Src/usbd_ctlreq.c ****         }
 1646              		.loc 1 330 11 view .LVU489
 1647 0138 78E7     		b	.L117
 1648              	.LVL216:
 1649              	.L161:
 332:Middlewares/ST/STM32_USB_Device_Library/Core/Src/usbd_ctlreq.c ****           &pdev->ep_out[ep_addr & 0x7FU];
 1650              		.loc 1 332 67 discriminator 1 view .LVU490
 1651 013a 02F07F02 		and	r2, r2, #127
 332:Middlewares/ST/STM32_USB_Device_Library/Core/Src/usbd_ctlreq.c ****           &pdev->ep_out[ep_addr & 0x7FU];
 1652              		.loc 1 332 75 discriminator 1 view .LVU491
 1653 013e 02EB8202 		add	r2, r2, r2, lsl #2
 1654 0142 9100     		lsls	r1, r2, #2
 1655              	.LVL217:
 332:Middlewares/ST/STM32_USB_Device_Library/Core/Src/usbd_ctlreq.c ****           &pdev->ep_out[ep_addr & 0x7FU];
 1656              		.loc 1 332 75 discriminator 1 view .LVU492
 1657 0144 1031     		adds	r1, r1, #16
 1658 0146 2944     		add	r1, r1, r5
 1659 0148 0431     		adds	r1, r1, #4
 1660 014a E9E7     		b	.L138
 1661              	.LVL218:
 1662              	.L134:
 341:Middlewares/ST/STM32_USB_Device_Library/Core/Src/usbd_ctlreq.c ****         {
 1663              		.loc 1 341 9 is_stmt 1 view .LVU493
 341:Middlewares/ST/STM32_USB_Device_Library/Core/Src/usbd_ctlreq.c ****         {
 1664              		.loc 1 341 30 is_stmt 0 view .LVU494
 1665 014c 5BB2     		sxtb	r3, r3
 341:Middlewares/ST/STM32_USB_Device_Library/Core/Src/usbd_ctlreq.c ****         {
 1666              		.loc 1 341 11 view .LVU495
 1667 014e 002B     		cmp	r3, #0
 1668 0150 1EDB     		blt	.L162
 351:Middlewares/ST/STM32_USB_Device_Library/Core/Src/usbd_ctlreq.c ****           {
 1669              		.loc 1 351 11 is_stmt 1 view .LVU496
 351:Middlewares/ST/STM32_USB_Device_Library/Core/Src/usbd_ctlreq.c ****           {
 1670              		.loc 1 351 36 is_stmt 0 view .LVU497
 1671 0152 02F00F00 		and	r0, r2, #15
 351:Middlewares/ST/STM32_USB_Device_Library/Core/Src/usbd_ctlreq.c ****           {
ARM GAS  /tmp/ccIuvqu8.s 			page 53


 1672              		.loc 1 351 43 view .LVU498
 1673 0156 00EB8000 		add	r0, r0, r0, lsl #2
 1674 015a 05EB8000 		add	r0, r5, r0, lsl #2
 1675 015e D0F84401 		ldr	r0, [r0, #324]
 351:Middlewares/ST/STM32_USB_Device_Library/Core/Src/usbd_ctlreq.c ****           {
 1676              		.loc 1 351 14 view .LVU499
 1677 0162 18B3     		cbz	r0, .L163
 1678              	.L140:
 358:Middlewares/ST/STM32_USB_Device_Library/Core/Src/usbd_ctlreq.c ****           &pdev->ep_out[ep_addr & 0x7FU];
 1679              		.loc 1 358 9 is_stmt 1 view .LVU500
 358:Middlewares/ST/STM32_USB_Device_Library/Core/Src/usbd_ctlreq.c ****           &pdev->ep_out[ep_addr & 0x7FU];
 1680              		.loc 1 358 75 is_stmt 0 view .LVU501
 1681 0164 002B     		cmp	r3, #0
 1682 0166 26DB     		blt	.L164
 359:Middlewares/ST/STM32_USB_Device_Library/Core/Src/usbd_ctlreq.c **** 
 1683              		.loc 1 359 33 discriminator 2 view .LVU502
 1684 0168 02F07F03 		and	r3, r2, #127
 1685              	.LVL219:
 358:Middlewares/ST/STM32_USB_Device_Library/Core/Src/usbd_ctlreq.c ****           &pdev->ep_out[ep_addr & 0x7FU];
 1686              		.loc 1 358 75 discriminator 2 view .LVU503
 1687 016c 03EB8303 		add	r3, r3, r3, lsl #2
 1688 0170 9C00     		lsls	r4, r3, #2
 1689 0172 04F5A074 		add	r4, r4, #320
 1690 0176 2C44     		add	r4, r4, r5
 1691              	.L142:
 1692              	.LVL220:
 361:Middlewares/ST/STM32_USB_Device_Library/Core/Src/usbd_ctlreq.c ****           {
 1693              		.loc 1 361 11 is_stmt 1 discriminator 4 view .LVU504
 361:Middlewares/ST/STM32_USB_Device_Library/Core/Src/usbd_ctlreq.c ****           {
 1694              		.loc 1 361 14 is_stmt 0 discriminator 4 view .LVU505
 1695 0178 0AB1     		cbz	r2, .L143
 361:Middlewares/ST/STM32_USB_Device_Library/Core/Src/usbd_ctlreq.c ****           {
 1696              		.loc 1 361 34 discriminator 1 view .LVU506
 1697 017a 802A     		cmp	r2, #128
 1698 017c 24D1     		bne	.L144
 1699              	.L143:
 363:Middlewares/ST/STM32_USB_Device_Library/Core/Src/usbd_ctlreq.c ****           }
 1700              		.loc 1 363 13 is_stmt 1 view .LVU507
 363:Middlewares/ST/STM32_USB_Device_Library/Core/Src/usbd_ctlreq.c ****           }
 1701              		.loc 1 363 25 is_stmt 0 view .LVU508
 1702 017e 0023     		movs	r3, #0
 1703 0180 2360     		str	r3, [r4]
 1704              	.LVL221:
 1705              	.L145:
 374:Middlewares/ST/STM32_USB_Device_Library/Core/Src/usbd_ctlreq.c ****           break;
 1706              		.loc 1 374 11 is_stmt 1 view .LVU509
 1707 0182 0222     		movs	r2, #2
 1708 0184 2146     		mov	r1, r4
 1709 0186 2846     		mov	r0, r5
 1710 0188 FFF7FEFF 		bl	USBD_CtlSendData
 1711              	.LVL222:
 375:Middlewares/ST/STM32_USB_Device_Library/Core/Src/usbd_ctlreq.c **** 
 1712              		.loc 1 375 11 view .LVU510
 394:Middlewares/ST/STM32_USB_Device_Library/Core/Src/usbd_ctlreq.c **** }
 1713              		.loc 1 394 10 is_stmt 0 view .LVU511
 1714 018c 3446     		mov	r4, r6
 1715              	.LVL223:
ARM GAS  /tmp/ccIuvqu8.s 			page 54


 375:Middlewares/ST/STM32_USB_Device_Library/Core/Src/usbd_ctlreq.c **** 
 1716              		.loc 1 375 11 view .LVU512
 1717 018e 4DE7     		b	.L117
 1718              	.LVL224:
 1719              	.L162:
 343:Middlewares/ST/STM32_USB_Device_Library/Core/Src/usbd_ctlreq.c ****           {
 1720              		.loc 1 343 11 is_stmt 1 view .LVU513
 343:Middlewares/ST/STM32_USB_Device_Library/Core/Src/usbd_ctlreq.c ****           {
 1721              		.loc 1 343 35 is_stmt 0 view .LVU514
 1722 0190 02F00F00 		and	r0, r2, #15
 343:Middlewares/ST/STM32_USB_Device_Library/Core/Src/usbd_ctlreq.c ****           {
 1723              		.loc 1 343 42 view .LVU515
 1724 0194 00EB8000 		add	r0, r0, r0, lsl #2
 1725 0198 05EB8000 		add	r0, r5, r0, lsl #2
 1726 019c 8069     		ldr	r0, [r0, #24]
 343:Middlewares/ST/STM32_USB_Device_Library/Core/Src/usbd_ctlreq.c ****           {
 1727              		.loc 1 343 14 view .LVU516
 1728 019e 0028     		cmp	r0, #0
 1729 01a0 E0D1     		bne	.L140
 345:Middlewares/ST/STM32_USB_Device_Library/Core/Src/usbd_ctlreq.c ****             break;
 1730              		.loc 1 345 13 is_stmt 1 view .LVU517
 1731 01a2 2846     		mov	r0, r5
 1732 01a4 FFF7FEFF 		bl	USBD_CtlError
 1733              	.LVL225:
 346:Middlewares/ST/STM32_USB_Device_Library/Core/Src/usbd_ctlreq.c ****           }
 1734              		.loc 1 346 13 view .LVU518
 394:Middlewares/ST/STM32_USB_Device_Library/Core/Src/usbd_ctlreq.c **** }
 1735              		.loc 1 394 10 is_stmt 0 view .LVU519
 1736 01a8 3446     		mov	r4, r6
 346:Middlewares/ST/STM32_USB_Device_Library/Core/Src/usbd_ctlreq.c ****           }
 1737              		.loc 1 346 13 view .LVU520
 1738 01aa 3FE7     		b	.L117
 1739              	.LVL226:
 1740              	.L163:
 353:Middlewares/ST/STM32_USB_Device_Library/Core/Src/usbd_ctlreq.c ****             break;
 1741              		.loc 1 353 13 is_stmt 1 view .LVU521
 1742 01ac 2846     		mov	r0, r5
 1743 01ae FFF7FEFF 		bl	USBD_CtlError
 1744              	.LVL227:
 354:Middlewares/ST/STM32_USB_Device_Library/Core/Src/usbd_ctlreq.c ****           }
 1745              		.loc 1 354 13 view .LVU522
 394:Middlewares/ST/STM32_USB_Device_Library/Core/Src/usbd_ctlreq.c **** }
 1746              		.loc 1 394 10 is_stmt 0 view .LVU523
 1747 01b2 3446     		mov	r4, r6
 354:Middlewares/ST/STM32_USB_Device_Library/Core/Src/usbd_ctlreq.c ****           }
 1748              		.loc 1 354 13 view .LVU524
 1749 01b4 3AE7     		b	.L117
 1750              	.LVL228:
 1751              	.L164:
 358:Middlewares/ST/STM32_USB_Device_Library/Core/Src/usbd_ctlreq.c ****           &pdev->ep_out[ep_addr & 0x7FU];
 1752              		.loc 1 358 67 discriminator 1 view .LVU525
 1753 01b6 02F07F03 		and	r3, r2, #127
 1754              	.LVL229:
 358:Middlewares/ST/STM32_USB_Device_Library/Core/Src/usbd_ctlreq.c ****           &pdev->ep_out[ep_addr & 0x7FU];
 1755              		.loc 1 358 75 discriminator 1 view .LVU526
 1756 01ba 03EB8303 		add	r3, r3, r3, lsl #2
 1757 01be 9C00     		lsls	r4, r3, #2
ARM GAS  /tmp/ccIuvqu8.s 			page 55


 1758 01c0 1034     		adds	r4, r4, #16
 1759 01c2 2C44     		add	r4, r4, r5
 1760 01c4 0434     		adds	r4, r4, #4
 1761 01c6 D7E7     		b	.L142
 1762              	.LVL230:
 1763              	.L144:
 365:Middlewares/ST/STM32_USB_Device_Library/Core/Src/usbd_ctlreq.c ****           {
 1764              		.loc 1 365 16 is_stmt 1 view .LVU527
 365:Middlewares/ST/STM32_USB_Device_Library/Core/Src/usbd_ctlreq.c ****           {
 1765              		.loc 1 365 19 is_stmt 0 view .LVU528
 1766 01c8 1146     		mov	r1, r2
 1767              	.LVL231:
 365:Middlewares/ST/STM32_USB_Device_Library/Core/Src/usbd_ctlreq.c ****           {
 1768              		.loc 1 365 19 view .LVU529
 1769 01ca 2846     		mov	r0, r5
 1770 01cc FFF7FEFF 		bl	USBD_LL_IsStallEP
 1771              	.LVL232:
 365:Middlewares/ST/STM32_USB_Device_Library/Core/Src/usbd_ctlreq.c ****           {
 1772              		.loc 1 365 18 view .LVU530
 1773 01d0 10B1     		cbz	r0, .L146
 367:Middlewares/ST/STM32_USB_Device_Library/Core/Src/usbd_ctlreq.c ****           }
 1774              		.loc 1 367 13 is_stmt 1 view .LVU531
 367:Middlewares/ST/STM32_USB_Device_Library/Core/Src/usbd_ctlreq.c ****           }
 1775              		.loc 1 367 25 is_stmt 0 view .LVU532
 1776 01d2 0123     		movs	r3, #1
 1777 01d4 2360     		str	r3, [r4]
 1778 01d6 D4E7     		b	.L145
 1779              	.L146:
 371:Middlewares/ST/STM32_USB_Device_Library/Core/Src/usbd_ctlreq.c ****           }
 1780              		.loc 1 371 13 is_stmt 1 view .LVU533
 371:Middlewares/ST/STM32_USB_Device_Library/Core/Src/usbd_ctlreq.c ****           }
 1781              		.loc 1 371 25 is_stmt 0 view .LVU534
 1782 01d8 0023     		movs	r3, #0
 1783 01da 2360     		str	r3, [r4]
 1784 01dc D1E7     		b	.L145
 1785              		.cfi_endproc
 1786              	.LFE135:
 1788              		.section	.text.USBD_GetString,"ax",%progbits
 1789              		.align	1
 1790              		.global	USBD_GetString
 1791              		.syntax unified
 1792              		.thumb
 1793              		.thumb_func
 1794              		.fpu fpv4-sp-d16
 1796              	USBD_GetString:
 1797              	.LVL233:
 1798              	.LFB145:
 799:Middlewares/ST/STM32_USB_Device_Library/Core/Src/usbd_ctlreq.c ****   uint8_t idx = 0U;
 1799              		.loc 1 799 1 is_stmt 1 view -0
 1800              		.cfi_startproc
 1801              		@ args = 0, pretend = 0, frame = 0
 1802              		@ frame_needed = 0, uses_anonymous_args = 0
 800:Middlewares/ST/STM32_USB_Device_Library/Core/Src/usbd_ctlreq.c **** 
 1803              		.loc 1 800 3 view .LVU536
 802:Middlewares/ST/STM32_USB_Device_Library/Core/Src/usbd_ctlreq.c ****   {
 1804              		.loc 1 802 3 view .LVU537
 802:Middlewares/ST/STM32_USB_Device_Library/Core/Src/usbd_ctlreq.c ****   {
ARM GAS  /tmp/ccIuvqu8.s 			page 56


 1805              		.loc 1 802 6 is_stmt 0 view .LVU538
 1806 0000 C8B1     		cbz	r0, .L170
 799:Middlewares/ST/STM32_USB_Device_Library/Core/Src/usbd_ctlreq.c ****   uint8_t idx = 0U;
 1807              		.loc 1 799 1 view .LVU539
 1808 0002 70B5     		push	{r4, r5, r6, lr}
 1809              	.LCFI14:
 1810              		.cfi_def_cfa_offset 16
 1811              		.cfi_offset 4, -16
 1812              		.cfi_offset 5, -12
 1813              		.cfi_offset 6, -8
 1814              		.cfi_offset 14, -4
 1815 0004 0D46     		mov	r5, r1
 1816 0006 1646     		mov	r6, r2
 1817 0008 0446     		mov	r4, r0
 804:Middlewares/ST/STM32_USB_Device_Library/Core/Src/usbd_ctlreq.c ****     unicode[idx++] = *(uint8_t *)(void *)len;
 1818              		.loc 1 804 5 is_stmt 1 view .LVU540
 804:Middlewares/ST/STM32_USB_Device_Library/Core/Src/usbd_ctlreq.c ****     unicode[idx++] = *(uint8_t *)(void *)len;
 1819              		.loc 1 804 22 is_stmt 0 view .LVU541
 1820 000a FFF7FEFF 		bl	USBD_GetLen
 1821              	.LVL234:
 804:Middlewares/ST/STM32_USB_Device_Library/Core/Src/usbd_ctlreq.c ****     unicode[idx++] = *(uint8_t *)(void *)len;
 1822              		.loc 1 804 45 view .LVU542
 1823 000e 0130     		adds	r0, r0, #1
 804:Middlewares/ST/STM32_USB_Device_Library/Core/Src/usbd_ctlreq.c ****     unicode[idx++] = *(uint8_t *)(void *)len;
 1824              		.loc 1 804 10 view .LVU543
 1825 0010 4000     		lsls	r0, r0, #1
 1826 0012 3080     		strh	r0, [r6]	@ movhi
 805:Middlewares/ST/STM32_USB_Device_Library/Core/Src/usbd_ctlreq.c ****     unicode[idx++] = USB_DESC_TYPE_STRING;
 1827              		.loc 1 805 5 is_stmt 1 view .LVU544
 1828              	.LVL235:
 805:Middlewares/ST/STM32_USB_Device_Library/Core/Src/usbd_ctlreq.c ****     unicode[idx++] = USB_DESC_TYPE_STRING;
 1829              		.loc 1 805 20 is_stmt 0 view .LVU545
 1830 0014 2870     		strb	r0, [r5]
 806:Middlewares/ST/STM32_USB_Device_Library/Core/Src/usbd_ctlreq.c **** 
 1831              		.loc 1 806 5 is_stmt 1 view .LVU546
 1832              	.LVL236:
 806:Middlewares/ST/STM32_USB_Device_Library/Core/Src/usbd_ctlreq.c **** 
